{
  "_format": "hh-sol-artifact-1",
  "contractName": "NWERC721",
  "sourceName": "contracts/v1/NWERC721.sol",
  "abi": [
    {
      "inputs": [],
      "stateMutability": "nonpayable",
      "type": "constructor"
    },
    {
      "inputs": [],
      "name": "ERC721EnumerableForbiddenBatchMint",
      "type": "error"
    },
    {
      "inputs": [
        {
          "internalType": "address",
          "name": "sender",
          "type": "address"
        },
        {
          "internalType": "uint256",
          "name": "tokenId",
          "type": "uint256"
        },
        {
          "internalType": "address",
          "name": "owner",
          "type": "address"
        }
      ],
      "name": "ERC721IncorrectOwner",
      "type": "error"
    },
    {
      "inputs": [
        {
          "internalType": "address",
          "name": "operator",
          "type": "address"
        },
        {
          "internalType": "uint256",
          "name": "tokenId",
          "type": "uint256"
        }
      ],
      "name": "ERC721InsufficientApproval",
      "type": "error"
    },
    {
      "inputs": [
        {
          "internalType": "address",
          "name": "approver",
          "type": "address"
        }
      ],
      "name": "ERC721InvalidApprover",
      "type": "error"
    },
    {
      "inputs": [
        {
          "internalType": "address",
          "name": "operator",
          "type": "address"
        }
      ],
      "name": "ERC721InvalidOperator",
      "type": "error"
    },
    {
      "inputs": [
        {
          "internalType": "address",
          "name": "owner",
          "type": "address"
        }
      ],
      "name": "ERC721InvalidOwner",
      "type": "error"
    },
    {
      "inputs": [
        {
          "internalType": "address",
          "name": "receiver",
          "type": "address"
        }
      ],
      "name": "ERC721InvalidReceiver",
      "type": "error"
    },
    {
      "inputs": [
        {
          "internalType": "address",
          "name": "sender",
          "type": "address"
        }
      ],
      "name": "ERC721InvalidSender",
      "type": "error"
    },
    {
      "inputs": [
        {
          "internalType": "uint256",
          "name": "tokenId",
          "type": "uint256"
        }
      ],
      "name": "ERC721NonexistentToken",
      "type": "error"
    },
    {
      "inputs": [
        {
          "internalType": "address",
          "name": "owner",
          "type": "address"
        },
        {
          "internalType": "uint256",
          "name": "index",
          "type": "uint256"
        }
      ],
      "name": "ERC721OutOfBoundsIndex",
      "type": "error"
    },
    {
      "inputs": [
        {
          "internalType": "address",
          "name": "owner",
          "type": "address"
        }
      ],
      "name": "OwnableInvalidOwner",
      "type": "error"
    },
    {
      "inputs": [
        {
          "internalType": "address",
          "name": "account",
          "type": "address"
        }
      ],
      "name": "OwnableUnauthorizedAccount",
      "type": "error"
    },
    {
      "anonymous": false,
      "inputs": [
        {
          "indexed": true,
          "internalType": "address",
          "name": "owner",
          "type": "address"
        },
        {
          "indexed": true,
          "internalType": "address",
          "name": "approved",
          "type": "address"
        },
        {
          "indexed": true,
          "internalType": "uint256",
          "name": "tokenId",
          "type": "uint256"
        }
      ],
      "name": "Approval",
      "type": "event"
    },
    {
      "anonymous": false,
      "inputs": [
        {
          "indexed": true,
          "internalType": "address",
          "name": "owner",
          "type": "address"
        },
        {
          "indexed": true,
          "internalType": "address",
          "name": "operator",
          "type": "address"
        },
        {
          "indexed": false,
          "internalType": "bool",
          "name": "approved",
          "type": "bool"
        }
      ],
      "name": "ApprovalForAll",
      "type": "event"
    },
    {
      "anonymous": false,
      "inputs": [
        {
          "indexed": true,
          "internalType": "address",
          "name": "previousOwner",
          "type": "address"
        },
        {
          "indexed": true,
          "internalType": "address",
          "name": "newOwner",
          "type": "address"
        }
      ],
      "name": "OwnershipTransferred",
      "type": "event"
    },
    {
      "anonymous": false,
      "inputs": [
        {
          "indexed": true,
          "internalType": "address",
          "name": "from",
          "type": "address"
        },
        {
          "indexed": true,
          "internalType": "address",
          "name": "to",
          "type": "address"
        },
        {
          "indexed": true,
          "internalType": "uint256",
          "name": "tokenId",
          "type": "uint256"
        }
      ],
      "name": "Transfer",
      "type": "event"
    },
    {
      "inputs": [
        {
          "internalType": "address",
          "name": "to",
          "type": "address"
        },
        {
          "internalType": "uint256",
          "name": "tokenId",
          "type": "uint256"
        }
      ],
      "name": "approve",
      "outputs": [],
      "stateMutability": "nonpayable",
      "type": "function"
    },
    {
      "inputs": [
        {
          "internalType": "address",
          "name": "owner",
          "type": "address"
        }
      ],
      "name": "balanceOf",
      "outputs": [
        {
          "internalType": "uint256",
          "name": "",
          "type": "uint256"
        }
      ],
      "stateMutability": "view",
      "type": "function"
    },
    {
      "inputs": [],
      "name": "baseURI",
      "outputs": [
        {
          "internalType": "string",
          "name": "",
          "type": "string"
        }
      ],
      "stateMutability": "view",
      "type": "function"
    },
    {
      "inputs": [
        {
          "internalType": "uint256",
          "name": "tokenId",
          "type": "uint256"
        }
      ],
      "name": "getApproved",
      "outputs": [
        {
          "internalType": "address",
          "name": "",
          "type": "address"
        }
      ],
      "stateMutability": "view",
      "type": "function"
    },
    {
      "inputs": [
        {
          "internalType": "string",
          "name": "_collectionName",
          "type": "string"
        },
        {
          "internalType": "string",
          "name": "_collectionSymbol",
          "type": "string"
        },
        {
          "internalType": "string",
          "name": "_collectionURI",
          "type": "string"
        }
      ],
      "name": "initializeCollection",
      "outputs": [],
      "stateMutability": "nonpayable",
      "type": "function"
    },
    {
      "inputs": [
        {
          "internalType": "address",
          "name": "owner",
          "type": "address"
        },
        {
          "internalType": "address",
          "name": "operator",
          "type": "address"
        }
      ],
      "name": "isApprovedForAll",
      "outputs": [
        {
          "internalType": "bool",
          "name": "",
          "type": "bool"
        }
      ],
      "stateMutability": "view",
      "type": "function"
    },
    {
      "inputs": [],
      "name": "name",
      "outputs": [
        {
          "internalType": "string",
          "name": "",
          "type": "string"
        }
      ],
      "stateMutability": "view",
      "type": "function"
    },
    {
      "inputs": [],
      "name": "owner",
      "outputs": [
        {
          "internalType": "address",
          "name": "",
          "type": "address"
        }
      ],
      "stateMutability": "view",
      "type": "function"
    },
    {
      "inputs": [
        {
          "internalType": "uint256",
          "name": "tokenId",
          "type": "uint256"
        }
      ],
      "name": "ownerOf",
      "outputs": [
        {
          "internalType": "address",
          "name": "",
          "type": "address"
        }
      ],
      "stateMutability": "view",
      "type": "function"
    },
    {
      "inputs": [],
      "name": "renounceOwnership",
      "outputs": [],
      "stateMutability": "nonpayable",
      "type": "function"
    },
    {
      "inputs": [
        {
          "internalType": "address",
          "name": "_to",
          "type": "address"
        }
      ],
      "name": "safeMint",
      "outputs": [],
      "stateMutability": "payable",
      "type": "function"
    },
    {
      "inputs": [
        {
          "internalType": "address",
          "name": "from",
          "type": "address"
        },
        {
          "internalType": "address",
          "name": "to",
          "type": "address"
        },
        {
          "internalType": "uint256",
          "name": "tokenId",
          "type": "uint256"
        }
      ],
      "name": "safeTransferFrom",
      "outputs": [],
      "stateMutability": "nonpayable",
      "type": "function"
    },
    {
      "inputs": [
        {
          "internalType": "address",
          "name": "from",
          "type": "address"
        },
        {
          "internalType": "address",
          "name": "to",
          "type": "address"
        },
        {
          "internalType": "uint256",
          "name": "tokenId",
          "type": "uint256"
        },
        {
          "internalType": "bytes",
          "name": "data",
          "type": "bytes"
        }
      ],
      "name": "safeTransferFrom",
      "outputs": [],
      "stateMutability": "nonpayable",
      "type": "function"
    },
    {
      "inputs": [
        {
          "internalType": "address",
          "name": "operator",
          "type": "address"
        },
        {
          "internalType": "bool",
          "name": "approved",
          "type": "bool"
        }
      ],
      "name": "setApprovalForAll",
      "outputs": [],
      "stateMutability": "nonpayable",
      "type": "function"
    },
    {
      "inputs": [
        {
          "internalType": "bytes4",
          "name": "interfaceId",
          "type": "bytes4"
        }
      ],
      "name": "supportsInterface",
      "outputs": [
        {
          "internalType": "bool",
          "name": "",
          "type": "bool"
        }
      ],
      "stateMutability": "view",
      "type": "function"
    },
    {
      "inputs": [],
      "name": "symbol",
      "outputs": [
        {
          "internalType": "string",
          "name": "",
          "type": "string"
        }
      ],
      "stateMutability": "view",
      "type": "function"
    },
    {
      "inputs": [
        {
          "internalType": "uint256",
          "name": "index",
          "type": "uint256"
        }
      ],
      "name": "tokenByIndex",
      "outputs": [
        {
          "internalType": "uint256",
          "name": "",
          "type": "uint256"
        }
      ],
      "stateMutability": "view",
      "type": "function"
    },
    {
      "inputs": [
        {
          "internalType": "address",
          "name": "owner",
          "type": "address"
        },
        {
          "internalType": "uint256",
          "name": "index",
          "type": "uint256"
        }
      ],
      "name": "tokenOfOwnerByIndex",
      "outputs": [
        {
          "internalType": "uint256",
          "name": "",
          "type": "uint256"
        }
      ],
      "stateMutability": "view",
      "type": "function"
    },
    {
      "inputs": [
        {
          "internalType": "uint256",
          "name": "_tokenId",
          "type": "uint256"
        }
      ],
      "name": "tokenURI",
      "outputs": [
        {
          "internalType": "string",
          "name": "",
          "type": "string"
        }
      ],
      "stateMutability": "view",
      "type": "function"
    },
    {
      "inputs": [],
      "name": "totalSupply",
      "outputs": [
        {
          "internalType": "uint256",
          "name": "",
          "type": "uint256"
        }
      ],
      "stateMutability": "view",
      "type": "function"
    },
    {
      "inputs": [
        {
          "internalType": "address",
          "name": "from",
          "type": "address"
        },
        {
          "internalType": "address",
          "name": "to",
          "type": "address"
        },
        {
          "internalType": "uint256",
          "name": "tokenId",
          "type": "uint256"
        }
      ],
      "name": "transferFrom",
      "outputs": [],
      "stateMutability": "nonpayable",
      "type": "function"
    },
    {
      "inputs": [
        {
          "internalType": "address",
          "name": "newOwner",
          "type": "address"
        }
      ],
      "name": "transferOwnership",
      "outputs": [],
      "stateMutability": "nonpayable",
      "type": "function"
    }
  ],
  "bytecode": "0x60806040523480156200001157600080fd5b50336040518060200160405280600081525060405180602001604052806000815250816000908162000044919062000426565b50806001908162000056919062000426565b505050600073ffffffffffffffffffffffffffffffffffffffff168173ffffffffffffffffffffffffffffffffffffffff1603620000ce5760006040517f1e4fbdf7000000000000000000000000000000000000000000000000000000008152600401620000c5919062000552565b60405180910390fd5b620000df81620000e660201b60201c565b506200056f565b6000600a60009054906101000a900473ffffffffffffffffffffffffffffffffffffffff16905081600a60006101000a81548173ffffffffffffffffffffffffffffffffffffffff021916908373ffffffffffffffffffffffffffffffffffffffff1602179055508173ffffffffffffffffffffffffffffffffffffffff168173ffffffffffffffffffffffffffffffffffffffff167f8be0079c531659141344cd1fd0a4f28419497f9722a3daafe3b4186f6b6457e060405160405180910390a35050565b600081519050919050565b7f4e487b7100000000000000000000000000000000000000000000000000000000600052604160045260246000fd5b7f4e487b7100000000000000000000000000000000000000000000000000000000600052602260045260246000fd5b600060028204905060018216806200022e57607f821691505b602082108103620002445762000243620001e6565b5b50919050565b60008190508160005260206000209050919050565b60006020601f8301049050919050565b600082821b905092915050565b600060088302620002ae7fffffffffffffffffffffffffffffffffffffffffffffffffffffffffffffffff826200026f565b620002ba86836200026f565b95508019841693508086168417925050509392505050565b6000819050919050565b6000819050919050565b60006200030762000301620002fb84620002d2565b620002dc565b620002d2565b9050919050565b6000819050919050565b6200032383620002e6565b6200033b62000332826200030e565b8484546200027c565b825550505050565b600090565b6200035262000343565b6200035f81848462000318565b505050565b5b8181101562000387576200037b60008262000348565b60018101905062000365565b5050565b601f821115620003d657620003a0816200024a565b620003ab846200025f565b81016020851015620003bb578190505b620003d3620003ca856200025f565b83018262000364565b50505b505050565b600082821c905092915050565b6000620003fb60001984600802620003db565b1980831691505092915050565b6000620004168383620003e8565b9150826002028217905092915050565b6200043182620001ac565b67ffffffffffffffff8111156200044d576200044c620001b7565b5b62000459825462000215565b620004668282856200038b565b600060209050601f8311600181146200049e576000841562000489578287015190505b62000495858262000408565b86555062000505565b601f198416620004ae866200024a565b60005b82811015620004d857848901518255600182019150602085019450602081019050620004b1565b86831015620004f85784890151620004f4601f891682620003e8565b8355505b6001600288020188555050505b505050505050565b600073ffffffffffffffffffffffffffffffffffffffff82169050919050565b60006200053a826200050d565b9050919050565b6200054c816200052d565b82525050565b600060208201905062000569600083018462000541565b92915050565b613099806200057f6000396000f3fe6080604052600436106101355760003560e01c80636c0360eb116100ab57806395d89b411161006f57806395d89b411461042b578063a22cb46514610456578063b88d4fde1461047f578063c87b56dd146104a8578063e985e9c5146104e5578063f2fde38b1461052257610135565b80636c0360eb1461035857806370a0823114610383578063715018a6146103c05780637fadcae1146103d75780638da5cb5b1461040057610135565b806323b872dd116100fd57806323b872dd146102335780632f745c591461025c57806340d097c31461029957806342842e0e146102b55780634f6ccce7146102de5780636352211e1461031b57610135565b806301ffc9a71461013a57806306fdde0314610177578063081812fc146101a2578063095ea7b3146101df57806318160ddd14610208575b600080fd5b34801561014657600080fd5b50610161600480360381019061015c91906122b6565b61054b565b60405161016e91906122fe565b60405180910390f35b34801561018357600080fd5b5061018c6105c5565b60405161019991906123a9565b60405180910390f35b3480156101ae57600080fd5b506101c960048036038101906101c49190612401565b610657565b6040516101d6919061246f565b60405180910390f35b3480156101eb57600080fd5b50610206600480360381019061020191906124b6565b610673565b005b34801561021457600080fd5b5061021d610689565b60405161022a9190612505565b60405180910390f35b34801561023f57600080fd5b5061025a60048036038101906102559190612520565b610696565b005b34801561026857600080fd5b50610283600480360381019061027e91906124b6565b610798565b6040516102909190612505565b60405180910390f35b6102b360048036038101906102ae9190612573565b610841565b005b3480156102c157600080fd5b506102dc60048036038101906102d79190612520565b6109b1565b005b3480156102ea57600080fd5b5061030560048036038101906103009190612401565b6109d1565b6040516103129190612505565b60405180910390f35b34801561032757600080fd5b50610342600480360381019061033d9190612401565b610a47565b60405161034f919061246f565b60405180910390f35b34801561036457600080fd5b5061036d610a59565b60405161037a91906123a9565b60405180910390f35b34801561038f57600080fd5b506103aa60048036038101906103a59190612573565b610ae7565b6040516103b79190612505565b60405180910390f35b3480156103cc57600080fd5b506103d5610ba1565b005b3480156103e357600080fd5b506103fe60048036038101906103f99190612605565b610bb5565b005b34801561040c57600080fd5b50610415610bfb565b604051610422919061246f565b60405180910390f35b34801561043757600080fd5b50610440610c25565b60405161044d91906123a9565b60405180910390f35b34801561046257600080fd5b5061047d600480360381019061047891906126e5565b610cb7565b005b34801561048b57600080fd5b506104a660048036038101906104a19190612855565b610ccd565b005b3480156104b457600080fd5b506104cf60048036038101906104ca9190612401565b610cf2565b6040516104dc91906123a9565b60405180910390f35b3480156104f157600080fd5b5061050c600480360381019061050791906128d8565b610d5c565b60405161051991906122fe565b60405180910390f35b34801561052e57600080fd5b5061054960048036038101906105449190612573565b610df0565b005b60007f780e9d63000000000000000000000000000000000000000000000000000000007bffffffffffffffffffffffffffffffffffffffffffffffffffffffff1916827bffffffffffffffffffffffffffffffffffffffffffffffffffffffff191614806105be57506105bd82610e76565b5b9050919050565b6060600080546105d490612947565b80601f016020809104026020016040519081016040528092919081815260200182805461060090612947565b801561064d5780601f106106225761010080835404028352916020019161064d565b820191906000526020600020905b81548152906001019060200180831161063057829003601f168201915b5050505050905090565b600061066282610f58565b5061066c82610fe0565b9050919050565b610685828261068061101d565b611025565b5050565b6000600880549050905090565b600073ffffffffffffffffffffffffffffffffffffffff168273ffffffffffffffffffffffffffffffffffffffff16036107085760006040517f64a0ae920000000000000000000000000000000000000000000000000000000081526004016106ff919061246f565b60405180910390fd5b600061071c838361071761101d565b611037565b90508373ffffffffffffffffffffffffffffffffffffffff168173ffffffffffffffffffffffffffffffffffffffff1614610792578382826040517f64283d7b00000000000000000000000000000000000000000000000000000000815260040161078993929190612978565b60405180910390fd5b50505050565b60006107a383610ae7565b82106107e85782826040517fa57d13dc0000000000000000000000000000000000000000000000000000000081526004016107df9291906129af565b60405180910390fd5b600660008473ffffffffffffffffffffffffffffffffffffffff1673ffffffffffffffffffffffffffffffffffffffff168152602001908152602001600020600083815260200190815260200160002054905092915050565b610849611154565b60286001610855610689565b61085f9190612a07565b11156108a0576040517f08c379a000000000000000000000000000000000000000000000000000000000815260040161089790612a87565b60405180910390fd5b600a6001600d60008473ffffffffffffffffffffffffffffffffffffffff1673ffffffffffffffffffffffffffffffffffffffff168152602001908152602001600020546108ee9190612a07565b111561092f576040517f08c379a000000000000000000000000000000000000000000000000000000000815260040161092690612b19565b60405180910390fd5b600d60008273ffffffffffffffffffffffffffffffffffffffff1673ffffffffffffffffffffffffffffffffffffffff168152602001908152602001600020600081548092919061097f90612b39565b9190505550600b600081548092919061099790612b39565b91905055506000600b5490506109ad82826111db565b5050565b6109cc83838360405180602001604052806000815250610ccd565b505050565b60006109db610689565b8210610a21576000826040517fa57d13dc000000000000000000000000000000000000000000000000000000008152600401610a189291906129af565b60405180910390fd5b60088281548110610a3557610a34612b81565b5b90600052602060002001549050919050565b6000610a5282610f58565b9050919050565b600c8054610a6690612947565b80601f0160208091040260200160405190810160405280929190818152602001828054610a9290612947565b8015610adf5780601f10610ab457610100808354040283529160200191610adf565b820191906000526020600020905b815481529060010190602001808311610ac257829003601f168201915b505050505081565b60008073ffffffffffffffffffffffffffffffffffffffff168273ffffffffffffffffffffffffffffffffffffffff1603610b5a5760006040517f89c62b64000000000000000000000000000000000000000000000000000000008152600401610b51919061246f565b60405180910390fd5b600360008373ffffffffffffffffffffffffffffffffffffffff1673ffffffffffffffffffffffffffffffffffffffff168152602001908152602001600020549050919050565b610ba9611154565b610bb360006111f9565b565b610bbd611154565b858560009182610bce929190612d67565b50838360019182610be0929190612d67565b508181600c9182610bf2929190612d67565b50505050505050565b6000600a60009054906101000a900473ffffffffffffffffffffffffffffffffffffffff16905090565b606060018054610c3490612947565b80601f0160208091040260200160405190810160405280929190818152602001828054610c6090612947565b8015610cad5780601f10610c8257610100808354040283529160200191610cad565b820191906000526020600020905b815481529060010190602001808311610c9057829003601f168201915b5050505050905090565b610cc9610cc261101d565b83836112bf565b5050565b610cd8848484610696565b610cec610ce361101d565b8585858561142e565b50505050565b6060610cfd82610f58565b506000610d086115df565b5111610d235760405180602001604052806000815250610d55565b610d2b6115df565b610d3483611671565b604051602001610d45929190612ebf565b6040516020818303038152906040525b9050919050565b6000600560008473ffffffffffffffffffffffffffffffffffffffff1673ffffffffffffffffffffffffffffffffffffffff16815260200190815260200160002060008373ffffffffffffffffffffffffffffffffffffffff1673ffffffffffffffffffffffffffffffffffffffff16815260200190815260200160002060009054906101000a900460ff16905092915050565b610df8611154565b600073ffffffffffffffffffffffffffffffffffffffff168173ffffffffffffffffffffffffffffffffffffffff1603610e6a5760006040517f1e4fbdf7000000000000000000000000000000000000000000000000000000008152600401610e61919061246f565b60405180910390fd5b610e73816111f9565b50565b60007f80ac58cd000000000000000000000000000000000000000000000000000000007bffffffffffffffffffffffffffffffffffffffffffffffffffffffff1916827bffffffffffffffffffffffffffffffffffffffffffffffffffffffff19161480610f4157507f5b5e139f000000000000000000000000000000000000000000000000000000007bffffffffffffffffffffffffffffffffffffffffffffffffffffffff1916827bffffffffffffffffffffffffffffffffffffffffffffffffffffffff1916145b80610f515750610f508261173f565b5b9050919050565b600080610f64836117a9565b9050600073ffffffffffffffffffffffffffffffffffffffff168173ffffffffffffffffffffffffffffffffffffffff1603610fd757826040517f7e273289000000000000000000000000000000000000000000000000000000008152600401610fce9190612505565b60405180910390fd5b80915050919050565b60006004600083815260200190815260200160002060009054906101000a900473ffffffffffffffffffffffffffffffffffffffff169050919050565b600033905090565b61103283838360016117e6565b505050565b6000806110458585856119ab565b9050600073ffffffffffffffffffffffffffffffffffffffff168173ffffffffffffffffffffffffffffffffffffffff16036110895761108484611bc5565b6110c8565b8473ffffffffffffffffffffffffffffffffffffffff168173ffffffffffffffffffffffffffffffffffffffff16146110c7576110c68185611c0e565b5b5b600073ffffffffffffffffffffffffffffffffffffffff168573ffffffffffffffffffffffffffffffffffffffff160361110a5761110584611cf9565b611149565b8473ffffffffffffffffffffffffffffffffffffffff168173ffffffffffffffffffffffffffffffffffffffff1614611148576111478585611dca565b5b5b809150509392505050565b61115c61101d565b73ffffffffffffffffffffffffffffffffffffffff1661117a610bfb565b73ffffffffffffffffffffffffffffffffffffffff16146111d95761119d61101d565b6040517f118cdaa70000000000000000000000000000000000000000000000000000000081526004016111d0919061246f565b60405180910390fd5b565b6111f5828260405180602001604052806000815250611e55565b5050565b6000600a60009054906101000a900473ffffffffffffffffffffffffffffffffffffffff16905081600a60006101000a81548173ffffffffffffffffffffffffffffffffffffffff021916908373ffffffffffffffffffffffffffffffffffffffff1602179055508173ffffffffffffffffffffffffffffffffffffffff168173ffffffffffffffffffffffffffffffffffffffff167f8be0079c531659141344cd1fd0a4f28419497f9722a3daafe3b4186f6b6457e060405160405180910390a35050565b600073ffffffffffffffffffffffffffffffffffffffff168273ffffffffffffffffffffffffffffffffffffffff160361133057816040517f5b08ba18000000000000000000000000000000000000000000000000000000008152600401611327919061246f565b60405180910390fd5b80600560008573ffffffffffffffffffffffffffffffffffffffff1673ffffffffffffffffffffffffffffffffffffffff16815260200190815260200160002060008473ffffffffffffffffffffffffffffffffffffffff1673ffffffffffffffffffffffffffffffffffffffff16815260200190815260200160002060006101000a81548160ff0219169083151502179055508173ffffffffffffffffffffffffffffffffffffffff168373ffffffffffffffffffffffffffffffffffffffff167f17307eab39ab6107e8899845ad3d59bd9653f200f220920489ca2b5937696c318360405161142191906122fe565b60405180910390a3505050565b60008373ffffffffffffffffffffffffffffffffffffffff163b11156115d8578273ffffffffffffffffffffffffffffffffffffffff1663150b7a02868685856040518563ffffffff1660e01b815260040161148d9493929190612f43565b6020604051808303816000875af19250505080156114c957506040513d601f19601f820116820180604052508101906114c69190612fa4565b60015b61154d573d80600081146114f9576040519150601f19603f3d011682016040523d82523d6000602084013e6114fe565b606091505b50600081510361154557836040517f64a0ae9200000000000000000000000000000000000000000000000000000000815260040161153c919061246f565b60405180910390fd5b805181602001fd5b63150b7a0260e01b7bffffffffffffffffffffffffffffffffffffffffffffffffffffffff1916817bffffffffffffffffffffffffffffffffffffffffffffffffffffffff1916146115d657836040517f64a0ae920000000000000000000000000000000000000000000000000000000081526004016115cd919061246f565b60405180910390fd5b505b5050505050565b6060600c80546115ee90612947565b80601f016020809104026020016040519081016040528092919081815260200182805461161a90612947565b80156116675780601f1061163c57610100808354040283529160200191611667565b820191906000526020600020905b81548152906001019060200180831161164a57829003601f168201915b5050505050905090565b60606000600161168084611e79565b01905060008167ffffffffffffffff81111561169f5761169e61272a565b5b6040519080825280601f01601f1916602001820160405280156116d15781602001600182028036833780820191505090505b509050600082602001820190505b600115611734578080600190039150507f3031323334353637383961626364656600000000000000000000000000000000600a86061a8153600a858161172857611727612fd1565b5b049450600085036116df575b819350505050919050565b60007f01ffc9a7000000000000000000000000000000000000000000000000000000007bffffffffffffffffffffffffffffffffffffffffffffffffffffffff1916827bffffffffffffffffffffffffffffffffffffffffffffffffffffffff1916149050919050565b60006002600083815260200190815260200160002060009054906101000a900473ffffffffffffffffffffffffffffffffffffffff169050919050565b808061181f5750600073ffffffffffffffffffffffffffffffffffffffff168273ffffffffffffffffffffffffffffffffffffffff1614155b1561195357600061182f84610f58565b9050600073ffffffffffffffffffffffffffffffffffffffff168373ffffffffffffffffffffffffffffffffffffffff161415801561189a57508273ffffffffffffffffffffffffffffffffffffffff168173ffffffffffffffffffffffffffffffffffffffff1614155b80156118ad57506118ab8184610d5c565b155b156118ef57826040517fa9fbf51f0000000000000000000000000000000000000000000000000000000081526004016118e6919061246f565b60405180910390fd5b811561195157838573ffffffffffffffffffffffffffffffffffffffff168273ffffffffffffffffffffffffffffffffffffffff167f8c5be1e5ebec7d5bd14f71427d1e84f3dd0314c0f7b2291e5b200ac8c7c3b92560405160405180910390a45b505b836004600085815260200190815260200160002060006101000a81548173ffffffffffffffffffffffffffffffffffffffff021916908373ffffffffffffffffffffffffffffffffffffffff16021790555050505050565b6000806119b7846117a9565b9050600073ffffffffffffffffffffffffffffffffffffffff168373ffffffffffffffffffffffffffffffffffffffff16146119f9576119f8818486611fcc565b5b600073ffffffffffffffffffffffffffffffffffffffff168173ffffffffffffffffffffffffffffffffffffffff1614611a8a57611a3b6000856000806117e6565b6001600360008373ffffffffffffffffffffffffffffffffffffffff1673ffffffffffffffffffffffffffffffffffffffff168152602001908152602001600020600082825403925050819055505b600073ffffffffffffffffffffffffffffffffffffffff168573ffffffffffffffffffffffffffffffffffffffff1614611b0d576001600360008773ffffffffffffffffffffffffffffffffffffffff1673ffffffffffffffffffffffffffffffffffffffff168152602001908152602001600020600082825401925050819055505b846002600086815260200190815260200160002060006101000a81548173ffffffffffffffffffffffffffffffffffffffff021916908373ffffffffffffffffffffffffffffffffffffffff160217905550838573ffffffffffffffffffffffffffffffffffffffff168273ffffffffffffffffffffffffffffffffffffffff167fddf252ad1be2c89b69c2b068fc378daa952ba7f163c4a11628f55a4df523b3ef60405160405180910390a4809150509392505050565b6008805490506009600083815260200190815260200160002081905550600881908060018154018082558091505060019003906000526020600020016000909190919091505550565b6000611c1983610ae7565b90506000600760008481526020019081526020016000205490506000600660008673ffffffffffffffffffffffffffffffffffffffff1673ffffffffffffffffffffffffffffffffffffffff1681526020019081526020016000209050828214611cc55760008160008581526020019081526020016000205490508082600085815260200190815260200160002081905550826007600083815260200190815260200160002081905550505b6007600085815260200190815260200160002060009055806000848152602001908152602001600020600090555050505050565b60006001600880549050611d0d9190613000565b9050600060096000848152602001908152602001600020549050600060088381548110611d3d57611d3c612b81565b5b906000526020600020015490508060088381548110611d5f57611d5e612b81565b5b906000526020600020018190555081600960008381526020019081526020016000208190555060096000858152602001908152602001600020600090556008805480611dae57611dad613034565b5b6001900381819060005260206000200160009055905550505050565b60006001611dd784610ae7565b611de19190613000565b905081600660008573ffffffffffffffffffffffffffffffffffffffff1673ffffffffffffffffffffffffffffffffffffffff168152602001908152602001600020600083815260200190815260200160002081905550806007600084815260200190815260200160002081905550505050565b611e5f8383612090565b611e74611e6a61101d565b600085858561142e565b505050565b600080600090507a184f03e93ff9f4daa797ed6e38ed64bf6a1f0100000000000000008310611ed7577a184f03e93ff9f4daa797ed6e38ed64bf6a1f0100000000000000008381611ecd57611ecc612fd1565b5b0492506040810190505b6d04ee2d6d415b85acef81000000008310611f14576d04ee2d6d415b85acef81000000008381611f0a57611f09612fd1565b5b0492506020810190505b662386f26fc100008310611f4357662386f26fc100008381611f3957611f38612fd1565b5b0492506010810190505b6305f5e1008310611f6c576305f5e1008381611f6257611f61612fd1565b5b0492506008810190505b6127108310611f91576127108381611f8757611f86612fd1565b5b0492506004810190505b60648310611fb45760648381611faa57611fa9612fd1565b5b0492506002810190505b600a8310611fc3576001810190505b80915050919050565b611fd7838383612189565b61208b57600073ffffffffffffffffffffffffffffffffffffffff168373ffffffffffffffffffffffffffffffffffffffff160361204c57806040517f7e2732890000000000000000000000000000000000000000000000000000000081526004016120439190612505565b60405180910390fd5b81816040517f177e802f0000000000000000000000000000000000000000000000000000000081526004016120829291906129af565b60405180910390fd5b505050565b600073ffffffffffffffffffffffffffffffffffffffff168273ffffffffffffffffffffffffffffffffffffffff16036121025760006040517f64a0ae920000000000000000000000000000000000000000000000000000000081526004016120f9919061246f565b60405180910390fd5b600061211083836000611037565b9050600073ffffffffffffffffffffffffffffffffffffffff168173ffffffffffffffffffffffffffffffffffffffff16146121845760006040517f73c6ac6e00000000000000000000000000000000000000000000000000000000815260040161217b919061246f565b60405180910390fd5b505050565b60008073ffffffffffffffffffffffffffffffffffffffff168373ffffffffffffffffffffffffffffffffffffffff161415801561224157508273ffffffffffffffffffffffffffffffffffffffff168473ffffffffffffffffffffffffffffffffffffffff16148061220257506122018484610d5c565b5b8061224057508273ffffffffffffffffffffffffffffffffffffffff1661222883610fe0565b73ffffffffffffffffffffffffffffffffffffffff16145b5b90509392505050565b6000604051905090565b600080fd5b600080fd5b60007fffffffff0000000000000000000000000000000000000000000000000000000082169050919050565b6122938161225e565b811461229e57600080fd5b50565b6000813590506122b08161228a565b92915050565b6000602082840312156122cc576122cb612254565b5b60006122da848285016122a1565b91505092915050565b60008115159050919050565b6122f8816122e3565b82525050565b600060208201905061231360008301846122ef565b92915050565b600081519050919050565b600082825260208201905092915050565b60005b83811015612353578082015181840152602081019050612338565b60008484015250505050565b6000601f19601f8301169050919050565b600061237b82612319565b6123858185612324565b9350612395818560208601612335565b61239e8161235f565b840191505092915050565b600060208201905081810360008301526123c38184612370565b905092915050565b6000819050919050565b6123de816123cb565b81146123e957600080fd5b50565b6000813590506123fb816123d5565b92915050565b60006020828403121561241757612416612254565b5b6000612425848285016123ec565b91505092915050565b600073ffffffffffffffffffffffffffffffffffffffff82169050919050565b60006124598261242e565b9050919050565b6124698161244e565b82525050565b60006020820190506124846000830184612460565b92915050565b6124938161244e565b811461249e57600080fd5b50565b6000813590506124b08161248a565b92915050565b600080604083850312156124cd576124cc612254565b5b60006124db858286016124a1565b92505060206124ec858286016123ec565b9150509250929050565b6124ff816123cb565b82525050565b600060208201905061251a60008301846124f6565b92915050565b60008060006060848603121561253957612538612254565b5b6000612547868287016124a1565b9350506020612558868287016124a1565b9250506040612569868287016123ec565b9150509250925092565b60006020828403121561258957612588612254565b5b6000612597848285016124a1565b91505092915050565b600080fd5b600080fd5b600080fd5b60008083601f8401126125c5576125c46125a0565b5b8235905067ffffffffffffffff8111156125e2576125e16125a5565b5b6020830191508360018202830111156125fe576125fd6125aa565b5b9250929050565b6000806000806000806060878903121561262257612621612254565b5b600087013567ffffffffffffffff8111156126405761263f612259565b5b61264c89828a016125af565b9650965050602087013567ffffffffffffffff81111561266f5761266e612259565b5b61267b89828a016125af565b9450945050604087013567ffffffffffffffff81111561269e5761269d612259565b5b6126aa89828a016125af565b92509250509295509295509295565b6126c2816122e3565b81146126cd57600080fd5b50565b6000813590506126df816126b9565b92915050565b600080604083850312156126fc576126fb612254565b5b600061270a858286016124a1565b925050602061271b858286016126d0565b9150509250929050565b600080fd5b7f4e487b7100000000000000000000000000000000000000000000000000000000600052604160045260246000fd5b6127628261235f565b810181811067ffffffffffffffff821117156127815761278061272a565b5b80604052505050565b600061279461224a565b90506127a08282612759565b919050565b600067ffffffffffffffff8211156127c0576127bf61272a565b5b6127c98261235f565b9050602081019050919050565b82818337600083830152505050565b60006127f86127f3846127a5565b61278a565b90508281526020810184848401111561281457612813612725565b5b61281f8482856127d6565b509392505050565b600082601f83011261283c5761283b6125a0565b5b813561284c8482602086016127e5565b91505092915050565b6000806000806080858703121561286f5761286e612254565b5b600061287d878288016124a1565b945050602061288e878288016124a1565b935050604061289f878288016123ec565b925050606085013567ffffffffffffffff8111156128c0576128bf612259565b5b6128cc87828801612827565b91505092959194509250565b600080604083850312156128ef576128ee612254565b5b60006128fd858286016124a1565b925050602061290e858286016124a1565b9150509250929050565b7f4e487b7100000000000000000000000000000000000000000000000000000000600052602260045260246000fd5b6000600282049050600182168061295f57607f821691505b60208210810361297257612971612918565b5b50919050565b600060608201905061298d6000830186612460565b61299a60208301856124f6565b6129a76040830184612460565b949350505050565b60006040820190506129c46000830185612460565b6129d160208301846124f6565b9392505050565b7f4e487b7100000000000000000000000000000000000000000000000000000000600052601160045260246000fd5b6000612a12826123cb565b9150612a1d836123cb565b9250828201905080821115612a3557612a346129d8565b5b92915050565b7f4d617820737570706c7920657863656564656400000000000000000000000000600082015250565b6000612a71601383612324565b9150612a7c82612a3b565b602082019050919050565b60006020820190508181036000830152612aa081612a64565b9050919050565b7f4d6178696d756d206e756d626572206f66206d696e74207065722077616c6c6560008201527f7420686173206265656e20726561636865640000000000000000000000000000602082015250565b6000612b03603283612324565b9150612b0e82612aa7565b604082019050919050565b60006020820190508181036000830152612b3281612af6565b9050919050565b6000612b44826123cb565b91507fffffffffffffffffffffffffffffffffffffffffffffffffffffffffffffffff8203612b7657612b756129d8565b5b600182019050919050565b7f4e487b7100000000000000000000000000000000000000000000000000000000600052603260045260246000fd5b600082905092915050565b60008190508160005260206000209050919050565b60006020601f8301049050919050565b600082821b905092915050565b600060088302612c1d7fffffffffffffffffffffffffffffffffffffffffffffffffffffffffffffffff82612be0565b612c278683612be0565b95508019841693508086168417925050509392505050565b6000819050919050565b6000612c64612c5f612c5a846123cb565b612c3f565b6123cb565b9050919050565b6000819050919050565b612c7e83612c49565b612c92612c8a82612c6b565b848454612bed565b825550505050565b600090565b612ca7612c9a565b612cb2818484612c75565b505050565b5b81811015612cd657612ccb600082612c9f565b600181019050612cb8565b5050565b601f821115612d1b57612cec81612bbb565b612cf584612bd0565b81016020851015612d04578190505b612d18612d1085612bd0565b830182612cb7565b50505b505050565b600082821c905092915050565b6000612d3e60001984600802612d20565b1980831691505092915050565b6000612d578383612d2d565b9150826002028217905092915050565b612d718383612bb0565b67ffffffffffffffff811115612d8a57612d8961272a565b5b612d948254612947565b612d9f828285612cda565b6000601f831160018114612dce5760008415612dbc578287013590505b612dc68582612d4b565b865550612e2e565b601f198416612ddc86612bbb565b60005b82811015612e0457848901358255600182019150602085019450602081019050612ddf565b86831015612e215784890135612e1d601f891682612d2d565b8355505b6001600288020188555050505b50505050505050565b600081905092915050565b6000612e4d82612319565b612e578185612e37565b9350612e67818560208601612335565b80840191505092915050565b7f2e6a736f6e000000000000000000000000000000000000000000000000000000600082015250565b6000612ea9600583612e37565b9150612eb482612e73565b600582019050919050565b6000612ecb8285612e42565b9150612ed78284612e42565b9150612ee282612e9c565b91508190509392505050565b600081519050919050565b600082825260208201905092915050565b6000612f1582612eee565b612f1f8185612ef9565b9350612f2f818560208601612335565b612f388161235f565b840191505092915050565b6000608082019050612f586000830187612460565b612f656020830186612460565b612f7260408301856124f6565b8181036060830152612f848184612f0a565b905095945050505050565b600081519050612f9e8161228a565b92915050565b600060208284031215612fba57612fb9612254565b5b6000612fc884828501612f8f565b91505092915050565b7f4e487b7100000000000000000000000000000000000000000000000000000000600052601260045260246000fd5b600061300b826123cb565b9150613016836123cb565b925082820390508181111561302e5761302d6129d8565b5b92915050565b7f4e487b7100000000000000000000000000000000000000000000000000000000600052603160045260246000fdfea2646970667358221220699efba0534af1211e89842d05b45c870f07aa3f257396639a6d87bf254329ce64736f6c63430008140033",
  "linkReferences": {},
  "deployedLinkReferences": {}
}