{
  "_format": "hh-sol-artifact-1",
  "contractName": "NWERC721",
  "sourceName": "contracts/v1/NWERC721.sol",
  "abi": [
    {
      "inputs": [],
      "stateMutability": "nonpayable",
      "type": "constructor"
    },
    {
      "inputs": [],
      "name": "ERC721EnumerableForbiddenBatchMint",
      "type": "error"
    },
    {
      "inputs": [
        {
          "internalType": "address",
          "name": "sender",
          "type": "address"
        },
        {
          "internalType": "uint256",
          "name": "tokenId",
          "type": "uint256"
        },
        {
          "internalType": "address",
          "name": "owner",
          "type": "address"
        }
      ],
      "name": "ERC721IncorrectOwner",
      "type": "error"
    },
    {
      "inputs": [
        {
          "internalType": "address",
          "name": "operator",
          "type": "address"
        },
        {
          "internalType": "uint256",
          "name": "tokenId",
          "type": "uint256"
        }
      ],
      "name": "ERC721InsufficientApproval",
      "type": "error"
    },
    {
      "inputs": [
        {
          "internalType": "address",
          "name": "approver",
          "type": "address"
        }
      ],
      "name": "ERC721InvalidApprover",
      "type": "error"
    },
    {
      "inputs": [
        {
          "internalType": "address",
          "name": "operator",
          "type": "address"
        }
      ],
      "name": "ERC721InvalidOperator",
      "type": "error"
    },
    {
      "inputs": [
        {
          "internalType": "address",
          "name": "owner",
          "type": "address"
        }
      ],
      "name": "ERC721InvalidOwner",
      "type": "error"
    },
    {
      "inputs": [
        {
          "internalType": "address",
          "name": "receiver",
          "type": "address"
        }
      ],
      "name": "ERC721InvalidReceiver",
      "type": "error"
    },
    {
      "inputs": [
        {
          "internalType": "address",
          "name": "sender",
          "type": "address"
        }
      ],
      "name": "ERC721InvalidSender",
      "type": "error"
    },
    {
      "inputs": [
        {
          "internalType": "uint256",
          "name": "tokenId",
          "type": "uint256"
        }
      ],
      "name": "ERC721NonexistentToken",
      "type": "error"
    },
    {
      "inputs": [
        {
          "internalType": "address",
          "name": "owner",
          "type": "address"
        },
        {
          "internalType": "uint256",
          "name": "index",
          "type": "uint256"
        }
      ],
      "name": "ERC721OutOfBoundsIndex",
      "type": "error"
    },
    {
      "inputs": [
        {
          "internalType": "address",
          "name": "owner",
          "type": "address"
        }
      ],
      "name": "OwnableInvalidOwner",
      "type": "error"
    },
    {
      "inputs": [
        {
          "internalType": "address",
          "name": "account",
          "type": "address"
        }
      ],
      "name": "OwnableUnauthorizedAccount",
      "type": "error"
    },
    {
      "anonymous": false,
      "inputs": [
        {
          "indexed": true,
          "internalType": "address",
          "name": "owner",
          "type": "address"
        },
        {
          "indexed": true,
          "internalType": "address",
          "name": "approved",
          "type": "address"
        },
        {
          "indexed": true,
          "internalType": "uint256",
          "name": "tokenId",
          "type": "uint256"
        }
      ],
      "name": "Approval",
      "type": "event"
    },
    {
      "anonymous": false,
      "inputs": [
        {
          "indexed": true,
          "internalType": "address",
          "name": "owner",
          "type": "address"
        },
        {
          "indexed": true,
          "internalType": "address",
          "name": "operator",
          "type": "address"
        },
        {
          "indexed": false,
          "internalType": "bool",
          "name": "approved",
          "type": "bool"
        }
      ],
      "name": "ApprovalForAll",
      "type": "event"
    },
    {
      "anonymous": false,
      "inputs": [
        {
          "indexed": true,
          "internalType": "address",
          "name": "previousOwner",
          "type": "address"
        },
        {
          "indexed": true,
          "internalType": "address",
          "name": "newOwner",
          "type": "address"
        }
      ],
      "name": "OwnershipTransferred",
      "type": "event"
    },
    {
      "anonymous": false,
      "inputs": [
        {
          "indexed": true,
          "internalType": "address",
          "name": "from",
          "type": "address"
        },
        {
          "indexed": true,
          "internalType": "address",
          "name": "to",
          "type": "address"
        },
        {
          "indexed": true,
          "internalType": "uint256",
          "name": "tokenId",
          "type": "uint256"
        }
      ],
      "name": "Transfer",
      "type": "event"
    },
    {
      "inputs": [
        {
          "internalType": "address",
          "name": "to",
          "type": "address"
        },
        {
          "internalType": "uint256",
          "name": "tokenId",
          "type": "uint256"
        }
      ],
      "name": "approve",
      "outputs": [],
      "stateMutability": "nonpayable",
      "type": "function"
    },
    {
      "inputs": [
        {
          "internalType": "address",
          "name": "owner",
          "type": "address"
        }
      ],
      "name": "balanceOf",
      "outputs": [
        {
          "internalType": "uint256",
          "name": "",
          "type": "uint256"
        }
      ],
      "stateMutability": "view",
      "type": "function"
    },
    {
      "inputs": [],
      "name": "baseURI",
      "outputs": [
        {
          "internalType": "string",
          "name": "",
          "type": "string"
        }
      ],
      "stateMutability": "view",
      "type": "function"
    },
    {
      "inputs": [
        {
          "internalType": "uint256",
          "name": "tokenId",
          "type": "uint256"
        }
      ],
      "name": "getApproved",
      "outputs": [
        {
          "internalType": "address",
          "name": "",
          "type": "address"
        }
      ],
      "stateMutability": "view",
      "type": "function"
    },
    {
      "inputs": [
        {
          "internalType": "string",
          "name": "_collectionName",
          "type": "string"
        },
        {
          "internalType": "string",
          "name": "_collectionSymbol",
          "type": "string"
        },
        {
          "internalType": "string",
          "name": "_collectionURI",
          "type": "string"
        }
      ],
      "name": "initializeCollection",
      "outputs": [],
      "stateMutability": "nonpayable",
      "type": "function"
    },
    {
      "inputs": [
        {
          "internalType": "address",
          "name": "owner",
          "type": "address"
        },
        {
          "internalType": "address",
          "name": "operator",
          "type": "address"
        }
      ],
      "name": "isApprovedForAll",
      "outputs": [
        {
          "internalType": "bool",
          "name": "",
          "type": "bool"
        }
      ],
      "stateMutability": "view",
      "type": "function"
    },
    {
      "inputs": [],
      "name": "name",
      "outputs": [
        {
          "internalType": "string",
          "name": "",
          "type": "string"
        }
      ],
      "stateMutability": "view",
      "type": "function"
    },
    {
      "inputs": [],
      "name": "owner",
      "outputs": [
        {
          "internalType": "address",
          "name": "",
          "type": "address"
        }
      ],
      "stateMutability": "view",
      "type": "function"
    },
    {
      "inputs": [
        {
          "internalType": "uint256",
          "name": "tokenId",
          "type": "uint256"
        }
      ],
      "name": "ownerOf",
      "outputs": [
        {
          "internalType": "address",
          "name": "",
          "type": "address"
        }
      ],
      "stateMutability": "view",
      "type": "function"
    },
    {
      "inputs": [],
      "name": "renounceOwnership",
      "outputs": [],
      "stateMutability": "nonpayable",
      "type": "function"
    },
    {
      "inputs": [
        {
          "internalType": "address",
          "name": "to",
          "type": "address"
        }
      ],
      "name": "safeMint",
      "outputs": [],
      "stateMutability": "payable",
      "type": "function"
    },
    {
      "inputs": [
        {
          "internalType": "address",
          "name": "from",
          "type": "address"
        },
        {
          "internalType": "address",
          "name": "to",
          "type": "address"
        },
        {
          "internalType": "uint256",
          "name": "tokenId",
          "type": "uint256"
        }
      ],
      "name": "safeTransferFrom",
      "outputs": [],
      "stateMutability": "nonpayable",
      "type": "function"
    },
    {
      "inputs": [
        {
          "internalType": "address",
          "name": "from",
          "type": "address"
        },
        {
          "internalType": "address",
          "name": "to",
          "type": "address"
        },
        {
          "internalType": "uint256",
          "name": "tokenId",
          "type": "uint256"
        },
        {
          "internalType": "bytes",
          "name": "data",
          "type": "bytes"
        }
      ],
      "name": "safeTransferFrom",
      "outputs": [],
      "stateMutability": "nonpayable",
      "type": "function"
    },
    {
      "inputs": [
        {
          "internalType": "address",
          "name": "operator",
          "type": "address"
        },
        {
          "internalType": "bool",
          "name": "approved",
          "type": "bool"
        }
      ],
      "name": "setApprovalForAll",
      "outputs": [],
      "stateMutability": "nonpayable",
      "type": "function"
    },
    {
      "inputs": [
        {
          "internalType": "bytes4",
          "name": "interfaceId",
          "type": "bytes4"
        }
      ],
      "name": "supportsInterface",
      "outputs": [
        {
          "internalType": "bool",
          "name": "",
          "type": "bool"
        }
      ],
      "stateMutability": "view",
      "type": "function"
    },
    {
      "inputs": [],
      "name": "symbol",
      "outputs": [
        {
          "internalType": "string",
          "name": "",
          "type": "string"
        }
      ],
      "stateMutability": "view",
      "type": "function"
    },
    {
      "inputs": [
        {
          "internalType": "uint256",
          "name": "index",
          "type": "uint256"
        }
      ],
      "name": "tokenByIndex",
      "outputs": [
        {
          "internalType": "uint256",
          "name": "",
          "type": "uint256"
        }
      ],
      "stateMutability": "view",
      "type": "function"
    },
    {
      "inputs": [
        {
          "internalType": "address",
          "name": "owner",
          "type": "address"
        },
        {
          "internalType": "uint256",
          "name": "index",
          "type": "uint256"
        }
      ],
      "name": "tokenOfOwnerByIndex",
      "outputs": [
        {
          "internalType": "uint256",
          "name": "",
          "type": "uint256"
        }
      ],
      "stateMutability": "view",
      "type": "function"
    },
    {
      "inputs": [
        {
          "internalType": "uint256",
          "name": "tokenId",
          "type": "uint256"
        }
      ],
      "name": "tokenURI",
      "outputs": [
        {
          "internalType": "string",
          "name": "",
          "type": "string"
        }
      ],
      "stateMutability": "view",
      "type": "function"
    },
    {
      "inputs": [],
      "name": "totalSupply",
      "outputs": [
        {
          "internalType": "uint256",
          "name": "",
          "type": "uint256"
        }
      ],
      "stateMutability": "view",
      "type": "function"
    },
    {
      "inputs": [
        {
          "internalType": "address",
          "name": "from",
          "type": "address"
        },
        {
          "internalType": "address",
          "name": "to",
          "type": "address"
        },
        {
          "internalType": "uint256",
          "name": "tokenId",
          "type": "uint256"
        }
      ],
      "name": "transferFrom",
      "outputs": [],
      "stateMutability": "nonpayable",
      "type": "function"
    },
    {
      "inputs": [
        {
          "internalType": "address",
          "name": "newOwner",
          "type": "address"
        }
      ],
      "name": "transferOwnership",
      "outputs": [],
      "stateMutability": "nonpayable",
      "type": "function"
    }
  ],
  "bytecode": "0x60806040523480156200001157600080fd5b50336040518060200160405280600081525060405180602001604052806000815250816000908162000044919062000426565b50806001908162000056919062000426565b505050600073ffffffffffffffffffffffffffffffffffffffff168173ffffffffffffffffffffffffffffffffffffffff1603620000ce5760006040517f1e4fbdf7000000000000000000000000000000000000000000000000000000008152600401620000c5919062000552565b60405180910390fd5b620000df81620000e660201b60201c565b506200056f565b6000600a60009054906101000a900473ffffffffffffffffffffffffffffffffffffffff16905081600a60006101000a81548173ffffffffffffffffffffffffffffffffffffffff021916908373ffffffffffffffffffffffffffffffffffffffff1602179055508173ffffffffffffffffffffffffffffffffffffffff168173ffffffffffffffffffffffffffffffffffffffff167f8be0079c531659141344cd1fd0a4f28419497f9722a3daafe3b4186f6b6457e060405160405180910390a35050565b600081519050919050565b7f4e487b7100000000000000000000000000000000000000000000000000000000600052604160045260246000fd5b7f4e487b7100000000000000000000000000000000000000000000000000000000600052602260045260246000fd5b600060028204905060018216806200022e57607f821691505b602082108103620002445762000243620001e6565b5b50919050565b60008190508160005260206000209050919050565b60006020601f8301049050919050565b600082821b905092915050565b600060088302620002ae7fffffffffffffffffffffffffffffffffffffffffffffffffffffffffffffffff826200026f565b620002ba86836200026f565b95508019841693508086168417925050509392505050565b6000819050919050565b6000819050919050565b60006200030762000301620002fb84620002d2565b620002dc565b620002d2565b9050919050565b6000819050919050565b6200032383620002e6565b6200033b62000332826200030e565b8484546200027c565b825550505050565b600090565b6200035262000343565b6200035f81848462000318565b505050565b5b8181101562000387576200037b60008262000348565b60018101905062000365565b5050565b601f821115620003d657620003a0816200024a565b620003ab846200025f565b81016020851015620003bb578190505b620003d3620003ca856200025f565b83018262000364565b50505b505050565b600082821c905092915050565b6000620003fb60001984600802620003db565b1980831691505092915050565b6000620004168383620003e8565b9150826002028217905092915050565b6200043182620001ac565b67ffffffffffffffff8111156200044d576200044c620001b7565b5b62000459825462000215565b620004668282856200038b565b600060209050601f8311600181146200049e576000841562000489578287015190505b62000495858262000408565b86555062000505565b601f198416620004ae866200024a565b60005b82811015620004d857848901518255600182019150602085019450602081019050620004b1565b86831015620004f85784890151620004f4601f891682620003e8565b8355505b6001600288020188555050505b505050505050565b600073ffffffffffffffffffffffffffffffffffffffff82169050919050565b60006200053a826200050d565b9050919050565b6200054c816200052d565b82525050565b600060208201905062000569600083018462000541565b92915050565b61308a806200057f6000396000f3fe6080604052600436106101355760003560e01c80636c0360eb116100ab57806395d89b411161006f57806395d89b411461042b578063a22cb46514610456578063b88d4fde1461047f578063c87b56dd146104a8578063e985e9c5146104e5578063f2fde38b1461052257610135565b80636c0360eb1461035857806370a0823114610383578063715018a6146103c05780637fadcae1146103d75780638da5cb5b1461040057610135565b806323b872dd116100fd57806323b872dd146102335780632f745c591461025c57806340d097c31461029957806342842e0e146102b55780634f6ccce7146102de5780636352211e1461031b57610135565b806301ffc9a71461013a57806306fdde0314610177578063081812fc146101a2578063095ea7b3146101df57806318160ddd14610208575b600080fd5b34801561014657600080fd5b50610161600480360381019061015c9190612224565b61054b565b60405161016e919061226c565b60405180910390f35b34801561018357600080fd5b5061018c6105c5565b6040516101999190612317565b60405180910390f35b3480156101ae57600080fd5b506101c960048036038101906101c4919061236f565b610657565b6040516101d691906123dd565b60405180910390f35b3480156101eb57600080fd5b5061020660048036038101906102019190612424565b610673565b005b34801561021457600080fd5b5061021d610689565b60405161022a9190612473565b60405180910390f35b34801561023f57600080fd5b5061025a6004803603810190610255919061248e565b610696565b005b34801561026857600080fd5b50610283600480360381019061027e9190612424565b610798565b6040516102909190612473565b60405180910390f35b6102b360048036038101906102ae91906124e1565b610841565b005b3480156102c157600080fd5b506102dc60048036038101906102d7919061248e565b6109b1565b005b3480156102ea57600080fd5b506103056004803603810190610300919061236f565b6109d1565b6040516103129190612473565b60405180910390f35b34801561032757600080fd5b50610342600480360381019061033d919061236f565b610a47565b60405161034f91906123dd565b60405180910390f35b34801561036457600080fd5b5061036d610a59565b60405161037a9190612317565b60405180910390f35b34801561038f57600080fd5b506103aa60048036038101906103a591906124e1565b610ae7565b6040516103b79190612473565b60405180910390f35b3480156103cc57600080fd5b506103d5610ba1565b005b3480156103e357600080fd5b506103fe60048036038101906103f99190612573565b610bb5565b005b34801561040c57600080fd5b50610415610bfb565b60405161042291906123dd565b60405180910390f35b34801561043757600080fd5b50610440610c25565b60405161044d9190612317565b60405180910390f35b34801561046257600080fd5b5061047d60048036038101906104789190612653565b610cb7565b005b34801561048b57600080fd5b506104a660048036038101906104a191906127c3565b610ccd565b005b3480156104b457600080fd5b506104cf60048036038101906104ca919061236f565b610cf2565b6040516104dc9190612317565b60405180910390f35b3480156104f157600080fd5b5061050c60048036038101906105079190612846565b610d5c565b604051610519919061226c565b60405180910390f35b34801561052e57600080fd5b50610549600480360381019061054491906124e1565b610df0565b005b60007f780e9d63000000000000000000000000000000000000000000000000000000007bffffffffffffffffffffffffffffffffffffffffffffffffffffffff1916827bffffffffffffffffffffffffffffffffffffffffffffffffffffffff191614806105be57506105bd82610e76565b5b9050919050565b6060600080546105d4906128b5565b80601f0160208091040260200160405190810160405280929190818152602001828054610600906128b5565b801561064d5780601f106106225761010080835404028352916020019161064d565b820191906000526020600020905b81548152906001019060200180831161063057829003601f168201915b5050505050905090565b600061066282610f58565b5061066c82610fe0565b9050919050565b610685828261068061101d565b611025565b5050565b6000600880549050905090565b600073ffffffffffffffffffffffffffffffffffffffff168273ffffffffffffffffffffffffffffffffffffffff16036107085760006040517f64a0ae920000000000000000000000000000000000000000000000000000000081526004016106ff91906123dd565b60405180910390fd5b600061071c838361071761101d565b611037565b90508373ffffffffffffffffffffffffffffffffffffffff168173ffffffffffffffffffffffffffffffffffffffff1614610792578382826040517f64283d7b000000000000000000000000000000000000000000000000000000008152600401610789939291906128e6565b60405180910390fd5b50505050565b60006107a383610ae7565b82106107e85782826040517fa57d13dc0000000000000000000000000000000000000000000000000000000081526004016107df92919061291d565b60405180910390fd5b600660008473ffffffffffffffffffffffffffffffffffffffff1673ffffffffffffffffffffffffffffffffffffffff168152602001908152602001600020600083815260200190815260200160002054905092915050565b610849611154565b60286001610855610689565b61085f9190612975565b11156108a0576040517f08c379a0000000000000000000000000000000000000000000000000000000008152600401610897906129f5565b60405180910390fd5b600a6001600d60008473ffffffffffffffffffffffffffffffffffffffff1673ffffffffffffffffffffffffffffffffffffffff168152602001908152602001600020546108ee9190612975565b111561092f576040517f08c379a000000000000000000000000000000000000000000000000000000000815260040161092690612a87565b60405180910390fd5b600d60008273ffffffffffffffffffffffffffffffffffffffff1673ffffffffffffffffffffffffffffffffffffffff168152602001908152602001600020600081548092919061097f90612aa7565b9190505550600b600081548092919061099790612aa7565b91905055506000600b5490506109ad82826111db565b5050565b6109cc83838360405180602001604052806000815250610ccd565b505050565b60006109db610689565b8210610a21576000826040517fa57d13dc000000000000000000000000000000000000000000000000000000008152600401610a1892919061291d565b60405180910390fd5b60088281548110610a3557610a34612aef565b5b90600052602060002001549050919050565b6000610a5282610f58565b9050919050565b600c8054610a66906128b5565b80601f0160208091040260200160405190810160405280929190818152602001828054610a92906128b5565b8015610adf5780601f10610ab457610100808354040283529160200191610adf565b820191906000526020600020905b815481529060010190602001808311610ac257829003601f168201915b505050505081565b60008073ffffffffffffffffffffffffffffffffffffffff168273ffffffffffffffffffffffffffffffffffffffff1603610b5a5760006040517f89c62b64000000000000000000000000000000000000000000000000000000008152600401610b5191906123dd565b60405180910390fd5b600360008373ffffffffffffffffffffffffffffffffffffffff1673ffffffffffffffffffffffffffffffffffffffff168152602001908152602001600020549050919050565b610ba9611154565b610bb360006111f9565b565b610bbd611154565b858560009182610bce929190612cd5565b50838360019182610be0929190612cd5565b508181600c9182610bf2929190612cd5565b50505050505050565b6000600a60009054906101000a900473ffffffffffffffffffffffffffffffffffffffff16905090565b606060018054610c34906128b5565b80601f0160208091040260200160405190810160405280929190818152602001828054610c60906128b5565b8015610cad5780601f10610c8257610100808354040283529160200191610cad565b820191906000526020600020905b815481529060010190602001808311610c9057829003601f168201915b5050505050905090565b610cc9610cc261101d565b83836112bf565b5050565b610cd8848484610696565b610cec610ce361101d565b8585858561142e565b50505050565b6060610cfd82610f58565b506000600c8054610d0d906128b5565b905011610d295760405180602001604052806000815250610d55565b600c610d34836115df565b604051602001610d45929190612eb0565b6040516020818303038152906040525b9050919050565b6000600560008473ffffffffffffffffffffffffffffffffffffffff1673ffffffffffffffffffffffffffffffffffffffff16815260200190815260200160002060008373ffffffffffffffffffffffffffffffffffffffff1673ffffffffffffffffffffffffffffffffffffffff16815260200190815260200160002060009054906101000a900460ff16905092915050565b610df8611154565b600073ffffffffffffffffffffffffffffffffffffffff168173ffffffffffffffffffffffffffffffffffffffff1603610e6a5760006040517f1e4fbdf7000000000000000000000000000000000000000000000000000000008152600401610e6191906123dd565b60405180910390fd5b610e73816111f9565b50565b60007f80ac58cd000000000000000000000000000000000000000000000000000000007bffffffffffffffffffffffffffffffffffffffffffffffffffffffff1916827bffffffffffffffffffffffffffffffffffffffffffffffffffffffff19161480610f4157507f5b5e139f000000000000000000000000000000000000000000000000000000007bffffffffffffffffffffffffffffffffffffffffffffffffffffffff1916827bffffffffffffffffffffffffffffffffffffffffffffffffffffffff1916145b80610f515750610f50826116ad565b5b9050919050565b600080610f6483611717565b9050600073ffffffffffffffffffffffffffffffffffffffff168173ffffffffffffffffffffffffffffffffffffffff1603610fd757826040517f7e273289000000000000000000000000000000000000000000000000000000008152600401610fce9190612473565b60405180910390fd5b80915050919050565b60006004600083815260200190815260200160002060009054906101000a900473ffffffffffffffffffffffffffffffffffffffff169050919050565b600033905090565b6110328383836001611754565b505050565b600080611045858585611919565b9050600073ffffffffffffffffffffffffffffffffffffffff168173ffffffffffffffffffffffffffffffffffffffff16036110895761108484611b33565b6110c8565b8473ffffffffffffffffffffffffffffffffffffffff168173ffffffffffffffffffffffffffffffffffffffff16146110c7576110c68185611b7c565b5b5b600073ffffffffffffffffffffffffffffffffffffffff168573ffffffffffffffffffffffffffffffffffffffff160361110a5761110584611c67565b611149565b8473ffffffffffffffffffffffffffffffffffffffff168173ffffffffffffffffffffffffffffffffffffffff1614611148576111478585611d38565b5b5b809150509392505050565b61115c61101d565b73ffffffffffffffffffffffffffffffffffffffff1661117a610bfb565b73ffffffffffffffffffffffffffffffffffffffff16146111d95761119d61101d565b6040517f118cdaa70000000000000000000000000000000000000000000000000000000081526004016111d091906123dd565b60405180910390fd5b565b6111f5828260405180602001604052806000815250611dc3565b5050565b6000600a60009054906101000a900473ffffffffffffffffffffffffffffffffffffffff16905081600a60006101000a81548173ffffffffffffffffffffffffffffffffffffffff021916908373ffffffffffffffffffffffffffffffffffffffff1602179055508173ffffffffffffffffffffffffffffffffffffffff168173ffffffffffffffffffffffffffffffffffffffff167f8be0079c531659141344cd1fd0a4f28419497f9722a3daafe3b4186f6b6457e060405160405180910390a35050565b600073ffffffffffffffffffffffffffffffffffffffff168273ffffffffffffffffffffffffffffffffffffffff160361133057816040517f5b08ba1800000000000000000000000000000000000000000000000000000000815260040161132791906123dd565b60405180910390fd5b80600560008573ffffffffffffffffffffffffffffffffffffffff1673ffffffffffffffffffffffffffffffffffffffff16815260200190815260200160002060008473ffffffffffffffffffffffffffffffffffffffff1673ffffffffffffffffffffffffffffffffffffffff16815260200190815260200160002060006101000a81548160ff0219169083151502179055508173ffffffffffffffffffffffffffffffffffffffff168373ffffffffffffffffffffffffffffffffffffffff167f17307eab39ab6107e8899845ad3d59bd9653f200f220920489ca2b5937696c3183604051611421919061226c565b60405180910390a3505050565b60008373ffffffffffffffffffffffffffffffffffffffff163b11156115d8578273ffffffffffffffffffffffffffffffffffffffff1663150b7a02868685856040518563ffffffff1660e01b815260040161148d9493929190612f34565b6020604051808303816000875af19250505080156114c957506040513d601f19601f820116820180604052508101906114c69190612f95565b60015b61154d573d80600081146114f9576040519150601f19603f3d011682016040523d82523d6000602084013e6114fe565b606091505b50600081510361154557836040517f64a0ae9200000000000000000000000000000000000000000000000000000000815260040161153c91906123dd565b60405180910390fd5b805181602001fd5b63150b7a0260e01b7bffffffffffffffffffffffffffffffffffffffffffffffffffffffff1916817bffffffffffffffffffffffffffffffffffffffffffffffffffffffff1916146115d657836040517f64a0ae920000000000000000000000000000000000000000000000000000000081526004016115cd91906123dd565b60405180910390fd5b505b5050505050565b6060600060016115ee84611de7565b01905060008167ffffffffffffffff81111561160d5761160c612698565b5b6040519080825280601f01601f19166020018201604052801561163f5781602001600182028036833780820191505090505b509050600082602001820190505b6001156116a2578080600190039150507f3031323334353637383961626364656600000000000000000000000000000000600a86061a8153600a858161169657611695612fc2565b5b0494506000850361164d575b819350505050919050565b60007f01ffc9a7000000000000000000000000000000000000000000000000000000007bffffffffffffffffffffffffffffffffffffffffffffffffffffffff1916827bffffffffffffffffffffffffffffffffffffffffffffffffffffffff1916149050919050565b60006002600083815260200190815260200160002060009054906101000a900473ffffffffffffffffffffffffffffffffffffffff169050919050565b808061178d5750600073ffffffffffffffffffffffffffffffffffffffff168273ffffffffffffffffffffffffffffffffffffffff1614155b156118c157600061179d84610f58565b9050600073ffffffffffffffffffffffffffffffffffffffff168373ffffffffffffffffffffffffffffffffffffffff161415801561180857508273ffffffffffffffffffffffffffffffffffffffff168173ffffffffffffffffffffffffffffffffffffffff1614155b801561181b57506118198184610d5c565b155b1561185d57826040517fa9fbf51f00000000000000000000000000000000000000000000000000000000815260040161185491906123dd565b60405180910390fd5b81156118bf57838573ffffffffffffffffffffffffffffffffffffffff168273ffffffffffffffffffffffffffffffffffffffff167f8c5be1e5ebec7d5bd14f71427d1e84f3dd0314c0f7b2291e5b200ac8c7c3b92560405160405180910390a45b505b836004600085815260200190815260200160002060006101000a81548173ffffffffffffffffffffffffffffffffffffffff021916908373ffffffffffffffffffffffffffffffffffffffff16021790555050505050565b60008061192584611717565b9050600073ffffffffffffffffffffffffffffffffffffffff168373ffffffffffffffffffffffffffffffffffffffff161461196757611966818486611f3a565b5b600073ffffffffffffffffffffffffffffffffffffffff168173ffffffffffffffffffffffffffffffffffffffff16146119f8576119a9600085600080611754565b6001600360008373ffffffffffffffffffffffffffffffffffffffff1673ffffffffffffffffffffffffffffffffffffffff168152602001908152602001600020600082825403925050819055505b600073ffffffffffffffffffffffffffffffffffffffff168573ffffffffffffffffffffffffffffffffffffffff1614611a7b576001600360008773ffffffffffffffffffffffffffffffffffffffff1673ffffffffffffffffffffffffffffffffffffffff168152602001908152602001600020600082825401925050819055505b846002600086815260200190815260200160002060006101000a81548173ffffffffffffffffffffffffffffffffffffffff021916908373ffffffffffffffffffffffffffffffffffffffff160217905550838573ffffffffffffffffffffffffffffffffffffffff168273ffffffffffffffffffffffffffffffffffffffff167fddf252ad1be2c89b69c2b068fc378daa952ba7f163c4a11628f55a4df523b3ef60405160405180910390a4809150509392505050565b6008805490506009600083815260200190815260200160002081905550600881908060018154018082558091505060019003906000526020600020016000909190919091505550565b6000611b8783610ae7565b90506000600760008481526020019081526020016000205490506000600660008673ffffffffffffffffffffffffffffffffffffffff1673ffffffffffffffffffffffffffffffffffffffff1681526020019081526020016000209050828214611c335760008160008581526020019081526020016000205490508082600085815260200190815260200160002081905550826007600083815260200190815260200160002081905550505b6007600085815260200190815260200160002060009055806000848152602001908152602001600020600090555050505050565b60006001600880549050611c7b9190612ff1565b9050600060096000848152602001908152602001600020549050600060088381548110611cab57611caa612aef565b5b906000526020600020015490508060088381548110611ccd57611ccc612aef565b5b906000526020600020018190555081600960008381526020019081526020016000208190555060096000858152602001908152602001600020600090556008805480611d1c57611d1b613025565b5b6001900381819060005260206000200160009055905550505050565b60006001611d4584610ae7565b611d4f9190612ff1565b905081600660008573ffffffffffffffffffffffffffffffffffffffff1673ffffffffffffffffffffffffffffffffffffffff168152602001908152602001600020600083815260200190815260200160002081905550806007600084815260200190815260200160002081905550505050565b611dcd8383611ffe565b611de2611dd861101d565b600085858561142e565b505050565b600080600090507a184f03e93ff9f4daa797ed6e38ed64bf6a1f0100000000000000008310611e45577a184f03e93ff9f4daa797ed6e38ed64bf6a1f0100000000000000008381611e3b57611e3a612fc2565b5b0492506040810190505b6d04ee2d6d415b85acef81000000008310611e82576d04ee2d6d415b85acef81000000008381611e7857611e77612fc2565b5b0492506020810190505b662386f26fc100008310611eb157662386f26fc100008381611ea757611ea6612fc2565b5b0492506010810190505b6305f5e1008310611eda576305f5e1008381611ed057611ecf612fc2565b5b0492506008810190505b6127108310611eff576127108381611ef557611ef4612fc2565b5b0492506004810190505b60648310611f225760648381611f1857611f17612fc2565b5b0492506002810190505b600a8310611f31576001810190505b80915050919050565b611f458383836120f7565b611ff957600073ffffffffffffffffffffffffffffffffffffffff168373ffffffffffffffffffffffffffffffffffffffff1603611fba57806040517f7e273289000000000000000000000000000000000000000000000000000000008152600401611fb19190612473565b60405180910390fd5b81816040517f177e802f000000000000000000000000000000000000000000000000000000008152600401611ff092919061291d565b60405180910390fd5b505050565b600073ffffffffffffffffffffffffffffffffffffffff168273ffffffffffffffffffffffffffffffffffffffff16036120705760006040517f64a0ae9200000000000000000000000000000000000000000000000000000000815260040161206791906123dd565b60405180910390fd5b600061207e83836000611037565b9050600073ffffffffffffffffffffffffffffffffffffffff168173ffffffffffffffffffffffffffffffffffffffff16146120f25760006040517f73c6ac6e0000000000000000000000000000000000000000000000000000000081526004016120e991906123dd565b60405180910390fd5b505050565b60008073ffffffffffffffffffffffffffffffffffffffff168373ffffffffffffffffffffffffffffffffffffffff16141580156121af57508273ffffffffffffffffffffffffffffffffffffffff168473ffffffffffffffffffffffffffffffffffffffff161480612170575061216f8484610d5c565b5b806121ae57508273ffffffffffffffffffffffffffffffffffffffff1661219683610fe0565b73ffffffffffffffffffffffffffffffffffffffff16145b5b90509392505050565b6000604051905090565b600080fd5b600080fd5b60007fffffffff0000000000000000000000000000000000000000000000000000000082169050919050565b612201816121cc565b811461220c57600080fd5b50565b60008135905061221e816121f8565b92915050565b60006020828403121561223a576122396121c2565b5b60006122488482850161220f565b91505092915050565b60008115159050919050565b61226681612251565b82525050565b6000602082019050612281600083018461225d565b92915050565b600081519050919050565b600082825260208201905092915050565b60005b838110156122c15780820151818401526020810190506122a6565b60008484015250505050565b6000601f19601f8301169050919050565b60006122e982612287565b6122f38185612292565b93506123038185602086016122a3565b61230c816122cd565b840191505092915050565b6000602082019050818103600083015261233181846122de565b905092915050565b6000819050919050565b61234c81612339565b811461235757600080fd5b50565b60008135905061236981612343565b92915050565b600060208284031215612385576123846121c2565b5b60006123938482850161235a565b91505092915050565b600073ffffffffffffffffffffffffffffffffffffffff82169050919050565b60006123c78261239c565b9050919050565b6123d7816123bc565b82525050565b60006020820190506123f260008301846123ce565b92915050565b612401816123bc565b811461240c57600080fd5b50565b60008135905061241e816123f8565b92915050565b6000806040838503121561243b5761243a6121c2565b5b60006124498582860161240f565b925050602061245a8582860161235a565b9150509250929050565b61246d81612339565b82525050565b60006020820190506124886000830184612464565b92915050565b6000806000606084860312156124a7576124a66121c2565b5b60006124b58682870161240f565b93505060206124c68682870161240f565b92505060406124d78682870161235a565b9150509250925092565b6000602082840312156124f7576124f66121c2565b5b60006125058482850161240f565b91505092915050565b600080fd5b600080fd5b600080fd5b60008083601f8401126125335761253261250e565b5b8235905067ffffffffffffffff8111156125505761254f612513565b5b60208301915083600182028301111561256c5761256b612518565b5b9250929050565b600080600080600080606087890312156125905761258f6121c2565b5b600087013567ffffffffffffffff8111156125ae576125ad6121c7565b5b6125ba89828a0161251d565b9650965050602087013567ffffffffffffffff8111156125dd576125dc6121c7565b5b6125e989828a0161251d565b9450945050604087013567ffffffffffffffff81111561260c5761260b6121c7565b5b61261889828a0161251d565b92509250509295509295509295565b61263081612251565b811461263b57600080fd5b50565b60008135905061264d81612627565b92915050565b6000806040838503121561266a576126696121c2565b5b60006126788582860161240f565b92505060206126898582860161263e565b9150509250929050565b600080fd5b7f4e487b7100000000000000000000000000000000000000000000000000000000600052604160045260246000fd5b6126d0826122cd565b810181811067ffffffffffffffff821117156126ef576126ee612698565b5b80604052505050565b60006127026121b8565b905061270e82826126c7565b919050565b600067ffffffffffffffff82111561272e5761272d612698565b5b612737826122cd565b9050602081019050919050565b82818337600083830152505050565b600061276661276184612713565b6126f8565b90508281526020810184848401111561278257612781612693565b5b61278d848285612744565b509392505050565b600082601f8301126127aa576127a961250e565b5b81356127ba848260208601612753565b91505092915050565b600080600080608085870312156127dd576127dc6121c2565b5b60006127eb8782880161240f565b94505060206127fc8782880161240f565b935050604061280d8782880161235a565b925050606085013567ffffffffffffffff81111561282e5761282d6121c7565b5b61283a87828801612795565b91505092959194509250565b6000806040838503121561285d5761285c6121c2565b5b600061286b8582860161240f565b925050602061287c8582860161240f565b9150509250929050565b7f4e487b7100000000000000000000000000000000000000000000000000000000600052602260045260246000fd5b600060028204905060018216806128cd57607f821691505b6020821081036128e0576128df612886565b5b50919050565b60006060820190506128fb60008301866123ce565b6129086020830185612464565b61291560408301846123ce565b949350505050565b600060408201905061293260008301856123ce565b61293f6020830184612464565b9392505050565b7f4e487b7100000000000000000000000000000000000000000000000000000000600052601160045260246000fd5b600061298082612339565b915061298b83612339565b92508282019050808211156129a3576129a2612946565b5b92915050565b7f4d617820737570706c7920657863656564656400000000000000000000000000600082015250565b60006129df601383612292565b91506129ea826129a9565b602082019050919050565b60006020820190508181036000830152612a0e816129d2565b9050919050565b7f4d6178696d756d206e756d626572206f66206d696e74207065722077616c6c6560008201527f7420686173206265656e20726561636865640000000000000000000000000000602082015250565b6000612a71603283612292565b9150612a7c82612a15565b604082019050919050565b60006020820190508181036000830152612aa081612a64565b9050919050565b6000612ab282612339565b91507fffffffffffffffffffffffffffffffffffffffffffffffffffffffffffffffff8203612ae457612ae3612946565b5b600182019050919050565b7f4e487b7100000000000000000000000000000000000000000000000000000000600052603260045260246000fd5b600082905092915050565b60008190508160005260206000209050919050565b60006020601f8301049050919050565b600082821b905092915050565b600060088302612b8b7fffffffffffffffffffffffffffffffffffffffffffffffffffffffffffffffff82612b4e565b612b958683612b4e565b95508019841693508086168417925050509392505050565b6000819050919050565b6000612bd2612bcd612bc884612339565b612bad565b612339565b9050919050565b6000819050919050565b612bec83612bb7565b612c00612bf882612bd9565b848454612b5b565b825550505050565b600090565b612c15612c08565b612c20818484612be3565b505050565b5b81811015612c4457612c39600082612c0d565b600181019050612c26565b5050565b601f821115612c8957612c5a81612b29565b612c6384612b3e565b81016020851015612c72578190505b612c86612c7e85612b3e565b830182612c25565b50505b505050565b600082821c905092915050565b6000612cac60001984600802612c8e565b1980831691505092915050565b6000612cc58383612c9b565b9150826002028217905092915050565b612cdf8383612b1e565b67ffffffffffffffff811115612cf857612cf7612698565b5b612d0282546128b5565b612d0d828285612c48565b6000601f831160018114612d3c5760008415612d2a578287013590505b612d348582612cb9565b865550612d9c565b601f198416612d4a86612b29565b60005b82811015612d7257848901358255600182019150602085019450602081019050612d4d565b86831015612d8f5784890135612d8b601f891682612c9b565b8355505b6001600288020188555050505b50505050505050565b600081905092915050565b60008154612dbd816128b5565b612dc78186612da5565b94506001821660008114612de25760018114612df757612e2a565b60ff1983168652811515820286019350612e2a565b612e0085612b29565b60005b83811015612e2257815481890152600182019150602081019050612e03565b838801955050505b50505092915050565b6000612e3e82612287565b612e488185612da5565b9350612e588185602086016122a3565b80840191505092915050565b7f2e6a736f6e000000000000000000000000000000000000000000000000000000600082015250565b6000612e9a600583612da5565b9150612ea582612e64565b600582019050919050565b6000612ebc8285612db0565b9150612ec88284612e33565b9150612ed382612e8d565b91508190509392505050565b600081519050919050565b600082825260208201905092915050565b6000612f0682612edf565b612f108185612eea565b9350612f208185602086016122a3565b612f29816122cd565b840191505092915050565b6000608082019050612f4960008301876123ce565b612f5660208301866123ce565b612f636040830185612464565b8181036060830152612f758184612efb565b905095945050505050565b600081519050612f8f816121f8565b92915050565b600060208284031215612fab57612faa6121c2565b5b6000612fb984828501612f80565b91505092915050565b7f4e487b7100000000000000000000000000000000000000000000000000000000600052601260045260246000fd5b6000612ffc82612339565b915061300783612339565b925082820390508181111561301f5761301e612946565b5b92915050565b7f4e487b7100000000000000000000000000000000000000000000000000000000600052603160045260246000fdfea26469706673582212202f09930f08e52b42ff60d3ea51d8bf00c68e927f5618ea5363c753353f22745d64736f6c63430008140033",
  "linkReferences": {},
  "deployedLinkReferences": {}
}