{
  "_format": "hh-sol-artifact-1",
  "contractName": "NWERC721",
  "sourceName": "contracts/v1/NWERC721.sol",
  "abi": [
    {
      "inputs": [],
      "stateMutability": "nonpayable",
      "type": "constructor"
    },
    {
      "inputs": [
        {
          "internalType": "address",
          "name": "sender",
          "type": "address"
        },
        {
          "internalType": "uint256",
          "name": "tokenId",
          "type": "uint256"
        },
        {
          "internalType": "address",
          "name": "owner",
          "type": "address"
        }
      ],
      "name": "ERC721IncorrectOwner",
      "type": "error"
    },
    {
      "inputs": [
        {
          "internalType": "address",
          "name": "operator",
          "type": "address"
        },
        {
          "internalType": "uint256",
          "name": "tokenId",
          "type": "uint256"
        }
      ],
      "name": "ERC721InsufficientApproval",
      "type": "error"
    },
    {
      "inputs": [
        {
          "internalType": "address",
          "name": "approver",
          "type": "address"
        }
      ],
      "name": "ERC721InvalidApprover",
      "type": "error"
    },
    {
      "inputs": [
        {
          "internalType": "address",
          "name": "operator",
          "type": "address"
        }
      ],
      "name": "ERC721InvalidOperator",
      "type": "error"
    },
    {
      "inputs": [
        {
          "internalType": "address",
          "name": "owner",
          "type": "address"
        }
      ],
      "name": "ERC721InvalidOwner",
      "type": "error"
    },
    {
      "inputs": [
        {
          "internalType": "address",
          "name": "receiver",
          "type": "address"
        }
      ],
      "name": "ERC721InvalidReceiver",
      "type": "error"
    },
    {
      "inputs": [
        {
          "internalType": "address",
          "name": "sender",
          "type": "address"
        }
      ],
      "name": "ERC721InvalidSender",
      "type": "error"
    },
    {
      "inputs": [
        {
          "internalType": "uint256",
          "name": "tokenId",
          "type": "uint256"
        }
      ],
      "name": "ERC721NonexistentToken",
      "type": "error"
    },
    {
      "inputs": [
        {
          "internalType": "address",
          "name": "owner",
          "type": "address"
        }
      ],
      "name": "OwnableInvalidOwner",
      "type": "error"
    },
    {
      "inputs": [
        {
          "internalType": "address",
          "name": "account",
          "type": "address"
        }
      ],
      "name": "OwnableUnauthorizedAccount",
      "type": "error"
    },
    {
      "anonymous": false,
      "inputs": [
        {
          "indexed": true,
          "internalType": "address",
          "name": "owner",
          "type": "address"
        },
        {
          "indexed": true,
          "internalType": "address",
          "name": "approved",
          "type": "address"
        },
        {
          "indexed": true,
          "internalType": "uint256",
          "name": "tokenId",
          "type": "uint256"
        }
      ],
      "name": "Approval",
      "type": "event"
    },
    {
      "anonymous": false,
      "inputs": [
        {
          "indexed": true,
          "internalType": "address",
          "name": "owner",
          "type": "address"
        },
        {
          "indexed": true,
          "internalType": "address",
          "name": "operator",
          "type": "address"
        },
        {
          "indexed": false,
          "internalType": "bool",
          "name": "approved",
          "type": "bool"
        }
      ],
      "name": "ApprovalForAll",
      "type": "event"
    },
    {
      "anonymous": false,
      "inputs": [
        {
          "indexed": false,
          "internalType": "uint256",
          "name": "_fromTokenId",
          "type": "uint256"
        },
        {
          "indexed": false,
          "internalType": "uint256",
          "name": "_toTokenId",
          "type": "uint256"
        }
      ],
      "name": "BatchMetadataUpdate",
      "type": "event"
    },
    {
      "anonymous": false,
      "inputs": [
        {
          "indexed": false,
          "internalType": "uint256",
          "name": "_tokenId",
          "type": "uint256"
        }
      ],
      "name": "MetadataUpdate",
      "type": "event"
    },
    {
      "anonymous": false,
      "inputs": [
        {
          "indexed": true,
          "internalType": "address",
          "name": "previousOwner",
          "type": "address"
        },
        {
          "indexed": true,
          "internalType": "address",
          "name": "newOwner",
          "type": "address"
        }
      ],
      "name": "OwnershipTransferred",
      "type": "event"
    },
    {
      "anonymous": false,
      "inputs": [
        {
          "indexed": true,
          "internalType": "address",
          "name": "from",
          "type": "address"
        },
        {
          "indexed": true,
          "internalType": "address",
          "name": "to",
          "type": "address"
        },
        {
          "indexed": true,
          "internalType": "uint256",
          "name": "tokenId",
          "type": "uint256"
        }
      ],
      "name": "Transfer",
      "type": "event"
    },
    {
      "inputs": [
        {
          "internalType": "address",
          "name": "to",
          "type": "address"
        },
        {
          "internalType": "uint256",
          "name": "tokenId",
          "type": "uint256"
        }
      ],
      "name": "approve",
      "outputs": [],
      "stateMutability": "nonpayable",
      "type": "function"
    },
    {
      "inputs": [
        {
          "internalType": "address",
          "name": "owner",
          "type": "address"
        }
      ],
      "name": "balanceOf",
      "outputs": [
        {
          "internalType": "uint256",
          "name": "",
          "type": "uint256"
        }
      ],
      "stateMutability": "view",
      "type": "function"
    },
    {
      "inputs": [
        {
          "internalType": "uint256",
          "name": "tokenId",
          "type": "uint256"
        }
      ],
      "name": "getApproved",
      "outputs": [
        {
          "internalType": "address",
          "name": "",
          "type": "address"
        }
      ],
      "stateMutability": "view",
      "type": "function"
    },
    {
      "inputs": [
        {
          "internalType": "string",
          "name": "_collectionName",
          "type": "string"
        },
        {
          "internalType": "string",
          "name": "_collectionSymbol",
          "type": "string"
        }
      ],
      "name": "initializeCollection",
      "outputs": [],
      "stateMutability": "nonpayable",
      "type": "function"
    },
    {
      "inputs": [
        {
          "internalType": "address",
          "name": "owner",
          "type": "address"
        },
        {
          "internalType": "address",
          "name": "operator",
          "type": "address"
        }
      ],
      "name": "isApprovedForAll",
      "outputs": [
        {
          "internalType": "bool",
          "name": "",
          "type": "bool"
        }
      ],
      "stateMutability": "view",
      "type": "function"
    },
    {
      "inputs": [],
      "name": "name",
      "outputs": [
        {
          "internalType": "string",
          "name": "",
          "type": "string"
        }
      ],
      "stateMutability": "view",
      "type": "function"
    },
    {
      "inputs": [],
      "name": "owner",
      "outputs": [
        {
          "internalType": "address",
          "name": "",
          "type": "address"
        }
      ],
      "stateMutability": "view",
      "type": "function"
    },
    {
      "inputs": [
        {
          "internalType": "uint256",
          "name": "tokenId",
          "type": "uint256"
        }
      ],
      "name": "ownerOf",
      "outputs": [
        {
          "internalType": "address",
          "name": "",
          "type": "address"
        }
      ],
      "stateMutability": "view",
      "type": "function"
    },
    {
      "inputs": [],
      "name": "renounceOwnership",
      "outputs": [],
      "stateMutability": "nonpayable",
      "type": "function"
    },
    {
      "inputs": [
        {
          "internalType": "address",
          "name": "from",
          "type": "address"
        },
        {
          "internalType": "address",
          "name": "to",
          "type": "address"
        },
        {
          "internalType": "uint256",
          "name": "tokenId",
          "type": "uint256"
        }
      ],
      "name": "safeTransferFrom",
      "outputs": [],
      "stateMutability": "nonpayable",
      "type": "function"
    },
    {
      "inputs": [
        {
          "internalType": "address",
          "name": "from",
          "type": "address"
        },
        {
          "internalType": "address",
          "name": "to",
          "type": "address"
        },
        {
          "internalType": "uint256",
          "name": "tokenId",
          "type": "uint256"
        },
        {
          "internalType": "bytes",
          "name": "data",
          "type": "bytes"
        }
      ],
      "name": "safeTransferFrom",
      "outputs": [],
      "stateMutability": "nonpayable",
      "type": "function"
    },
    {
      "inputs": [
        {
          "internalType": "address",
          "name": "operator",
          "type": "address"
        },
        {
          "internalType": "bool",
          "name": "approved",
          "type": "bool"
        }
      ],
      "name": "setApprovalForAll",
      "outputs": [],
      "stateMutability": "nonpayable",
      "type": "function"
    },
    {
      "inputs": [
        {
          "internalType": "bytes4",
          "name": "interfaceId",
          "type": "bytes4"
        }
      ],
      "name": "supportsInterface",
      "outputs": [
        {
          "internalType": "bool",
          "name": "",
          "type": "bool"
        }
      ],
      "stateMutability": "view",
      "type": "function"
    },
    {
      "inputs": [],
      "name": "symbol",
      "outputs": [
        {
          "internalType": "string",
          "name": "",
          "type": "string"
        }
      ],
      "stateMutability": "view",
      "type": "function"
    },
    {
      "inputs": [
        {
          "internalType": "uint256",
          "name": "tokenId",
          "type": "uint256"
        }
      ],
      "name": "tokenURI",
      "outputs": [
        {
          "internalType": "string",
          "name": "",
          "type": "string"
        }
      ],
      "stateMutability": "view",
      "type": "function"
    },
    {
      "inputs": [
        {
          "internalType": "address",
          "name": "from",
          "type": "address"
        },
        {
          "internalType": "address",
          "name": "to",
          "type": "address"
        },
        {
          "internalType": "uint256",
          "name": "tokenId",
          "type": "uint256"
        }
      ],
      "name": "transferFrom",
      "outputs": [],
      "stateMutability": "nonpayable",
      "type": "function"
    },
    {
      "inputs": [
        {
          "internalType": "address",
          "name": "newOwner",
          "type": "address"
        }
      ],
      "name": "transferOwnership",
      "outputs": [],
      "stateMutability": "nonpayable",
      "type": "function"
    }
  ],
  "bytecode": "0x60806040523480156200001157600080fd5b50604051806020016040528060008152506040518060200160405280600081525033600073ffffffffffffffffffffffffffffffffffffffff168173ffffffffffffffffffffffffffffffffffffffff1603620000a85760006040517f1e4fbdf70000000000000000000000000000000000000000000000000000000081526004016200009f9190620001ef565b60405180910390fd5b620000b981620000e660201b60201c565b508160019081620000cb919062000486565b508060029081620000dd919062000486565b5050506200056d565b60008060009054906101000a900473ffffffffffffffffffffffffffffffffffffffff169050816000806101000a81548173ffffffffffffffffffffffffffffffffffffffff021916908373ffffffffffffffffffffffffffffffffffffffff1602179055508173ffffffffffffffffffffffffffffffffffffffff168173ffffffffffffffffffffffffffffffffffffffff167f8be0079c531659141344cd1fd0a4f28419497f9722a3daafe3b4186f6b6457e060405160405180910390a35050565b600073ffffffffffffffffffffffffffffffffffffffff82169050919050565b6000620001d782620001aa565b9050919050565b620001e981620001ca565b82525050565b6000602082019050620002066000830184620001de565b92915050565b600081519050919050565b7f4e487b7100000000000000000000000000000000000000000000000000000000600052604160045260246000fd5b7f4e487b7100000000000000000000000000000000000000000000000000000000600052602260045260246000fd5b600060028204905060018216806200028e57607f821691505b602082108103620002a457620002a362000246565b5b50919050565b60008190508160005260206000209050919050565b60006020601f8301049050919050565b600082821b905092915050565b6000600883026200030e7fffffffffffffffffffffffffffffffffffffffffffffffffffffffffffffffff82620002cf565b6200031a8683620002cf565b95508019841693508086168417925050509392505050565b6000819050919050565b6000819050919050565b600062000367620003616200035b8462000332565b6200033c565b62000332565b9050919050565b6000819050919050565b620003838362000346565b6200039b62000392826200036e565b848454620002dc565b825550505050565b600090565b620003b2620003a3565b620003bf81848462000378565b505050565b5b81811015620003e757620003db600082620003a8565b600181019050620003c5565b5050565b601f82111562000436576200040081620002aa565b6200040b84620002bf565b810160208510156200041b578190505b620004336200042a85620002bf565b830182620003c4565b50505b505050565b600082821c905092915050565b60006200045b600019846008026200043b565b1980831691505092915050565b600062000476838362000448565b9150826002028217905092915050565b62000491826200020c565b67ffffffffffffffff811115620004ad57620004ac62000217565b5b620004b9825462000275565b620004c6828285620003eb565b600060209050601f831160018114620004fe5760008415620004e9578287015190505b620004f5858262000468565b86555062000565565b601f1984166200050e86620002aa565b60005b82811015620005385784890151825560018201915060208501945060208101905062000511565b8683101562000558578489015162000554601f89168262000448565b8355505b6001600288020188555050505b505050505050565b61242e806200057d6000396000f3fe608060405234801561001057600080fd5b506004361061010b5760003560e01c8063715018a6116100a2578063a22cb46511610071578063a22cb465146102a4578063b88d4fde146102c0578063c87b56dd146102dc578063e985e9c51461030c578063f2fde38b1461033c5761010b565b8063715018a6146102425780638da5cb5b1461024c57806395d89b411461026a5780639f743455146102885761010b565b806323b872dd116100de57806323b872dd146101aa57806342842e0e146101c65780636352211e146101e257806370a08231146102125761010b565b806301ffc9a71461011057806306fdde0314610140578063081812fc1461015e578063095ea7b31461018e575b600080fd5b61012a60048036038101906101259190611910565b610358565b6040516101379190611958565b60405180910390f35b6101486103b9565b6040516101559190611a03565b60405180910390f35b61017860048036038101906101739190611a5b565b61044b565b6040516101859190611ac9565b60405180910390f35b6101a860048036038101906101a39190611b10565b610467565b005b6101c460048036038101906101bf9190611b50565b61047d565b005b6101e060048036038101906101db9190611b50565b61057f565b005b6101fc60048036038101906101f79190611a5b565b61059f565b6040516102099190611ac9565b60405180910390f35b61022c60048036038101906102279190611ba3565b6105b1565b6040516102399190611bdf565b60405180910390f35b61024a61066b565b005b61025461067f565b6040516102619190611ac9565b60405180910390f35b6102726106a8565b60405161027f9190611a03565b60405180910390f35b6102a2600480360381019061029d9190611c5f565b61073a565b005b6102be60048036038101906102b99190611d0c565b610764565b005b6102da60048036038101906102d59190611e7c565b61077a565b005b6102f660048036038101906102f19190611a5b565b61079f565b6040516103039190611a03565b60405180910390f35b61032660048036038101906103219190611eff565b6108b2565b6040516103339190611958565b60405180910390f35b61035660048036038101906103519190611ba3565b610946565b005b6000634906490660e01b7bffffffffffffffffffffffffffffffffffffffffffffffffffffffff1916827bffffffffffffffffffffffffffffffffffffffffffffffffffffffff191614806103b257506103b1826109cc565b5b9050919050565b6060600180546103c890611f6e565b80601f01602080910402602001604051908101604052809291908181526020018280546103f490611f6e565b80156104415780601f1061041657610100808354040283529160200191610441565b820191906000526020600020905b81548152906001019060200180831161042457829003601f168201915b5050505050905090565b600061045682610aae565b5061046082610b36565b9050919050565b6104798282610474610b73565b610b7b565b5050565b600073ffffffffffffffffffffffffffffffffffffffff168273ffffffffffffffffffffffffffffffffffffffff16036104ef5760006040517f64a0ae920000000000000000000000000000000000000000000000000000000081526004016104e69190611ac9565b60405180910390fd5b600061050383836104fe610b73565b610b8d565b90508373ffffffffffffffffffffffffffffffffffffffff168173ffffffffffffffffffffffffffffffffffffffff1614610579578382826040517f64283d7b00000000000000000000000000000000000000000000000000000000815260040161057093929190611f9f565b60405180910390fd5b50505050565b61059a8383836040518060200160405280600081525061077a565b505050565b60006105aa82610aae565b9050919050565b60008073ffffffffffffffffffffffffffffffffffffffff168273ffffffffffffffffffffffffffffffffffffffff16036106245760006040517f89c62b6400000000000000000000000000000000000000000000000000000000815260040161061b9190611ac9565b60405180910390fd5b600460008373ffffffffffffffffffffffffffffffffffffffff1673ffffffffffffffffffffffffffffffffffffffff168152602001908152602001600020549050919050565b610673610da7565b61067d6000610e2e565b565b60008060009054906101000a900473ffffffffffffffffffffffffffffffffffffffff16905090565b6060600280546106b790611f6e565b80601f01602080910402602001604051908101604052809291908181526020018280546106e390611f6e565b80156107305780601f1061070557610100808354040283529160200191610730565b820191906000526020600020905b81548152906001019060200180831161071357829003601f168201915b5050505050905090565b83836001918261074b92919061218d565b5081816002918261075d92919061218d565b5050505050565b61077661076f610b73565b8383610ef2565b5050565b61078584848461047d565b610799610790610b73565b85858585611061565b50505050565b60606107aa82610aae565b5060006007600084815260200190815260200160002080546107cb90611f6e565b80601f01602080910402602001604051908101604052809291908181526020018280546107f790611f6e565b80156108445780601f1061081957610100808354040283529160200191610844565b820191906000526020600020905b81548152906001019060200180831161082757829003601f168201915b505050505090506000610855611212565b9050600081510361086a5781925050506108ad565b60008251111561089f578082604051602001610887929190612299565b604051602081830303815290604052925050506108ad565b6108a884611229565b925050505b919050565b6000600660008473ffffffffffffffffffffffffffffffffffffffff1673ffffffffffffffffffffffffffffffffffffffff16815260200190815260200160002060008373ffffffffffffffffffffffffffffffffffffffff1673ffffffffffffffffffffffffffffffffffffffff16815260200190815260200160002060009054906101000a900460ff16905092915050565b61094e610da7565b600073ffffffffffffffffffffffffffffffffffffffff168173ffffffffffffffffffffffffffffffffffffffff16036109c05760006040517f1e4fbdf70000000000000000000000000000000000000000000000000000000081526004016109b79190611ac9565b60405180910390fd5b6109c981610e2e565b50565b60007f80ac58cd000000000000000000000000000000000000000000000000000000007bffffffffffffffffffffffffffffffffffffffffffffffffffffffff1916827bffffffffffffffffffffffffffffffffffffffffffffffffffffffff19161480610a9757507f5b5e139f000000000000000000000000000000000000000000000000000000007bffffffffffffffffffffffffffffffffffffffffffffffffffffffff1916827bffffffffffffffffffffffffffffffffffffffffffffffffffffffff1916145b80610aa75750610aa682611292565b5b9050919050565b600080610aba836112fc565b9050600073ffffffffffffffffffffffffffffffffffffffff168173ffffffffffffffffffffffffffffffffffffffff1603610b2d57826040517f7e273289000000000000000000000000000000000000000000000000000000008152600401610b249190611bdf565b60405180910390fd5b80915050919050565b60006005600083815260200190815260200160002060009054906101000a900473ffffffffffffffffffffffffffffffffffffffff169050919050565b600033905090565b610b888383836001611339565b505050565b600080610b99846112fc565b9050600073ffffffffffffffffffffffffffffffffffffffff168373ffffffffffffffffffffffffffffffffffffffff1614610bdb57610bda8184866114fe565b5b600073ffffffffffffffffffffffffffffffffffffffff168173ffffffffffffffffffffffffffffffffffffffff1614610c6c57610c1d600085600080611339565b6001600460008373ffffffffffffffffffffffffffffffffffffffff1673ffffffffffffffffffffffffffffffffffffffff168152602001908152602001600020600082825403925050819055505b600073ffffffffffffffffffffffffffffffffffffffff168573ffffffffffffffffffffffffffffffffffffffff1614610cef576001600460008773ffffffffffffffffffffffffffffffffffffffff1673ffffffffffffffffffffffffffffffffffffffff168152602001908152602001600020600082825401925050819055505b846003600086815260200190815260200160002060006101000a81548173ffffffffffffffffffffffffffffffffffffffff021916908373ffffffffffffffffffffffffffffffffffffffff160217905550838573ffffffffffffffffffffffffffffffffffffffff168273ffffffffffffffffffffffffffffffffffffffff167fddf252ad1be2c89b69c2b068fc378daa952ba7f163c4a11628f55a4df523b3ef60405160405180910390a4809150509392505050565b610daf610b73565b73ffffffffffffffffffffffffffffffffffffffff16610dcd61067f565b73ffffffffffffffffffffffffffffffffffffffff1614610e2c57610df0610b73565b6040517f118cdaa7000000000000000000000000000000000000000000000000000000008152600401610e239190611ac9565b60405180910390fd5b565b60008060009054906101000a900473ffffffffffffffffffffffffffffffffffffffff169050816000806101000a81548173ffffffffffffffffffffffffffffffffffffffff021916908373ffffffffffffffffffffffffffffffffffffffff1602179055508173ffffffffffffffffffffffffffffffffffffffff168173ffffffffffffffffffffffffffffffffffffffff167f8be0079c531659141344cd1fd0a4f28419497f9722a3daafe3b4186f6b6457e060405160405180910390a35050565b600073ffffffffffffffffffffffffffffffffffffffff168273ffffffffffffffffffffffffffffffffffffffff1603610f6357816040517f5b08ba18000000000000000000000000000000000000000000000000000000008152600401610f5a9190611ac9565b60405180910390fd5b80600660008573ffffffffffffffffffffffffffffffffffffffff1673ffffffffffffffffffffffffffffffffffffffff16815260200190815260200160002060008473ffffffffffffffffffffffffffffffffffffffff1673ffffffffffffffffffffffffffffffffffffffff16815260200190815260200160002060006101000a81548160ff0219169083151502179055508173ffffffffffffffffffffffffffffffffffffffff168373ffffffffffffffffffffffffffffffffffffffff167f17307eab39ab6107e8899845ad3d59bd9653f200f220920489ca2b5937696c31836040516110549190611958565b60405180910390a3505050565b60008373ffffffffffffffffffffffffffffffffffffffff163b111561120b578273ffffffffffffffffffffffffffffffffffffffff1663150b7a02868685856040518563ffffffff1660e01b81526004016110c09493929190612312565b6020604051808303816000875af19250505080156110fc57506040513d601f19601f820116820180604052508101906110f99190612373565b60015b611180573d806000811461112c576040519150601f19603f3d011682016040523d82523d6000602084013e611131565b606091505b50600081510361117857836040517f64a0ae9200000000000000000000000000000000000000000000000000000000815260040161116f9190611ac9565b60405180910390fd5b805181602001fd5b63150b7a0260e01b7bffffffffffffffffffffffffffffffffffffffffffffffffffffffff1916817bffffffffffffffffffffffffffffffffffffffffffffffffffffffff19161461120957836040517f64a0ae920000000000000000000000000000000000000000000000000000000081526004016112009190611ac9565b60405180910390fd5b505b5050505050565b606060405180602001604052806000815250905090565b606061123482610aae565b50600061123f611212565b9050600081511161125f576040518060200160405280600081525061128a565b80611269846115c2565b60405160200161127a929190612299565b6040516020818303038152906040525b915050919050565b60007f01ffc9a7000000000000000000000000000000000000000000000000000000007bffffffffffffffffffffffffffffffffffffffffffffffffffffffff1916827bffffffffffffffffffffffffffffffffffffffffffffffffffffffff1916149050919050565b60006003600083815260200190815260200160002060009054906101000a900473ffffffffffffffffffffffffffffffffffffffff169050919050565b80806113725750600073ffffffffffffffffffffffffffffffffffffffff168273ffffffffffffffffffffffffffffffffffffffff1614155b156114a657600061138284610aae565b9050600073ffffffffffffffffffffffffffffffffffffffff168373ffffffffffffffffffffffffffffffffffffffff16141580156113ed57508273ffffffffffffffffffffffffffffffffffffffff168173ffffffffffffffffffffffffffffffffffffffff1614155b801561140057506113fe81846108b2565b155b1561144257826040517fa9fbf51f0000000000000000000000000000000000000000000000000000000081526004016114399190611ac9565b60405180910390fd5b81156114a457838573ffffffffffffffffffffffffffffffffffffffff168273ffffffffffffffffffffffffffffffffffffffff167f8c5be1e5ebec7d5bd14f71427d1e84f3dd0314c0f7b2291e5b200ac8c7c3b92560405160405180910390a45b505b836005600085815260200190815260200160002060006101000a81548173ffffffffffffffffffffffffffffffffffffffff021916908373ffffffffffffffffffffffffffffffffffffffff16021790555050505050565b611509838383611690565b6115bd57600073ffffffffffffffffffffffffffffffffffffffff168373ffffffffffffffffffffffffffffffffffffffff160361157e57806040517f7e2732890000000000000000000000000000000000000000000000000000000081526004016115759190611bdf565b60405180910390fd5b81816040517f177e802f0000000000000000000000000000000000000000000000000000000081526004016115b49291906123a0565b60405180910390fd5b505050565b6060600060016115d184611751565b01905060008167ffffffffffffffff8111156115f0576115ef611d51565b5b6040519080825280601f01601f1916602001820160405280156116225781602001600182028036833780820191505090505b509050600082602001820190505b600115611685578080600190039150507f3031323334353637383961626364656600000000000000000000000000000000600a86061a8153600a8581611679576116786123c9565b5b04945060008503611630575b819350505050919050565b60008073ffffffffffffffffffffffffffffffffffffffff168373ffffffffffffffffffffffffffffffffffffffff161415801561174857508273ffffffffffffffffffffffffffffffffffffffff168473ffffffffffffffffffffffffffffffffffffffff161480611709575061170884846108b2565b5b8061174757508273ffffffffffffffffffffffffffffffffffffffff1661172f83610b36565b73ffffffffffffffffffffffffffffffffffffffff16145b5b90509392505050565b600080600090507a184f03e93ff9f4daa797ed6e38ed64bf6a1f01000000000000000083106117af577a184f03e93ff9f4daa797ed6e38ed64bf6a1f01000000000000000083816117a5576117a46123c9565b5b0492506040810190505b6d04ee2d6d415b85acef810000000083106117ec576d04ee2d6d415b85acef810000000083816117e2576117e16123c9565b5b0492506020810190505b662386f26fc10000831061181b57662386f26fc100008381611811576118106123c9565b5b0492506010810190505b6305f5e1008310611844576305f5e100838161183a576118396123c9565b5b0492506008810190505b612710831061186957612710838161185f5761185e6123c9565b5b0492506004810190505b6064831061188c5760648381611882576118816123c9565b5b0492506002810190505b600a831061189b576001810190505b80915050919050565b6000604051905090565b600080fd5b600080fd5b60007fffffffff0000000000000000000000000000000000000000000000000000000082169050919050565b6118ed816118b8565b81146118f857600080fd5b50565b60008135905061190a816118e4565b92915050565b600060208284031215611926576119256118ae565b5b6000611934848285016118fb565b91505092915050565b60008115159050919050565b6119528161193d565b82525050565b600060208201905061196d6000830184611949565b92915050565b600081519050919050565b600082825260208201905092915050565b60005b838110156119ad578082015181840152602081019050611992565b60008484015250505050565b6000601f19601f8301169050919050565b60006119d582611973565b6119df818561197e565b93506119ef81856020860161198f565b6119f8816119b9565b840191505092915050565b60006020820190508181036000830152611a1d81846119ca565b905092915050565b6000819050919050565b611a3881611a25565b8114611a4357600080fd5b50565b600081359050611a5581611a2f565b92915050565b600060208284031215611a7157611a706118ae565b5b6000611a7f84828501611a46565b91505092915050565b600073ffffffffffffffffffffffffffffffffffffffff82169050919050565b6000611ab382611a88565b9050919050565b611ac381611aa8565b82525050565b6000602082019050611ade6000830184611aba565b92915050565b611aed81611aa8565b8114611af857600080fd5b50565b600081359050611b0a81611ae4565b92915050565b60008060408385031215611b2757611b266118ae565b5b6000611b3585828601611afb565b9250506020611b4685828601611a46565b9150509250929050565b600080600060608486031215611b6957611b686118ae565b5b6000611b7786828701611afb565b9350506020611b8886828701611afb565b9250506040611b9986828701611a46565b9150509250925092565b600060208284031215611bb957611bb86118ae565b5b6000611bc784828501611afb565b91505092915050565b611bd981611a25565b82525050565b6000602082019050611bf46000830184611bd0565b92915050565b600080fd5b600080fd5b600080fd5b60008083601f840112611c1f57611c1e611bfa565b5b8235905067ffffffffffffffff811115611c3c57611c3b611bff565b5b602083019150836001820283011115611c5857611c57611c04565b5b9250929050565b60008060008060408587031215611c7957611c786118ae565b5b600085013567ffffffffffffffff811115611c9757611c966118b3565b5b611ca387828801611c09565b9450945050602085013567ffffffffffffffff811115611cc657611cc56118b3565b5b611cd287828801611c09565b925092505092959194509250565b611ce98161193d565b8114611cf457600080fd5b50565b600081359050611d0681611ce0565b92915050565b60008060408385031215611d2357611d226118ae565b5b6000611d3185828601611afb565b9250506020611d4285828601611cf7565b9150509250929050565b600080fd5b7f4e487b7100000000000000000000000000000000000000000000000000000000600052604160045260246000fd5b611d89826119b9565b810181811067ffffffffffffffff82111715611da857611da7611d51565b5b80604052505050565b6000611dbb6118a4565b9050611dc78282611d80565b919050565b600067ffffffffffffffff821115611de757611de6611d51565b5b611df0826119b9565b9050602081019050919050565b82818337600083830152505050565b6000611e1f611e1a84611dcc565b611db1565b905082815260208101848484011115611e3b57611e3a611d4c565b5b611e46848285611dfd565b509392505050565b600082601f830112611e6357611e62611bfa565b5b8135611e73848260208601611e0c565b91505092915050565b60008060008060808587031215611e9657611e956118ae565b5b6000611ea487828801611afb565b9450506020611eb587828801611afb565b9350506040611ec687828801611a46565b925050606085013567ffffffffffffffff811115611ee757611ee66118b3565b5b611ef387828801611e4e565b91505092959194509250565b60008060408385031215611f1657611f156118ae565b5b6000611f2485828601611afb565b9250506020611f3585828601611afb565b9150509250929050565b7f4e487b7100000000000000000000000000000000000000000000000000000000600052602260045260246000fd5b60006002820490506001821680611f8657607f821691505b602082108103611f9957611f98611f3f565b5b50919050565b6000606082019050611fb46000830186611aba565b611fc16020830185611bd0565b611fce6040830184611aba565b949350505050565b600082905092915050565b60008190508160005260206000209050919050565b60006020601f8301049050919050565b600082821b905092915050565b6000600883026120437fffffffffffffffffffffffffffffffffffffffffffffffffffffffffffffffff82612006565b61204d8683612006565b95508019841693508086168417925050509392505050565b6000819050919050565b600061208a61208561208084611a25565b612065565b611a25565b9050919050565b6000819050919050565b6120a48361206f565b6120b86120b082612091565b848454612013565b825550505050565b600090565b6120cd6120c0565b6120d881848461209b565b505050565b5b818110156120fc576120f16000826120c5565b6001810190506120de565b5050565b601f8211156121415761211281611fe1565b61211b84611ff6565b8101602085101561212a578190505b61213e61213685611ff6565b8301826120dd565b50505b505050565b600082821c905092915050565b600061216460001984600802612146565b1980831691505092915050565b600061217d8383612153565b9150826002028217905092915050565b6121978383611fd6565b67ffffffffffffffff8111156121b0576121af611d51565b5b6121ba8254611f6e565b6121c5828285612100565b6000601f8311600181146121f457600084156121e2578287013590505b6121ec8582612171565b865550612254565b601f19841661220286611fe1565b60005b8281101561222a57848901358255600182019150602085019450602081019050612205565b868310156122475784890135612243601f891682612153565b8355505b6001600288020188555050505b50505050505050565b600081905092915050565b600061227382611973565b61227d818561225d565b935061228d81856020860161198f565b80840191505092915050565b60006122a58285612268565b91506122b18284612268565b91508190509392505050565b600081519050919050565b600082825260208201905092915050565b60006122e4826122bd565b6122ee81856122c8565b93506122fe81856020860161198f565b612307816119b9565b840191505092915050565b60006080820190506123276000830187611aba565b6123346020830186611aba565b6123416040830185611bd0565b818103606083015261235381846122d9565b905095945050505050565b60008151905061236d816118e4565b92915050565b600060208284031215612389576123886118ae565b5b60006123978482850161235e565b91505092915050565b60006040820190506123b56000830185611aba565b6123c26020830184611bd0565b9392505050565b7f4e487b7100000000000000000000000000000000000000000000000000000000600052601260045260246000fdfea2646970667358221220ae571ca8cb7e3175fd89a01578102a2942dd6c26419fa6ae649297ebda86b08f64736f6c63430008140033",
  "linkReferences": {},
  "deployedLinkReferences": {}
}