{
  "_format": "hh-sol-artifact-1",
  "contractName": "NWMain",
  "sourceName": "contracts/v1/NWMain.sol",
  "abi": [
    {
      "inputs": [
        {
          "internalType": "contract INWERC721Factory",
          "name": "_factory",
          "type": "address"
        },
        {
          "internalType": "uint256",
          "name": "_feePercent",
          "type": "uint256"
        }
      ],
      "stateMutability": "nonpayable",
      "type": "constructor"
    },
    {
      "inputs": [
        {
          "internalType": "address",
          "name": "owner",
          "type": "address"
        }
      ],
      "name": "OwnableInvalidOwner",
      "type": "error"
    },
    {
      "inputs": [
        {
          "internalType": "address",
          "name": "account",
          "type": "address"
        }
      ],
      "name": "OwnableUnauthorizedAccount",
      "type": "error"
    },
    {
      "anonymous": false,
      "inputs": [
        {
          "indexed": true,
          "internalType": "uint256",
          "name": "itemId",
          "type": "uint256"
        },
        {
          "indexed": true,
          "internalType": "uint256",
          "name": "tokenId",
          "type": "uint256"
        },
        {
          "indexed": true,
          "internalType": "address",
          "name": "seller",
          "type": "address"
        },
        {
          "indexed": false,
          "internalType": "address",
          "name": "collection",
          "type": "address"
        },
        {
          "indexed": false,
          "internalType": "uint256",
          "name": "priceInWei",
          "type": "uint256"
        },
        {
          "indexed": false,
          "internalType": "uint256",
          "name": "timestamp",
          "type": "uint256"
        }
      ],
      "name": "EscrowedItems",
      "type": "event"
    },
    {
      "anonymous": false,
      "inputs": [
        {
          "indexed": true,
          "internalType": "address",
          "name": "previousOwner",
          "type": "address"
        },
        {
          "indexed": true,
          "internalType": "address",
          "name": "newOwner",
          "type": "address"
        }
      ],
      "name": "OwnershipTransferred",
      "type": "event"
    },
    {
      "anonymous": false,
      "inputs": [
        {
          "indexed": true,
          "internalType": "uint256",
          "name": "itemId",
          "type": "uint256"
        },
        {
          "indexed": true,
          "internalType": "address",
          "name": "buyer",
          "type": "address"
        },
        {
          "indexed": false,
          "internalType": "uint256",
          "name": "timestamp",
          "type": "uint256"
        }
      ],
      "name": "PaidItems",
      "type": "event"
    },
    {
      "anonymous": false,
      "inputs": [
        {
          "indexed": false,
          "internalType": "uint256",
          "name": "itemId",
          "type": "uint256"
        },
        {
          "indexed": false,
          "internalType": "uint256",
          "name": "timestamp",
          "type": "uint256"
        }
      ],
      "name": "SaleConcellation",
      "type": "event"
    },
    {
      "anonymous": false,
      "inputs": [
        {
          "indexed": false,
          "internalType": "uint256",
          "name": "itemId",
          "type": "uint256"
        },
        {
          "indexed": true,
          "internalType": "address",
          "name": "seller",
          "type": "address"
        },
        {
          "indexed": true,
          "internalType": "address",
          "name": "buyer",
          "type": "address"
        },
        {
          "indexed": false,
          "internalType": "uint256",
          "name": "netPriceInWei",
          "type": "uint256"
        },
        {
          "indexed": false,
          "internalType": "uint256",
          "name": "amountOfFees",
          "type": "uint256"
        },
        {
          "indexed": false,
          "internalType": "uint256",
          "name": "timestamp",
          "type": "uint256"
        }
      ],
      "name": "SoldItems",
      "type": "event"
    },
    {
      "inputs": [
        {
          "internalType": "uint256",
          "name": "_itemId",
          "type": "uint256"
        }
      ],
      "name": "buyItem",
      "outputs": [],
      "stateMutability": "payable",
      "type": "function"
    },
    {
      "inputs": [
        {
          "internalType": "uint256",
          "name": "_itemId",
          "type": "uint256"
        }
      ],
      "name": "cancelSale",
      "outputs": [],
      "stateMutability": "payable",
      "type": "function"
    },
    {
      "inputs": [
        {
          "internalType": "address",
          "name": "_newFeeAccount",
          "type": "address"
        }
      ],
      "name": "changeFeeAccount",
      "outputs": [],
      "stateMutability": "nonpayable",
      "type": "function"
    },
    {
      "inputs": [
        {
          "internalType": "uint256",
          "name": "_newFeePercent",
          "type": "uint256"
        }
      ],
      "name": "changeFeePercent",
      "outputs": [],
      "stateMutability": "nonpayable",
      "type": "function"
    },
    {
      "inputs": [
        {
          "internalType": "uint256",
          "name": "_tokenId",
          "type": "uint256"
        },
        {
          "internalType": "uint256",
          "name": "_priceInWei",
          "type": "uint256"
        }
      ],
      "name": "escrowItem",
      "outputs": [],
      "stateMutability": "payable",
      "type": "function"
    },
    {
      "inputs": [
        {
          "internalType": "address",
          "name": "_collectionAddress",
          "type": "address"
        },
        {
          "internalType": "uint256",
          "name": "_tokenId",
          "type": "uint256"
        },
        {
          "internalType": "uint256",
          "name": "_priceInWei",
          "type": "uint256"
        }
      ],
      "name": "escrowItem",
      "outputs": [],
      "stateMutability": "nonpayable",
      "type": "function"
    },
    {
      "inputs": [],
      "name": "feeAccount",
      "outputs": [
        {
          "internalType": "address payable",
          "name": "",
          "type": "address"
        }
      ],
      "stateMutability": "view",
      "type": "function"
    },
    {
      "inputs": [],
      "name": "feePercent",
      "outputs": [
        {
          "internalType": "uint256",
          "name": "",
          "type": "uint256"
        }
      ],
      "stateMutability": "view",
      "type": "function"
    },
    {
      "inputs": [],
      "name": "getFactoryCollections",
      "outputs": [
        {
          "internalType": "address[]",
          "name": "",
          "type": "address[]"
        }
      ],
      "stateMutability": "view",
      "type": "function"
    },
    {
      "inputs": [
        {
          "internalType": "uint256[]",
          "name": "_ids",
          "type": "uint256[]"
        }
      ],
      "name": "getItemsBatch",
      "outputs": [
        {
          "components": [
            {
              "internalType": "uint256",
              "name": "itemId",
              "type": "uint256"
            },
            {
              "internalType": "address",
              "name": "collection",
              "type": "address"
            },
            {
              "internalType": "uint256",
              "name": "tokenId",
              "type": "uint256"
            },
            {
              "internalType": "uint256",
              "name": "priceInWei",
              "type": "uint256"
            },
            {
              "internalType": "address payable",
              "name": "seller",
              "type": "address"
            },
            {
              "internalType": "address payable",
              "name": "buyer",
              "type": "address"
            },
            {
              "internalType": "enum NWMain.SaleStatus",
              "name": "status",
              "type": "uint8"
            },
            {
              "internalType": "uint256",
              "name": "timestamp",
              "type": "uint256"
            },
            {
              "internalType": "bool",
              "name": "sellerRequestsCancellation",
              "type": "bool"
            },
            {
              "internalType": "bool",
              "name": "buyerRequestsCancellation",
              "type": "bool"
            }
          ],
          "internalType": "struct NWMain.Item[]",
          "name": "",
          "type": "tuple[]"
        }
      ],
      "stateMutability": "view",
      "type": "function"
    },
    {
      "inputs": [
        {
          "internalType": "address",
          "name": "_buyer",
          "type": "address"
        }
      ],
      "name": "getItemsIdsForPurchase",
      "outputs": [
        {
          "internalType": "uint256[]",
          "name": "",
          "type": "uint256[]"
        }
      ],
      "stateMutability": "view",
      "type": "function"
    },
    {
      "inputs": [
        {
          "internalType": "address",
          "name": "_seller",
          "type": "address"
        }
      ],
      "name": "getItemsIdsForSale",
      "outputs": [
        {
          "internalType": "uint256[]",
          "name": "",
          "type": "uint256[]"
        }
      ],
      "stateMutability": "view",
      "type": "function"
    },
    {
      "inputs": [
        {
          "internalType": "uint256",
          "name": "",
          "type": "uint256"
        }
      ],
      "name": "items",
      "outputs": [
        {
          "internalType": "uint256",
          "name": "itemId",
          "type": "uint256"
        },
        {
          "internalType": "address",
          "name": "collection",
          "type": "address"
        },
        {
          "internalType": "uint256",
          "name": "tokenId",
          "type": "uint256"
        },
        {
          "internalType": "uint256",
          "name": "priceInWei",
          "type": "uint256"
        },
        {
          "internalType": "address payable",
          "name": "seller",
          "type": "address"
        },
        {
          "internalType": "address payable",
          "name": "buyer",
          "type": "address"
        },
        {
          "internalType": "enum NWMain.SaleStatus",
          "name": "status",
          "type": "uint8"
        },
        {
          "internalType": "uint256",
          "name": "timestamp",
          "type": "uint256"
        },
        {
          "internalType": "bool",
          "name": "sellerRequestsCancellation",
          "type": "bool"
        },
        {
          "internalType": "bool",
          "name": "buyerRequestsCancellation",
          "type": "bool"
        }
      ],
      "stateMutability": "view",
      "type": "function"
    },
    {
      "inputs": [],
      "name": "owner",
      "outputs": [
        {
          "internalType": "address",
          "name": "",
          "type": "address"
        }
      ],
      "stateMutability": "view",
      "type": "function"
    },
    {
      "inputs": [],
      "name": "renounceOwnership",
      "outputs": [],
      "stateMutability": "nonpayable",
      "type": "function"
    },
    {
      "inputs": [
        {
          "internalType": "address",
          "name": "newOwner",
          "type": "address"
        }
      ],
      "name": "transferOwnership",
      "outputs": [],
      "stateMutability": "nonpayable",
      "type": "function"
    },
    {
      "inputs": [
        {
          "internalType": "uint256",
          "name": "_itemId",
          "type": "uint256"
        }
      ],
      "name": "validateItem",
      "outputs": [],
      "stateMutability": "payable",
      "type": "function"
    }
  ],
  "bytecode": "0x60806040523480156200001157600080fd5b5060405162003cf638038062003cf68339818101604052810190620000379190620002cd565b33600073ffffffffffffffffffffffffffffffffffffffff168173ffffffffffffffffffffffffffffffffffffffff1603620000ad5760006040517f1e4fbdf7000000000000000000000000000000000000000000000000000000008152600401620000a4919062000325565b60405180910390fd5b620000be816200015060201b60201c565b5033600160006101000a81548173ffffffffffffffffffffffffffffffffffffffff021916908373ffffffffffffffffffffffffffffffffffffffff1602179055508060028190555081600360006101000a81548173ffffffffffffffffffffffffffffffffffffffff021916908373ffffffffffffffffffffffffffffffffffffffff160217905550505062000342565b60008060009054906101000a900473ffffffffffffffffffffffffffffffffffffffff169050816000806101000a81548173ffffffffffffffffffffffffffffffffffffffff021916908373ffffffffffffffffffffffffffffffffffffffff1602179055508173ffffffffffffffffffffffffffffffffffffffff168173ffffffffffffffffffffffffffffffffffffffff167f8be0079c531659141344cd1fd0a4f28419497f9722a3daafe3b4186f6b6457e060405160405180910390a35050565b600080fd5b600073ffffffffffffffffffffffffffffffffffffffff82169050919050565b6000620002468262000219565b9050919050565b60006200025a8262000239565b9050919050565b6200026c816200024d565b81146200027857600080fd5b50565b6000815190506200028c8162000261565b92915050565b6000819050919050565b620002a78162000292565b8114620002b357600080fd5b50565b600081519050620002c7816200029c565b92915050565b60008060408385031215620002e757620002e662000214565b5b6000620002f7858286016200027b565b92505060206200030a85828601620002b6565b9150509250929050565b6200031f8162000239565b82525050565b60006020820190506200033c600083018462000314565b92915050565b6139a480620003526000396000f3fe6080604052600436106100fe5760003560e01c806387687d5511610095578063bd94b00511610064578063bd94b00514610305578063bfb231d214610321578063c2123fef14610367578063e7fb74c714610392578063f2fde38b146103ae576100fe565b806387687d551461023757806387c605bc146102605780638da5cb5b1461029d578063a5844841146102c8576100fe565b806365e17c9d116100d157806365e17c9d146101a1578063715018a6146101cc57806371ffcb16146101e35780637fd6f15c1461020c576100fe565b806304daea4d146101035780630fe6f0571461014057806334eddf3e1461015c578063635aa34f14610185575b600080fd5b34801561010f57600080fd5b5061012a60048036038101906101259190612541565b6103d7565b6040516101379190612636565b60405180910390f35b61015a60048036038101906101559190612684565b61046e565b005b34801561016857600080fd5b50610183600480360381019061017e91906126c4565b61052d565b005b61019f600480360381019061019a91906126c4565b610582565b005b3480156101ad57600080fd5b506101b6610ae4565b6040516101c39190612712565b60405180910390f35b3480156101d857600080fd5b506101e1610b0a565b005b3480156101ef57600080fd5b5061020a60048036038101906102059190612541565b610b1e565b005b34801561021857600080fd5b50610221610b6a565b60405161022e919061273c565b60405180910390f35b34801561024357600080fd5b5061025e60048036038101906102599190612757565b610b70565b005b34801561026c57600080fd5b5061028760048036038101906102829190612541565b61102c565b6040516102949190612636565b60405180910390f35b3480156102a957600080fd5b506102b26110c3565b6040516102bf91906127b9565b60405180910390f35b3480156102d457600080fd5b506102ef60048036038101906102ea9190612839565b6110ec565b6040516102fc9190612ab2565b60405180910390f35b61031f600480360381019061031a91906126c4565b6113ca565b005b34801561032d57600080fd5b50610348600480360381019061034391906126c4565b611aba565b60405161035e9a99989796959493929190612af2565b60405180910390f35b34801561037357600080fd5b5061037c611ba5565b6040516103899190612c3d565b60405180910390f35b6103ac60048036038101906103a791906126c4565b611c42565b005b3480156103ba57600080fd5b506103d560048036038101906103d09190612541565b611fcb565b005b6060600660008373ffffffffffffffffffffffffffffffffffffffff1673ffffffffffffffffffffffffffffffffffffffff16815260200190815260200160002080548060200260200160405190810160405280929190818152602001828054801561046257602002820191906000526020600020905b81548152602001906001019080831161044e575b50505050509050919050565b6000610478611ba5565b51116104b9576040517f08c379a00000000000000000000000000000000000000000000000000000000081526004016104b090612d08565b60405180910390fd5b600081116104fc576040517f08c379a00000000000000000000000000000000000000000000000000000000081526004016104f390612d9a565b60405180910390fd5b610529610507611ba5565b60008151811061051a57610519612dba565b5b60200260200101518383610b70565b5050565b610535612051565b601e8110610578576040517f08c379a000000000000000000000000000000000000000000000000000000000815260040161056f90612e5b565b60405180910390fd5b8060028190555050565b600061058d826120d8565b90503373ffffffffffffffffffffffffffffffffffffffff168160a0015173ffffffffffffffffffffffffffffffffffffffff1614610601576040517f08c379a00000000000000000000000000000000000000000000000000000000081526004016105f890612ec7565b60405180910390fd5b60026005811115610615576106146128d0565b5b8160c00151600581111561062c5761062b6128d0565b5b1461066c576040517f08c379a000000000000000000000000000000000000000000000000000000000815260040161066390612f33565b60405180910390fd5b806020015173ffffffffffffffffffffffffffffffffffffffff166323b872dd308360a0015184604001516040518463ffffffff1660e01b81526004016106b593929190612fb2565b600060405180830381600087803b1580156106cf57600080fd5b505af11580156106e3573d6000803e3d6000fd5b5050505060038160c001906005811115610700576106ff6128d0565b5b90816005811115610714576107136128d0565b5b8152505080600482600001518154811061073157610730612dba565b5b90600052602060002090600802016000820151816000015560208201518160010160006101000a81548173ffffffffffffffffffffffffffffffffffffffff021916908373ffffffffffffffffffffffffffffffffffffffff160217905550604082015181600201556060820151816003015560808201518160040160006101000a81548173ffffffffffffffffffffffffffffffffffffffff021916908373ffffffffffffffffffffffffffffffffffffffff16021790555060a08201518160050160006101000a81548173ffffffffffffffffffffffffffffffffffffffff021916908373ffffffffffffffffffffffffffffffffffffffff16021790555060c08201518160050160146101000a81548160ff0219169083600581111561085d5761085c6128d0565b5b021790555060e082015181600601556101008201518160070160006101000a81548160ff0219169083151502179055506101208201518160070160016101000a81548160ff0219169083151502179055509050506000606460025483606001516108c79190613018565b6108d19190613089565b905060008183606001516108e591906130ba565b90506000836080015173ffffffffffffffffffffffffffffffffffffffff16826040516109119061311f565b60006040518083038185875af1925050503d806000811461094e576040519150601f19603f3d011682016040523d82523d6000602084013e610953565b606091505b5050905080610997576040517f08c379a000000000000000000000000000000000000000000000000000000000815260040161098e90613180565b60405180910390fd5b6000600160009054906101000a900473ffffffffffffffffffffffffffffffffffffffff1673ffffffffffffffffffffffffffffffffffffffff16846040516109df9061311f565b60006040518083038185875af1925050503d8060008114610a1c576040519150601f19603f3d011682016040523d82523d6000602084013e610a21565b606091505b5050905080610a65576040517f08c379a0000000000000000000000000000000000000000000000000000000008152600401610a5c906131ec565b60405180910390fd5b8460a0015173ffffffffffffffffffffffffffffffffffffffff16856080015173ffffffffffffffffffffffffffffffffffffffff167f58f7dc41439c42b920a4789a95776057055d961cb0cf1916b905abadcddc560c8760000151868842604051610ad4949392919061320c565b60405180910390a3505050505050565b600160009054906101000a900473ffffffffffffffffffffffffffffffffffffffff1681565b610b12612051565b610b1c6000612358565b565b610b26612051565b80600160006101000a81548173ffffffffffffffffffffffffffffffffffffffff021916908373ffffffffffffffffffffffffffffffffffffffff16021790555050565b60025481565b60008111610bb3576040517f08c379a0000000000000000000000000000000000000000000000000000000008152600401610baa90612d9a565b60405180910390fd5b3373ffffffffffffffffffffffffffffffffffffffff168373ffffffffffffffffffffffffffffffffffffffff16636352211e846040518263ffffffff1660e01b8152600401610c03919061273c565b602060405180830381865afa158015610c20573d6000803e3d6000fd5b505050506040513d601f19601f82011682018060405250810190610c449190613266565b73ffffffffffffffffffffffffffffffffffffffff1614610c9a576040517f08c379a0000000000000000000000000000000000000000000000000000000008152600401610c9190613305565b60405180910390fd5b8273ffffffffffffffffffffffffffffffffffffffff166323b872dd3330856040518463ffffffff1660e01b8152600401610cd793929190613325565b600060405180830381600087803b158015610cf157600080fd5b505af1158015610d05573d6000803e3d6000fd5b505050506000600480549050905060006040518061014001604052808381526020018673ffffffffffffffffffffffffffffffffffffffff168152602001858152602001848152602001610d5761241c565b73ffffffffffffffffffffffffffffffffffffffff168152602001600073ffffffffffffffffffffffffffffffffffffffff16815260200160016005811115610da357610da26128d0565b5b815260200142815260200160001515815260200160001515815250905060048190806001815401808255809150506001900390600052602060002090600802016000909190919091506000820151816000015560208201518160010160006101000a81548173ffffffffffffffffffffffffffffffffffffffff021916908373ffffffffffffffffffffffffffffffffffffffff160217905550604082015181600201556060820151816003015560808201518160040160006101000a81548173ffffffffffffffffffffffffffffffffffffffff021916908373ffffffffffffffffffffffffffffffffffffffff16021790555060a08201518160050160006101000a81548173ffffffffffffffffffffffffffffffffffffffff021916908373ffffffffffffffffffffffffffffffffffffffff16021790555060c08201518160050160146101000a81548160ff02191690836005811115610f0a57610f096128d0565b5b021790555060e082015181600601556101008201518160070160006101000a81548160ff0219169083151502179055506101208201518160070160016101000a81548160ff021916908315150217905550505060056000610f6961241c565b73ffffffffffffffffffffffffffffffffffffffff1673ffffffffffffffffffffffffffffffffffffffff168152602001908152602001600020829080600181540180825580915050600190039060005260206000200160009091909190915055610fd261241c565b73ffffffffffffffffffffffffffffffffffffffff1684837fa9d7c8e498bf8ccc30c31bdcfa3cac6b79cedaf0dc37bf636f7f092be9ff7d4c88874260405161101d9392919061335c565b60405180910390a45050505050565b6060600560008373ffffffffffffffffffffffffffffffffffffffff1673ffffffffffffffffffffffffffffffffffffffff1681526020019081526020016000208054806020026020016040519081016040528092919081815260200182805480156110b757602002820191906000526020600020905b8154815260200190600101908083116110a3575b50505050509050919050565b60008060009054906101000a900473ffffffffffffffffffffffffffffffffffffffff16905090565b606060008383905067ffffffffffffffff81111561110d5761110c613393565b5b60405190808252806020026020018201604052801561114657816020015b611133612424565b81526020019060019003908161112b5790505b50905060005b848490508110156113bf5760005b6004805490508110156113ab5785858381811061117a57611179612dba565b5b905060200201356004828154811061119557611194612dba565b5b9060005260206000209060080201600001540361139857600481815481106111c0576111bf612dba565b5b906000526020600020906008020160405180610140016040529081600082015481526020016001820160009054906101000a900473ffffffffffffffffffffffffffffffffffffffff1673ffffffffffffffffffffffffffffffffffffffff1673ffffffffffffffffffffffffffffffffffffffff16815260200160028201548152602001600382015481526020016004820160009054906101000a900473ffffffffffffffffffffffffffffffffffffffff1673ffffffffffffffffffffffffffffffffffffffff1673ffffffffffffffffffffffffffffffffffffffff1681526020016005820160009054906101000a900473ffffffffffffffffffffffffffffffffffffffff1673ffffffffffffffffffffffffffffffffffffffff1673ffffffffffffffffffffffffffffffffffffffff1681526020016005820160149054906101000a900460ff16600581111561131f5761131e6128d0565b5b6005811115611331576113306128d0565b5b8152602001600682015481526020016007820160009054906101000a900460ff161515151581526020016007820160019054906101000a900460ff16151515158152505083838151811061138857611387612dba565b5b60200260200101819052506113ab565b80806113a3906133c2565b91505061115a565b5080806113b7906133c2565b91505061114c565b508091505092915050565b60006113d5826120d8565b9050806080015173ffffffffffffffffffffffffffffffffffffffff166113fa61241c565b73ffffffffffffffffffffffffffffffffffffffff16148061145257508060a0015173ffffffffffffffffffffffffffffffffffffffff1661143a61241c565b73ffffffffffffffffffffffffffffffffffffffff16145b611491576040517f08c379a00000000000000000000000000000000000000000000000000000000081526004016114889061347c565b60405180910390fd5b600160058111156114a5576114a46128d0565b5b8160c0015160058111156114bc576114bb6128d0565b5b1480156114ff57506114cc61241c565b73ffffffffffffffffffffffffffffffffffffffff16816080015173ffffffffffffffffffffffffffffffffffffffff16145b156115b857806020015173ffffffffffffffffffffffffffffffffffffffff166323b872dd3061152d61241c565b84604001516040518463ffffffff1660e01b815260040161155093929190613325565b600060405180830381600087803b15801561156a57600080fd5b505af115801561157e573d6000803e3d6000fd5b5050505060048160c00190600581111561159b5761159a6128d0565b5b908160058111156115af576115ae6128d0565b5b815250506118e0565b600260058111156115cc576115cb6128d0565b5b8160c0015160058111156115e3576115e26128d0565b5b036118a45760006115f261241c565b73ffffffffffffffffffffffffffffffffffffffff16826080015173ffffffffffffffffffffffffffffffffffffffff16149050600061163061241c565b73ffffffffffffffffffffffffffffffffffffffff168360a0015173ffffffffffffffffffffffffffffffffffffffff1614905081156116c357826101000151156116b0576040517f08c379a00000000000000000000000000000000000000000000000000000000081526004016116a79061350e565b60405180910390fd5b6001836101000190151590811515815250505b8015611722578261012001511561170f576040517f08c379a0000000000000000000000000000000000000000000000000000000008152600401611706906135a0565b60405180910390fd5b6001836101200190151590811515815250505b826101000151801561173657508261012001515b1561189d57826020015173ffffffffffffffffffffffffffffffffffffffff166323b872dd30856080015186604001516040518463ffffffff1660e01b815260040161178493929190612fb2565b600060405180830381600087803b15801561179e57600080fd5b505af11580156117b2573d6000803e3d6000fd5b5050505060008360a0015173ffffffffffffffffffffffffffffffffffffffff1684606001516040516117e49061311f565b60006040518083038185875af1925050503d8060008114611821576040519150601f19603f3d011682016040523d82523d6000602084013e611826565b606091505b505090508061186a576040517f08c379a00000000000000000000000000000000000000000000000000000000081526004016118619061360c565b60405180910390fd5b60048460c001906005811115611883576118826128d0565b5b90816005811115611897576118966128d0565b5b81525050505b50506118df565b6040517f08c379a00000000000000000000000000000000000000000000000000000000081526004016118d690613678565b60405180910390fd5b5b8060048260000151815481106118f9576118f8612dba565b5b90600052602060002090600802016000820151816000015560208201518160010160006101000a81548173ffffffffffffffffffffffffffffffffffffffff021916908373ffffffffffffffffffffffffffffffffffffffff160217905550604082015181600201556060820151816003015560808201518160040160006101000a81548173ffffffffffffffffffffffffffffffffffffffff021916908373ffffffffffffffffffffffffffffffffffffffff16021790555060a08201518160050160006101000a81548173ffffffffffffffffffffffffffffffffffffffff021916908373ffffffffffffffffffffffffffffffffffffffff16021790555060c08201518160050160146101000a81548160ff02191690836005811115611a2557611a246128d0565b5b021790555060e082015181600601556101008201518160070160006101000a81548160ff0219169083151502179055506101208201518160070160016101000a81548160ff0219169083151502179055509050507f87362ca8fed8c23f9ce7c65863d119297171e301ed7dd0596c634354cf28079f816000015142604051611aae929190613698565b60405180910390a15050565b60048181548110611aca57600080fd5b90600052602060002090600802016000915090508060000154908060010160009054906101000a900473ffffffffffffffffffffffffffffffffffffffff16908060020154908060030154908060040160009054906101000a900473ffffffffffffffffffffffffffffffffffffffff16908060050160009054906101000a900473ffffffffffffffffffffffffffffffffffffffff16908060050160149054906101000a900460ff16908060060154908060070160009054906101000a900460ff16908060070160019054906101000a900460ff1690508a565b6060600360009054906101000a900473ffffffffffffffffffffffffffffffffffffffff1673ffffffffffffffffffffffffffffffffffffffff16631a9fcb946040518163ffffffff1660e01b8152600401600060405180830381865afa158015611c14573d6000803e3d6000fd5b505050506040513d6000823e3d601f19601f82011682018060405250810190611c3d91906137e1565b905090565b6000611c4d826120d8565b90508060600151341015611c96576040517f08c379a0000000000000000000000000000000000000000000000000000000008152600401611c8d90613876565b60405180910390fd5b60016005811115611caa57611ca96128d0565b5b8160c001516005811115611cc157611cc06128d0565b5b14611d01576040517f08c379a0000000000000000000000000000000000000000000000000000000008152600401611cf8906138e2565b60405180910390fd5b338160a0019073ffffffffffffffffffffffffffffffffffffffff16908173ffffffffffffffffffffffffffffffffffffffff168152505060028160c001906005811115611d5257611d516128d0565b5b90816005811115611d6657611d656128d0565b5b81525050806004826000015181548110611d8357611d82612dba565b5b90600052602060002090600802016000820151816000015560208201518160010160006101000a81548173ffffffffffffffffffffffffffffffffffffffff021916908373ffffffffffffffffffffffffffffffffffffffff160217905550604082015181600201556060820151816003015560808201518160040160006101000a81548173ffffffffffffffffffffffffffffffffffffffff021916908373ffffffffffffffffffffffffffffffffffffffff16021790555060a08201518160050160006101000a81548173ffffffffffffffffffffffffffffffffffffffff021916908373ffffffffffffffffffffffffffffffffffffffff16021790555060c08201518160050160146101000a81548160ff02191690836005811115611eaf57611eae6128d0565b5b021790555060e082015181600601556101008201518160070160006101000a81548160ff0219169083151502179055506101208201518160070160016101000a81548160ff02191690831515021790555090505060066000611f0f61241c565b73ffffffffffffffffffffffffffffffffffffffff1673ffffffffffffffffffffffffffffffffffffffff168152602001908152602001600020816000015190806001815401808255809150506001900390600052602060002001600090919091909150553373ffffffffffffffffffffffffffffffffffffffff1681600001517f25cea44d301c940e93e43455c77efc0ca04d2983228d031dfc78e3c4ba7c230442604051611fbf919061273c565b60405180910390a35050565b611fd3612051565b600073ffffffffffffffffffffffffffffffffffffffff168173ffffffffffffffffffffffffffffffffffffffff16036120455760006040517f1e4fbdf700000000000000000000000000000000000000000000000000000000815260040161203c91906127b9565b60405180910390fd5b61204e81612358565b50565b61205961241c565b73ffffffffffffffffffffffffffffffffffffffff166120776110c3565b73ffffffffffffffffffffffffffffffffffffffff16146120d65761209a61241c565b6040517f118cdaa70000000000000000000000000000000000000000000000000000000081526004016120cd91906127b9565b60405180910390fd5b565b6120e0612424565b6004805490508210612127576040517f08c379a000000000000000000000000000000000000000000000000000000000815260040161211e9061394e565b60405180910390fd5b61212f612424565b60005b60048054905081101561234e57836004828154811061215457612153612dba565b5b9060005260206000209060080201600001540361233b576004818154811061217f5761217e612dba565b5b906000526020600020906008020160405180610140016040529081600082015481526020016001820160009054906101000a900473ffffffffffffffffffffffffffffffffffffffff1673ffffffffffffffffffffffffffffffffffffffff1673ffffffffffffffffffffffffffffffffffffffff16815260200160028201548152602001600382015481526020016004820160009054906101000a900473ffffffffffffffffffffffffffffffffffffffff1673ffffffffffffffffffffffffffffffffffffffff1673ffffffffffffffffffffffffffffffffffffffff1681526020016005820160009054906101000a900473ffffffffffffffffffffffffffffffffffffffff1673ffffffffffffffffffffffffffffffffffffffff1673ffffffffffffffffffffffffffffffffffffffff1681526020016005820160149054906101000a900460ff1660058111156122de576122dd6128d0565b5b60058111156122f0576122ef6128d0565b5b8152602001600682015481526020016007820160009054906101000a900460ff161515151581526020016007820160019054906101000a900460ff161515151581525050915061234e565b8080612346906133c2565b915050612132565b5080915050919050565b60008060009054906101000a900473ffffffffffffffffffffffffffffffffffffffff169050816000806101000a81548173ffffffffffffffffffffffffffffffffffffffff021916908373ffffffffffffffffffffffffffffffffffffffff1602179055508173ffffffffffffffffffffffffffffffffffffffff168173ffffffffffffffffffffffffffffffffffffffff167f8be0079c531659141344cd1fd0a4f28419497f9722a3daafe3b4186f6b6457e060405160405180910390a35050565b600033905090565b60405180610140016040528060008152602001600073ffffffffffffffffffffffffffffffffffffffff1681526020016000815260200160008152602001600073ffffffffffffffffffffffffffffffffffffffff168152602001600073ffffffffffffffffffffffffffffffffffffffff168152602001600060058111156124b0576124af6128d0565b5b8152602001600081526020016000151581526020016000151581525090565b6000604051905090565b600080fd5b600080fd5b600073ffffffffffffffffffffffffffffffffffffffff82169050919050565b600061250e826124e3565b9050919050565b61251e81612503565b811461252957600080fd5b50565b60008135905061253b81612515565b92915050565b600060208284031215612557576125566124d9565b5b60006125658482850161252c565b91505092915050565b600081519050919050565b600082825260208201905092915050565b6000819050602082019050919050565b6000819050919050565b6125ad8161259a565b82525050565b60006125bf83836125a4565b60208301905092915050565b6000602082019050919050565b60006125e38261256e565b6125ed8185612579565b93506125f88361258a565b8060005b8381101561262957815161261088826125b3565b975061261b836125cb565b9250506001810190506125fc565b5085935050505092915050565b6000602082019050818103600083015261265081846125d8565b905092915050565b6126618161259a565b811461266c57600080fd5b50565b60008135905061267e81612658565b92915050565b6000806040838503121561269b5761269a6124d9565b5b60006126a98582860161266f565b92505060206126ba8582860161266f565b9150509250929050565b6000602082840312156126da576126d96124d9565b5b60006126e88482850161266f565b91505092915050565b60006126fc826124e3565b9050919050565b61270c816126f1565b82525050565b60006020820190506127276000830184612703565b92915050565b6127368161259a565b82525050565b6000602082019050612751600083018461272d565b92915050565b6000806000606084860312156127705761276f6124d9565b5b600061277e8682870161252c565b935050602061278f8682870161266f565b92505060406127a08682870161266f565b9150509250925092565b6127b381612503565b82525050565b60006020820190506127ce60008301846127aa565b92915050565b600080fd5b600080fd5b600080fd5b60008083601f8401126127f9576127f86127d4565b5b8235905067ffffffffffffffff811115612816576128156127d9565b5b602083019150836020820283011115612832576128316127de565b5b9250929050565b600080602083850312156128505761284f6124d9565b5b600083013567ffffffffffffffff81111561286e5761286d6124de565b5b61287a858286016127e3565b92509250509250929050565b600081519050919050565b600082825260208201905092915050565b6000819050602082019050919050565b6128bb81612503565b82525050565b6128ca816126f1565b82525050565b7f4e487b7100000000000000000000000000000000000000000000000000000000600052602160045260246000fd5b600681106129105761290f6128d0565b5b50565b6000819050612921826128ff565b919050565b600061293182612913565b9050919050565b61294181612926565b82525050565b60008115159050919050565b61295c81612947565b82525050565b6101408201600082015161297960008501826125a4565b50602082015161298c60208501826128b2565b50604082015161299f60408501826125a4565b5060608201516129b260608501826125a4565b5060808201516129c560808501826128c1565b5060a08201516129d860a08501826128c1565b5060c08201516129eb60c0850182612938565b5060e08201516129fe60e08501826125a4565b50610100820151612a13610100850182612953565b50610120820151612a28610120850182612953565b50505050565b6000612a3a8383612962565b6101408301905092915050565b6000602082019050919050565b6000612a5f82612886565b612a698185612891565b9350612a74836128a2565b8060005b83811015612aa5578151612a8c8882612a2e565b9750612a9783612a47565b925050600181019050612a78565b5085935050505092915050565b60006020820190508181036000830152612acc8184612a54565b905092915050565b612add81612926565b82525050565b612aec81612947565b82525050565b600061014082019050612b08600083018d61272d565b612b15602083018c6127aa565b612b22604083018b61272d565b612b2f606083018a61272d565b612b3c6080830189612703565b612b4960a0830188612703565b612b5660c0830187612ad4565b612b6360e083018661272d565b612b71610100830185612ae3565b612b7f610120830184612ae3565b9b9a5050505050505050505050565b600081519050919050565b600082825260208201905092915050565b6000819050602082019050919050565b6000612bc683836128b2565b60208301905092915050565b6000602082019050919050565b6000612bea82612b8e565b612bf48185612b99565b9350612bff83612baa565b8060005b83811015612c30578151612c178882612bba565b9750612c2283612bd2565b925050600181019050612c03565b5085935050505092915050565b60006020820190508181036000830152612c578184612bdf565b905092915050565b600082825260208201905092915050565b7f436f6c6c656374696f6e20776173206e6f74207265636f676e697a65642c206960008201527f74206973206e6f7420706f737369626c6520746f20657363726f7720616e206960208201527f74656d0000000000000000000000000000000000000000000000000000000000604082015250565b6000612cf2604383612c5f565b9150612cfd82612c70565b606082019050919050565b60006020820190508181036000830152612d2181612ce5565b9050919050565b7f5072696365206f6620746865206974656d206d7573742062652073706563696660008201527f6965640000000000000000000000000000000000000000000000000000000000602082015250565b6000612d84602383612c5f565b9150612d8f82612d28565b604082019050919050565b60006020820190508181036000830152612db381612d77565b9050919050565b7f4e487b7100000000000000000000000000000000000000000000000000000000600052603260045260246000fd5b7f50657263656e74616765206f6620666565732063616e6e6f742065786365656460008201527f2033302500000000000000000000000000000000000000000000000000000000602082015250565b6000612e45602483612c5f565b9150612e5082612de9565b604082019050919050565b60006020820190508181036000830152612e7481612e38565b9050919050565b7f596f7520617265206e6f7420746865206974656d206275796572000000000000600082015250565b6000612eb1601a83612c5f565b9150612ebc82612e7b565b602082019050919050565b60006020820190508181036000830152612ee081612ea4565b9050919050565b7f4974656d20686173206e6f74206265656e207265707572636861736564000000600082015250565b6000612f1d601d83612c5f565b9150612f2882612ee7565b602082019050919050565b60006020820190508181036000830152612f4c81612f10565b9050919050565b6000819050919050565b6000612f78612f73612f6e846124e3565b612f53565b6124e3565b9050919050565b6000612f8a82612f5d565b9050919050565b6000612f9c82612f7f565b9050919050565b612fac81612f91565b82525050565b6000606082019050612fc760008301866127aa565b612fd46020830185612fa3565b612fe1604083018461272d565b949350505050565b7f4e487b7100000000000000000000000000000000000000000000000000000000600052601160045260246000fd5b60006130238261259a565b915061302e8361259a565b925082820261303c8161259a565b9150828204841483151761305357613052612fe9565b5b5092915050565b7f4e487b7100000000000000000000000000000000000000000000000000000000600052601260045260246000fd5b60006130948261259a565b915061309f8361259a565b9250826130af576130ae61305a565b5b828204905092915050565b60006130c58261259a565b91506130d08361259a565b92508282039050818111156130e8576130e7612fe9565b5b92915050565b600081905092915050565b50565b60006131096000836130ee565b9150613114826130f9565b600082019050919050565b600061312a826130fc565b9150819050919050565b7f4661696c656420746f2073656e642066756e647320746f2073656c6c65720000600082015250565b600061316a601e83612c5f565b915061317582613134565b602082019050919050565b600060208201905081810360008301526131998161315d565b9050919050565b7f576974686472617720646964206e6f7420776f726b0000000000000000000000600082015250565b60006131d6601583612c5f565b91506131e1826131a0565b602082019050919050565b60006020820190508181036000830152613205816131c9565b9050919050565b6000608082019050613221600083018761272d565b61322e602083018661272d565b61323b604083018561272d565b613248606083018461272d565b95945050505050565b60008151905061326081612515565b92915050565b60006020828403121561327c5761327b6124d9565b5b600061328a84828501613251565b91505092915050565b7f596f7520617265206e6f7420746865206f776e6572206f662074686973204e4660008201527f5400000000000000000000000000000000000000000000000000000000000000602082015250565b60006132ef602183612c5f565b91506132fa82613293565b604082019050919050565b6000602082019050818103600083015261331e816132e2565b9050919050565b600060608201905061333a60008301866127aa565b61334760208301856127aa565b613354604083018461272d565b949350505050565b600060608201905061337160008301866127aa565b61337e602083018561272d565b61338b604083018461272d565b949350505050565b7f4e487b7100000000000000000000000000000000000000000000000000000000600052604160045260246000fd5b60006133cd8261259a565b91507fffffffffffffffffffffffffffffffffffffffffffffffffffffffffffffffff82036133ff576133fe612fe9565b5b600182019050919050565b7f4d7573742062652061206275796572206f722073656c6c6572206f662074686560008201527f206974656d000000000000000000000000000000000000000000000000000000602082015250565b6000613466602583612c5f565b91506134718261340a565b604082019050919050565b6000602082019050818103600083015261349581613459565b9050919050565b7f53656c6c657220616c7265616479207265717565737465642063616e63656c6c60008201527f6174696f6e000000000000000000000000000000000000000000000000000000602082015250565b60006134f8602583612c5f565b91506135038261349c565b604082019050919050565b60006020820190508181036000830152613527816134eb565b9050919050565b7f427579657220616c7265616479207265717565737465642063616e63656c6c6160008201527f74696f6e00000000000000000000000000000000000000000000000000000000602082015250565b600061358a602483612c5f565b91506135958261352e565b604082019050919050565b600060208201905081810360008301526135b98161357d565b9050919050565b7f556e61626c6520746f20726566756e642066756e647320746f20627579657200600082015250565b60006135f6601f83612c5f565b9150613601826135c0565b602082019050919050565b60006020820190508181036000830152613625816135e9565b9050919050565b7f556e61626c6520746f2063616e63656c2073616c650000000000000000000000600082015250565b6000613662601583612c5f565b915061366d8261362c565b602082019050919050565b6000602082019050818103600083015261369181613655565b9050919050565b60006040820190506136ad600083018561272d565b6136ba602083018461272d565b9392505050565b6000601f19601f8301169050919050565b6136db826136c1565b810181811067ffffffffffffffff821117156136fa576136f9613393565b5b80604052505050565b600061370d6124cf565b905061371982826136d2565b919050565b600067ffffffffffffffff82111561373957613738613393565b5b602082029050602081019050919050565b600061375d6137588461371e565b613703565b905080838252602082019050602084028301858111156137805761377f6127de565b5b835b818110156137a957806137958882613251565b845260208401935050602081019050613782565b5050509392505050565b600082601f8301126137c8576137c76127d4565b5b81516137d884826020860161374a565b91505092915050565b6000602082840312156137f7576137f66124d9565b5b600082015167ffffffffffffffff811115613815576138146124de565b5b613821848285016137b3565b91505092915050565b7f4e6f7420656e6f7567682066756e64732070726f766964656400000000000000600082015250565b6000613860601983612c5f565b915061386b8261382a565b602082019050919050565b6000602082019050818103600083015261388f81613853565b9050919050565b7f4974656d206e6f7420657363726f776564000000000000000000000000000000600082015250565b60006138cc601183612c5f565b91506138d782613896565b602082019050919050565b600060208201905081810360008301526138fb816138bf565b9050919050565b7f4974656d20646f6573206e6f7420657869737400000000000000000000000000600082015250565b6000613938601383612c5f565b915061394382613902565b602082019050919050565b600060208201905081810360008301526139678161392b565b905091905056fea2646970667358221220a84995f0078ad7ba4b7b6b581adf0f78ed8e9da6f05c50f5e70c5b858db9c0ab64736f6c63430008140033",
  "linkReferences": {},
  "deployedLinkReferences": {}
}