{
  "_format": "hh-sol-artifact-1",
  "contractName": "NWMain",
  "sourceName": "contracts/v1/NWMain.sol",
  "abi": [
    {
      "inputs": [
        {
          "internalType": "uint256",
          "name": "_feePercent",
          "type": "uint256"
        }
      ],
      "stateMutability": "nonpayable",
      "type": "constructor"
    },
    {
      "inputs": [],
      "name": "ReentrancyGuardReentrantCall",
      "type": "error"
    },
    {
      "anonymous": false,
      "inputs": [
        {
          "indexed": false,
          "internalType": "uint256",
          "name": "itemId",
          "type": "uint256"
        },
        {
          "indexed": true,
          "internalType": "address",
          "name": "collection",
          "type": "address"
        },
        {
          "indexed": false,
          "internalType": "uint256",
          "name": "tokenId",
          "type": "uint256"
        },
        {
          "indexed": false,
          "internalType": "uint256",
          "name": "price",
          "type": "uint256"
        },
        {
          "indexed": true,
          "internalType": "address",
          "name": "seller",
          "type": "address"
        },
        {
          "indexed": true,
          "internalType": "address",
          "name": "buyer",
          "type": "address"
        }
      ],
      "name": "ItemExchanged",
      "type": "event"
    },
    {
      "anonymous": false,
      "inputs": [
        {
          "indexed": false,
          "internalType": "uint256",
          "name": "itemId",
          "type": "uint256"
        },
        {
          "indexed": true,
          "internalType": "address",
          "name": "collection",
          "type": "address"
        },
        {
          "indexed": false,
          "internalType": "uint256",
          "name": "tokenId",
          "type": "uint256"
        },
        {
          "indexed": false,
          "internalType": "uint256",
          "name": "price",
          "type": "uint256"
        },
        {
          "indexed": true,
          "internalType": "address",
          "name": "seller",
          "type": "address"
        }
      ],
      "name": "Listed",
      "type": "event"
    },
    {
      "anonymous": false,
      "inputs": [
        {
          "indexed": false,
          "internalType": "string",
          "name": "_collectionName",
          "type": "string"
        },
        {
          "indexed": false,
          "internalType": "address",
          "name": "_collectionAddress",
          "type": "address"
        },
        {
          "indexed": false,
          "internalType": "string",
          "name": "_collectionURI",
          "type": "string"
        },
        {
          "indexed": false,
          "internalType": "uint256",
          "name": "_timestamp",
          "type": "uint256"
        }
      ],
      "name": "NFTCollectionCreated",
      "type": "event"
    },
    {
      "inputs": [
        {
          "internalType": "uint256",
          "name": "",
          "type": "uint256"
        }
      ],
      "name": "collectionCreated",
      "outputs": [
        {
          "internalType": "address",
          "name": "",
          "type": "address"
        }
      ],
      "stateMutability": "view",
      "type": "function"
    },
    {
      "inputs": [
        {
          "internalType": "string",
          "name": "_collectionName",
          "type": "string"
        },
        {
          "internalType": "string",
          "name": "_collectionSymbol",
          "type": "string"
        },
        {
          "internalType": "string",
          "name": "_collectionURI",
          "type": "string"
        }
      ],
      "name": "createNFTCollection",
      "outputs": [
        {
          "internalType": "address",
          "name": "collectionAddress",
          "type": "address"
        }
      ],
      "stateMutability": "nonpayable",
      "type": "function"
    },
    {
      "inputs": [],
      "name": "feeAccount",
      "outputs": [
        {
          "internalType": "address payable",
          "name": "",
          "type": "address"
        }
      ],
      "stateMutability": "view",
      "type": "function"
    },
    {
      "inputs": [],
      "name": "feePercent",
      "outputs": [
        {
          "internalType": "uint256",
          "name": "",
          "type": "uint256"
        }
      ],
      "stateMutability": "view",
      "type": "function"
    },
    {
      "inputs": [
        {
          "internalType": "uint256",
          "name": "_itemId",
          "type": "uint256"
        }
      ],
      "name": "getTotalPrice",
      "outputs": [
        {
          "internalType": "uint256",
          "name": "",
          "type": "uint256"
        }
      ],
      "stateMutability": "view",
      "type": "function"
    },
    {
      "inputs": [],
      "name": "itemCount",
      "outputs": [
        {
          "internalType": "uint256",
          "name": "",
          "type": "uint256"
        }
      ],
      "stateMutability": "view",
      "type": "function"
    },
    {
      "inputs": [
        {
          "internalType": "uint256",
          "name": "",
          "type": "uint256"
        }
      ],
      "name": "items",
      "outputs": [
        {
          "internalType": "uint256",
          "name": "itemId",
          "type": "uint256"
        },
        {
          "internalType": "contract IERC721",
          "name": "collection",
          "type": "address"
        },
        {
          "internalType": "uint256",
          "name": "tokenId",
          "type": "uint256"
        },
        {
          "internalType": "uint256",
          "name": "price",
          "type": "uint256"
        },
        {
          "internalType": "address payable",
          "name": "seller",
          "type": "address"
        },
        {
          "internalType": "bool",
          "name": "exchanged",
          "type": "bool"
        }
      ],
      "stateMutability": "view",
      "type": "function"
    },
    {
      "inputs": [
        {
          "internalType": "contract IERC721",
          "name": "_collection",
          "type": "address"
        },
        {
          "internalType": "uint256",
          "name": "_tokenId",
          "type": "uint256"
        },
        {
          "internalType": "uint256",
          "name": "_price",
          "type": "uint256"
        }
      ],
      "name": "makeItem",
      "outputs": [],
      "stateMutability": "nonpayable",
      "type": "function"
    },
    {
      "inputs": [],
      "name": "mint",
      "outputs": [],
      "stateMutability": "nonpayable",
      "type": "function"
    },
    {
      "inputs": [
        {
          "internalType": "address",
          "name": "collectionAddress",
          "type": "address"
        }
      ],
      "name": "mint",
      "outputs": [],
      "stateMutability": "nonpayable",
      "type": "function"
    },
    {
      "inputs": [
        {
          "internalType": "uint256",
          "name": "_itemId",
          "type": "uint256"
        }
      ],
      "name": "purchaseItem",
      "outputs": [],
      "stateMutability": "payable",
      "type": "function"
    }
  ],
  "bytecode": "0x60c06040523480156200001157600080fd5b5060405162005012380380620050128339818101604052810190620000379190620000c2565b60016000819055503373ffffffffffffffffffffffffffffffffffffffff1660808173ffffffffffffffffffffffffffffffffffffffff16815250508060a0818152505050620000f4565b600080fd5b6000819050919050565b6200009c8162000087565b8114620000a857600080fd5b50565b600081519050620000bc8162000091565b92915050565b600060208284031215620000db57620000da62000082565b5b6000620000eb84828501620000ab565b91505092915050565b60805160a051614eea62000128600039600081816104d201526107200152600081816103f001526109150152614eea6000f3fe608060405260043610620000aa5760003560e01c80637fd6f15c116200006d5780637fd6f15c146200019b578063844af65814620001cb578063bfb231d2146200020f578063ca7dd3751462000258578063d38ea5bf146200029c578063fa00afc714620002bc57620000aa565b80631249c58b14620000af57806365e17c9d14620000c95780636a62784214620000f95780636bfb0d0114620001275780636de4e68c1462000157575b600080fd5b348015620000bc57600080fd5b50620000c7620002ea565b005b348015620000d657600080fd5b50620000e1620003ee565b604051620000f0919062000e64565b60405180910390f35b3480156200010657600080fd5b506200012560048036038101906200011f919062000ed0565b62000412565b005b3480156200013457600080fd5b506200013f6200048a565b6040516200014e919062000f1d565b60405180910390f35b3480156200016457600080fd5b506200018360048036038101906200017d919062000f6b565b62000490565b60405162000192919062000fae565b60405180910390f35b348015620001a857600080fd5b50620001b3620004d0565b604051620001c2919062000f1d565b60405180910390f35b348015620001d857600080fd5b50620001f76004803603810190620001f1919062001039565b620004f4565b60405162000206919062000fae565b60405180910390f35b3480156200021c57600080fd5b506200023b600480360381019062000235919062000f6b565b62000691565b6040516200024f9695949392919062001187565b60405180910390f35b3480156200026557600080fd5b506200028460048036038101906200027e919062000f6b565b6200071a565b60405162000293919062000f1d565b60405180910390f35b620002ba6004803603810190620002b4919062000f6b565b62000783565b005b348015620002c957600080fd5b50620002e86004803603810190620002e2919062001239565b62000b25565b005b60006001805490501162000335576040517f08c379a00000000000000000000000000000000000000000000000000000000081526004016200032c90620012f6565b60405180910390fd5b600060016000815481106200034f576200034e62001318565b5b9060005260206000200160009054906101000a900473ffffffffffffffffffffffffffffffffffffffff1690508073ffffffffffffffffffffffffffffffffffffffff166340d097c3336040518263ffffffff1660e01b8152600401620003b7919062000fae565b600060405180830381600087803b158015620003d257600080fd5b505af1158015620003e7573d6000803e3d6000fd5b5050505050565b7f000000000000000000000000000000000000000000000000000000000000000081565b60008190508073ffffffffffffffffffffffffffffffffffffffff166340d097c3336040518263ffffffff1660e01b815260040162000452919062000fae565b600060405180830381600087803b1580156200046d57600080fd5b505af115801562000482573d6000803e3d6000fd5b505050505050565b60025481565b60018181548110620004a157600080fd5b906000526020600020016000915054906101000a900473ffffffffffffffffffffffffffffffffffffffff1681565b7f000000000000000000000000000000000000000000000000000000000000000081565b60008060405180602001620005099062000e11565b6020820181038252601f19601f82011660405250905060008484604051602001620005369291906200138a565b604051602081830303815290604052805190602001209050808251602084016000f59250823b6200056657600080fd5b8273ffffffffffffffffffffffffffffffffffffffff16637fadcae18a8a8a8a8a8a6040518763ffffffff1660e01b8152600401620005ab96959493929190620013e9565b600060405180830381600087803b158015620005c657600080fd5b505af1158015620005db573d6000803e3d6000fd5b505050506001839080600181540180825580915050600190039060005260206000200160009091909190916101000a81548173ffffffffffffffffffffffffffffffffffffffff021916908373ffffffffffffffffffffffffffffffffffffffff1602179055507f7a1feb7700e25e91a9d37ecdea31fa5b625ce0e395430d1fe9a28c8aeaa03a4d8989858888426040516200067d9695949392919062001441565b60405180910390a150509695505050505050565b60036020528060005260406000206000915090508060000154908060010160009054906101000a900473ffffffffffffffffffffffffffffffffffffffff16908060020154908060030154908060040160009054906101000a900473ffffffffffffffffffffffffffffffffffffffff16908060040160149054906101000a900460ff16905086565b600060647f000000000000000000000000000000000000000000000000000000000000000060646200074d9190620014cf565b60036000858152602001908152602001600020600301546200077091906200150a565b6200077c919062001584565b9050919050565b6200078d62000dc0565b600081118015620007a057506002548111155b620007e2576040517f08c379a0000000000000000000000000000000000000000000000000000000008152600401620007d9906200160c565b60405180910390fd5b60006003600083815260200190815260200160002090508060040160149054906101000a900460ff16156200084e576040517f08c379a000000000000000000000000000000000000000000000000000000000815260040162000845906200167e565b60405180910390fd5b60006200085b836200071a565b905080341015620008a3576040517f08c379a00000000000000000000000000000000000000000000000000000000081526004016200089a9062001716565b60405180910390fd5b8160040160009054906101000a900473ffffffffffffffffffffffffffffffffffffffff1673ffffffffffffffffffffffffffffffffffffffff166108fc83600301549081150290604051600060405180830381858888f1935050505015801562000912573d6000803e3d6000fd5b507f000000000000000000000000000000000000000000000000000000000000000073ffffffffffffffffffffffffffffffffffffffff166108fc8360030154836200095f919062001738565b9081150290604051600060405180830381858888f193505050501580156200098b573d6000803e3d6000fd5b5060018260040160146101000a81548160ff0219169083151502179055508160010160009054906101000a900473ffffffffffffffffffffffffffffffffffffffff1673ffffffffffffffffffffffffffffffffffffffff166323b872dd303385600201546040518463ffffffff1660e01b815260040162000a109392919062001773565b600060405180830381600087803b15801562000a2b57600080fd5b505af115801562000a40573d6000803e3d6000fd5b505050503373ffffffffffffffffffffffffffffffffffffffff168260040160009054906101000a900473ffffffffffffffffffffffffffffffffffffffff1673ffffffffffffffffffffffffffffffffffffffff168360010160009054906101000a900473ffffffffffffffffffffffffffffffffffffffff1673ffffffffffffffffffffffffffffffffffffffff167fedda79899937bed109140907d76f876d8dd425b179f237dcf015e5b7285e8af8868660020154876003015460405162000b0e93929190620017b0565b60405180910390a4505062000b2262000e07565b50565b62000b2f62000dc0565b6000811162000b75576040517f08c379a000000000000000000000000000000000000000000000000000000000815260040162000b6c906200183d565b60405180910390fd5b6002600081548092919062000b8a906200185f565b91905055508273ffffffffffffffffffffffffffffffffffffffff166323b872dd3330856040518463ffffffff1660e01b815260040162000bce9392919062001773565b600060405180830381600087803b15801562000be957600080fd5b505af115801562000bfe573d6000803e3d6000fd5b505050506040518060c0016040528060025481526020018473ffffffffffffffffffffffffffffffffffffffff1681526020018381526020018281526020013373ffffffffffffffffffffffffffffffffffffffff168152602001600015158152506003600060025481526020019081526020016000206000820151816000015560208201518160010160006101000a81548173ffffffffffffffffffffffffffffffffffffffff021916908373ffffffffffffffffffffffffffffffffffffffff160217905550604082015181600201556060820151816003015560808201518160040160006101000a81548173ffffffffffffffffffffffffffffffffffffffff021916908373ffffffffffffffffffffffffffffffffffffffff16021790555060a08201518160040160146101000a81548160ff0219169083151502179055509050503373ffffffffffffffffffffffffffffffffffffffff168373ffffffffffffffffffffffffffffffffffffffff167f0d770f67a166dfb160ca3991c3a328328d7d3899464a55a6fa63448ceda49523600254858560405162000da993929190620017b0565b60405180910390a362000dbb62000e07565b505050565b60026000540362000dfd576040517f3ee5aeb500000000000000000000000000000000000000000000000000000000815260040160405180910390fd5b6002600081905550565b6001600081905550565b61360880620018ad83390190565b600073ffffffffffffffffffffffffffffffffffffffff82169050919050565b600062000e4c8262000e1f565b9050919050565b62000e5e8162000e3f565b82525050565b600060208201905062000e7b600083018462000e53565b92915050565b600080fd5b600080fd5b600062000e988262000e1f565b9050919050565b62000eaa8162000e8b565b811462000eb657600080fd5b50565b60008135905062000eca8162000e9f565b92915050565b60006020828403121562000ee95762000ee862000e81565b5b600062000ef98482850162000eb9565b91505092915050565b6000819050919050565b62000f178162000f02565b82525050565b600060208201905062000f34600083018462000f0c565b92915050565b62000f458162000f02565b811462000f5157600080fd5b50565b60008135905062000f658162000f3a565b92915050565b60006020828403121562000f845762000f8362000e81565b5b600062000f948482850162000f54565b91505092915050565b62000fa88162000e8b565b82525050565b600060208201905062000fc5600083018462000f9d565b92915050565b600080fd5b600080fd5b600080fd5b60008083601f84011262000ff35762000ff262000fcb565b5b8235905067ffffffffffffffff81111562001013576200101262000fd0565b5b60208301915083600182028301111562001032576200103162000fd5565b5b9250929050565b6000806000806000806060878903121562001059576200105862000e81565b5b600087013567ffffffffffffffff8111156200107a576200107962000e86565b5b6200108889828a0162000fda565b9650965050602087013567ffffffffffffffff811115620010ae57620010ad62000e86565b5b620010bc89828a0162000fda565b9450945050604087013567ffffffffffffffff811115620010e257620010e162000e86565b5b620010f089828a0162000fda565b92509250509295509295509295565b6000819050919050565b60006200112a620011246200111e8462000e1f565b620010ff565b62000e1f565b9050919050565b60006200113e8262001109565b9050919050565b6000620011528262001131565b9050919050565b620011648162001145565b82525050565b60008115159050919050565b62001181816200116a565b82525050565b600060c0820190506200119e600083018962000f0c565b620011ad602083018862001159565b620011bc604083018762000f0c565b620011cb606083018662000f0c565b620011da608083018562000e53565b620011e960a083018462001176565b979650505050505050565b6000620012018262000e8b565b9050919050565b6200121381620011f4565b81146200121f57600080fd5b50565b600081359050620012338162001208565b92915050565b60008060006060848603121562001255576200125462000e81565b5b6000620012658682870162001222565b9350506020620012788682870162000f54565b92505060406200128b8682870162000f54565b9150509250925092565b600082825260208201905092915050565b7f4e6f20636f6c6c656374696f6e20686173206265656e20637265617465640000600082015250565b6000620012de601e8362001295565b9150620012eb82620012a6565b602082019050919050565b600060208201905081810360008301526200131181620012cf565b9050919050565b7f4e487b7100000000000000000000000000000000000000000000000000000000600052603260045260246000fd5b600081905092915050565b82818337600083830152505050565b60006200136f838562001347565b93506200137e83858462001352565b82840190509392505050565b60006200139982848662001361565b91508190509392505050565b6000601f19601f8301169050919050565b6000620013c4838562001295565b9350620013d383858462001352565b620013de83620013a5565b840190509392505050565b600060608201905081810360008301526200140681888a620013b6565b905081810360208301526200141d818688620013b6565b9050818103604083015262001434818486620013b6565b9050979650505050505050565b600060808201905081810360008301526200145e81888a620013b6565b90506200146f602083018762000f9d565b818103604083015262001484818587620013b6565b905062001495606083018462000f0c565b979650505050505050565b7f4e487b7100000000000000000000000000000000000000000000000000000000600052601160045260246000fd5b6000620014dc8262000f02565b9150620014e98362000f02565b9250828201905080821115620015045762001503620014a0565b5b92915050565b6000620015178262000f02565b9150620015248362000f02565b9250828202620015348162000f02565b915082820484148315176200154e576200154d620014a0565b5b5092915050565b7f4e487b7100000000000000000000000000000000000000000000000000000000600052601260045260246000fd5b6000620015918262000f02565b91506200159e8362000f02565b925082620015b157620015b062001555565b5b828204905092915050565b7f756e6b6e6f776e206974656d0000000000000000000000000000000000000000600082015250565b6000620015f4600c8362001295565b91506200160182620015bc565b602082019050919050565b600060208201905081810360008301526200162781620015e5565b9050919050565b7f6974656d20616c72656164792065786368616e67656400000000000000000000600082015250565b60006200166660168362001295565b915062001673826200162e565b602082019050919050565b60006020820190508181036000830152620016998162001657565b9050919050565b7f6e6f7420656e6f7567682066756e647320746f2070757263686173652074686560008201527f206974656d000000000000000000000000000000000000000000000000000000602082015250565b6000620016fe60258362001295565b91506200170b82620016a0565b604082019050919050565b600060208201905081810360008301526200173181620016ef565b9050919050565b6000620017458262000f02565b9150620017528362000f02565b92508282039050818111156200176d576200176c620014a0565b5b92915050565b60006060820190506200178a600083018662000f9d565b62001799602083018562000f9d565b620017a8604083018462000f0c565b949350505050565b6000606082019050620017c7600083018662000f0c565b620017d6602083018562000f0c565b620017e5604083018462000f0c565b949350505050565b7f5072696365206d7573742062652067726561746572207468616e207a65726f00600082015250565b600062001825601f8362001295565b91506200183282620017ed565b602082019050919050565b60006020820190508181036000830152620018588162001816565b9050919050565b60006200186c8262000f02565b91507fffffffffffffffffffffffffffffffffffffffffffffffffffffffffffffffff8203620018a157620018a0620014a0565b5b60018201905091905056fe60806040523480156200001157600080fd5b50336040518060200160405280600081525060405180602001604052806000815250816000908162000044919062000426565b50806001908162000056919062000426565b505050600073ffffffffffffffffffffffffffffffffffffffff168173ffffffffffffffffffffffffffffffffffffffff1603620000ce5760006040517f1e4fbdf7000000000000000000000000000000000000000000000000000000008152600401620000c5919062000552565b60405180910390fd5b620000df81620000e660201b60201c565b506200056f565b6000600a60009054906101000a900473ffffffffffffffffffffffffffffffffffffffff16905081600a60006101000a81548173ffffffffffffffffffffffffffffffffffffffff021916908373ffffffffffffffffffffffffffffffffffffffff1602179055508173ffffffffffffffffffffffffffffffffffffffff168173ffffffffffffffffffffffffffffffffffffffff167f8be0079c531659141344cd1fd0a4f28419497f9722a3daafe3b4186f6b6457e060405160405180910390a35050565b600081519050919050565b7f4e487b7100000000000000000000000000000000000000000000000000000000600052604160045260246000fd5b7f4e487b7100000000000000000000000000000000000000000000000000000000600052602260045260246000fd5b600060028204905060018216806200022e57607f821691505b602082108103620002445762000243620001e6565b5b50919050565b60008190508160005260206000209050919050565b60006020601f8301049050919050565b600082821b905092915050565b600060088302620002ae7fffffffffffffffffffffffffffffffffffffffffffffffffffffffffffffffff826200026f565b620002ba86836200026f565b95508019841693508086168417925050509392505050565b6000819050919050565b6000819050919050565b60006200030762000301620002fb84620002d2565b620002dc565b620002d2565b9050919050565b6000819050919050565b6200032383620002e6565b6200033b62000332826200030e565b8484546200027c565b825550505050565b600090565b6200035262000343565b6200035f81848462000318565b505050565b5b8181101562000387576200037b60008262000348565b60018101905062000365565b5050565b601f821115620003d657620003a0816200024a565b620003ab846200025f565b81016020851015620003bb578190505b620003d3620003ca856200025f565b83018262000364565b50505b505050565b600082821c905092915050565b6000620003fb60001984600802620003db565b1980831691505092915050565b6000620004168383620003e8565b9150826002028217905092915050565b6200043182620001ac565b67ffffffffffffffff8111156200044d576200044c620001b7565b5b62000459825462000215565b620004668282856200038b565b600060209050601f8311600181146200049e576000841562000489578287015190505b62000495858262000408565b86555062000505565b601f198416620004ae866200024a565b60005b82811015620004d857848901518255600182019150602085019450602081019050620004b1565b86831015620004f85784890151620004f4601f891682620003e8565b8355505b6001600288020188555050505b505050505050565b600073ffffffffffffffffffffffffffffffffffffffff82169050919050565b60006200053a826200050d565b9050919050565b6200054c816200052d565b82525050565b600060208201905062000569600083018462000541565b92915050565b613089806200057f6000396000f3fe6080604052600436106101355760003560e01c80636c0360eb116100ab57806395d89b411161006f57806395d89b411461042b578063a22cb46514610456578063b88d4fde1461047f578063c87b56dd146104a8578063e985e9c5146104e5578063f2fde38b1461052257610135565b80636c0360eb1461035857806370a0823114610383578063715018a6146103c05780637fadcae1146103d75780638da5cb5b1461040057610135565b806323b872dd116100fd57806323b872dd146102335780632f745c591461025c57806340d097c31461029957806342842e0e146102b55780634f6ccce7146102de5780636352211e1461031b57610135565b806301ffc9a71461013a57806306fdde0314610177578063081812fc146101a2578063095ea7b3146101df57806318160ddd14610208575b600080fd5b34801561014657600080fd5b50610161600480360381019061015c9190612223565b61054b565b60405161016e919061226b565b60405180910390f35b34801561018357600080fd5b5061018c6105c5565b6040516101999190612316565b60405180910390f35b3480156101ae57600080fd5b506101c960048036038101906101c4919061236e565b610657565b6040516101d691906123dc565b60405180910390f35b3480156101eb57600080fd5b5061020660048036038101906102019190612423565b610673565b005b34801561021457600080fd5b5061021d610689565b60405161022a9190612472565b60405180910390f35b34801561023f57600080fd5b5061025a6004803603810190610255919061248d565b610696565b005b34801561026857600080fd5b50610283600480360381019061027e9190612423565b610798565b6040516102909190612472565b60405180910390f35b6102b360048036038101906102ae91906124e0565b610841565b005b3480156102c157600080fd5b506102dc60048036038101906102d7919061248d565b6109b0565b005b3480156102ea57600080fd5b506103056004803603810190610300919061236e565b6109d0565b6040516103129190612472565b60405180910390f35b34801561032757600080fd5b50610342600480360381019061033d919061236e565b610a46565b60405161034f91906123dc565b60405180910390f35b34801561036457600080fd5b5061036d610a58565b60405161037a9190612316565b60405180910390f35b34801561038f57600080fd5b506103aa60048036038101906103a591906124e0565b610ae6565b6040516103b79190612472565b60405180910390f35b3480156103cc57600080fd5b506103d5610ba0565b005b3480156103e357600080fd5b506103fe60048036038101906103f99190612572565b610bb4565b005b34801561040c57600080fd5b50610415610bfa565b60405161042291906123dc565b60405180910390f35b34801561043757600080fd5b50610440610c24565b60405161044d9190612316565b60405180910390f35b34801561046257600080fd5b5061047d60048036038101906104789190612652565b610cb6565b005b34801561048b57600080fd5b506104a660048036038101906104a191906127c2565b610ccc565b005b3480156104b457600080fd5b506104cf60048036038101906104ca919061236e565b610cf1565b6040516104dc9190612316565b60405180910390f35b3480156104f157600080fd5b5061050c60048036038101906105079190612845565b610d5b565b604051610519919061226b565b60405180910390f35b34801561052e57600080fd5b50610549600480360381019061054491906124e0565b610def565b005b60007f780e9d63000000000000000000000000000000000000000000000000000000007bffffffffffffffffffffffffffffffffffffffffffffffffffffffff1916827bffffffffffffffffffffffffffffffffffffffffffffffffffffffff191614806105be57506105bd82610e75565b5b9050919050565b6060600080546105d4906128b4565b80601f0160208091040260200160405190810160405280929190818152602001828054610600906128b4565b801561064d5780601f106106225761010080835404028352916020019161064d565b820191906000526020600020905b81548152906001019060200180831161063057829003601f168201915b5050505050905090565b600061066282610f57565b5061066c82610fdf565b9050919050565b610685828261068061101c565b611024565b5050565b6000600880549050905090565b600073ffffffffffffffffffffffffffffffffffffffff168273ffffffffffffffffffffffffffffffffffffffff16036107085760006040517f64a0ae920000000000000000000000000000000000000000000000000000000081526004016106ff91906123dc565b60405180910390fd5b600061071c838361071761101c565b611036565b90508373ffffffffffffffffffffffffffffffffffffffff168173ffffffffffffffffffffffffffffffffffffffff1614610792578382826040517f64283d7b000000000000000000000000000000000000000000000000000000008152600401610789939291906128e5565b60405180910390fd5b50505050565b60006107a383610ae6565b82106107e85782826040517fa57d13dc0000000000000000000000000000000000000000000000000000000081526004016107df92919061291c565b60405180910390fd5b600660008473ffffffffffffffffffffffffffffffffffffffff1673ffffffffffffffffffffffffffffffffffffffff168152602001908152602001600020600083815260200190815260200160002054905092915050565b610849611153565b600c6001610855610689565b61085f9190612974565b11156108a0576040517f08c379a0000000000000000000000000000000000000000000000000000000008152600401610897906129f4565b60405180910390fd5b60036001600d60008473ffffffffffffffffffffffffffffffffffffffff1673ffffffffffffffffffffffffffffffffffffffff168152602001908152602001600020546108ee9190612974565b1061092e576040517f08c379a000000000000000000000000000000000000000000000000000000000815260040161092590612a86565b60405180910390fd5b600d60008273ffffffffffffffffffffffffffffffffffffffff1673ffffffffffffffffffffffffffffffffffffffff168152602001908152602001600020600081548092919061097e90612aa6565b9190505550600b600081548092919061099690612aa6565b91905055506000600b5490506109ac82826111da565b5050565b6109cb83838360405180602001604052806000815250610ccc565b505050565b60006109da610689565b8210610a20576000826040517fa57d13dc000000000000000000000000000000000000000000000000000000008152600401610a1792919061291c565b60405180910390fd5b60088281548110610a3457610a33612aee565b5b90600052602060002001549050919050565b6000610a5182610f57565b9050919050565b600c8054610a65906128b4565b80601f0160208091040260200160405190810160405280929190818152602001828054610a91906128b4565b8015610ade5780601f10610ab357610100808354040283529160200191610ade565b820191906000526020600020905b815481529060010190602001808311610ac157829003601f168201915b505050505081565b60008073ffffffffffffffffffffffffffffffffffffffff168273ffffffffffffffffffffffffffffffffffffffff1603610b595760006040517f89c62b64000000000000000000000000000000000000000000000000000000008152600401610b5091906123dc565b60405180910390fd5b600360008373ffffffffffffffffffffffffffffffffffffffff1673ffffffffffffffffffffffffffffffffffffffff168152602001908152602001600020549050919050565b610ba8611153565b610bb260006111f8565b565b610bbc611153565b858560009182610bcd929190612cd4565b50838360019182610bdf929190612cd4565b508181600c9182610bf1929190612cd4565b50505050505050565b6000600a60009054906101000a900473ffffffffffffffffffffffffffffffffffffffff16905090565b606060018054610c33906128b4565b80601f0160208091040260200160405190810160405280929190818152602001828054610c5f906128b4565b8015610cac5780601f10610c8157610100808354040283529160200191610cac565b820191906000526020600020905b815481529060010190602001808311610c8f57829003601f168201915b5050505050905090565b610cc8610cc161101c565b83836112be565b5050565b610cd7848484610696565b610ceb610ce261101c565b8585858561142d565b50505050565b6060610cfc82610f57565b506000600c8054610d0c906128b4565b905011610d285760405180602001604052806000815250610d54565b600c610d33836115de565b604051602001610d44929190612eaf565b6040516020818303038152906040525b9050919050565b6000600560008473ffffffffffffffffffffffffffffffffffffffff1673ffffffffffffffffffffffffffffffffffffffff16815260200190815260200160002060008373ffffffffffffffffffffffffffffffffffffffff1673ffffffffffffffffffffffffffffffffffffffff16815260200190815260200160002060009054906101000a900460ff16905092915050565b610df7611153565b600073ffffffffffffffffffffffffffffffffffffffff168173ffffffffffffffffffffffffffffffffffffffff1603610e695760006040517f1e4fbdf7000000000000000000000000000000000000000000000000000000008152600401610e6091906123dc565b60405180910390fd5b610e72816111f8565b50565b60007f80ac58cd000000000000000000000000000000000000000000000000000000007bffffffffffffffffffffffffffffffffffffffffffffffffffffffff1916827bffffffffffffffffffffffffffffffffffffffffffffffffffffffff19161480610f4057507f5b5e139f000000000000000000000000000000000000000000000000000000007bffffffffffffffffffffffffffffffffffffffffffffffffffffffff1916827bffffffffffffffffffffffffffffffffffffffffffffffffffffffff1916145b80610f505750610f4f826116ac565b5b9050919050565b600080610f6383611716565b9050600073ffffffffffffffffffffffffffffffffffffffff168173ffffffffffffffffffffffffffffffffffffffff1603610fd657826040517f7e273289000000000000000000000000000000000000000000000000000000008152600401610fcd9190612472565b60405180910390fd5b80915050919050565b60006004600083815260200190815260200160002060009054906101000a900473ffffffffffffffffffffffffffffffffffffffff169050919050565b600033905090565b6110318383836001611753565b505050565b600080611044858585611918565b9050600073ffffffffffffffffffffffffffffffffffffffff168173ffffffffffffffffffffffffffffffffffffffff16036110885761108384611b32565b6110c7565b8473ffffffffffffffffffffffffffffffffffffffff168173ffffffffffffffffffffffffffffffffffffffff16146110c6576110c58185611b7b565b5b5b600073ffffffffffffffffffffffffffffffffffffffff168573ffffffffffffffffffffffffffffffffffffffff16036111095761110484611c66565b611148565b8473ffffffffffffffffffffffffffffffffffffffff168173ffffffffffffffffffffffffffffffffffffffff1614611147576111468585611d37565b5b5b809150509392505050565b61115b61101c565b73ffffffffffffffffffffffffffffffffffffffff16611179610bfa565b73ffffffffffffffffffffffffffffffffffffffff16146111d85761119c61101c565b6040517f118cdaa70000000000000000000000000000000000000000000000000000000081526004016111cf91906123dc565b60405180910390fd5b565b6111f4828260405180602001604052806000815250611dc2565b5050565b6000600a60009054906101000a900473ffffffffffffffffffffffffffffffffffffffff16905081600a60006101000a81548173ffffffffffffffffffffffffffffffffffffffff021916908373ffffffffffffffffffffffffffffffffffffffff1602179055508173ffffffffffffffffffffffffffffffffffffffff168173ffffffffffffffffffffffffffffffffffffffff167f8be0079c531659141344cd1fd0a4f28419497f9722a3daafe3b4186f6b6457e060405160405180910390a35050565b600073ffffffffffffffffffffffffffffffffffffffff168273ffffffffffffffffffffffffffffffffffffffff160361132f57816040517f5b08ba1800000000000000000000000000000000000000000000000000000000815260040161132691906123dc565b60405180910390fd5b80600560008573ffffffffffffffffffffffffffffffffffffffff1673ffffffffffffffffffffffffffffffffffffffff16815260200190815260200160002060008473ffffffffffffffffffffffffffffffffffffffff1673ffffffffffffffffffffffffffffffffffffffff16815260200190815260200160002060006101000a81548160ff0219169083151502179055508173ffffffffffffffffffffffffffffffffffffffff168373ffffffffffffffffffffffffffffffffffffffff167f17307eab39ab6107e8899845ad3d59bd9653f200f220920489ca2b5937696c3183604051611420919061226b565b60405180910390a3505050565b60008373ffffffffffffffffffffffffffffffffffffffff163b11156115d7578273ffffffffffffffffffffffffffffffffffffffff1663150b7a02868685856040518563ffffffff1660e01b815260040161148c9493929190612f33565b6020604051808303816000875af19250505080156114c857506040513d601f19601f820116820180604052508101906114c59190612f94565b60015b61154c573d80600081146114f8576040519150601f19603f3d011682016040523d82523d6000602084013e6114fd565b606091505b50600081510361154457836040517f64a0ae9200000000000000000000000000000000000000000000000000000000815260040161153b91906123dc565b60405180910390fd5b805181602001fd5b63150b7a0260e01b7bffffffffffffffffffffffffffffffffffffffffffffffffffffffff1916817bffffffffffffffffffffffffffffffffffffffffffffffffffffffff1916146115d557836040517f64a0ae920000000000000000000000000000000000000000000000000000000081526004016115cc91906123dc565b60405180910390fd5b505b5050505050565b6060600060016115ed84611de6565b01905060008167ffffffffffffffff81111561160c5761160b612697565b5b6040519080825280601f01601f19166020018201604052801561163e5781602001600182028036833780820191505090505b509050600082602001820190505b6001156116a1578080600190039150507f3031323334353637383961626364656600000000000000000000000000000000600a86061a8153600a858161169557611694612fc1565b5b0494506000850361164c575b819350505050919050565b60007f01ffc9a7000000000000000000000000000000000000000000000000000000007bffffffffffffffffffffffffffffffffffffffffffffffffffffffff1916827bffffffffffffffffffffffffffffffffffffffffffffffffffffffff1916149050919050565b60006002600083815260200190815260200160002060009054906101000a900473ffffffffffffffffffffffffffffffffffffffff169050919050565b808061178c5750600073ffffffffffffffffffffffffffffffffffffffff168273ffffffffffffffffffffffffffffffffffffffff1614155b156118c057600061179c84610f57565b9050600073ffffffffffffffffffffffffffffffffffffffff168373ffffffffffffffffffffffffffffffffffffffff161415801561180757508273ffffffffffffffffffffffffffffffffffffffff168173ffffffffffffffffffffffffffffffffffffffff1614155b801561181a57506118188184610d5b565b155b1561185c57826040517fa9fbf51f00000000000000000000000000000000000000000000000000000000815260040161185391906123dc565b60405180910390fd5b81156118be57838573ffffffffffffffffffffffffffffffffffffffff168273ffffffffffffffffffffffffffffffffffffffff167f8c5be1e5ebec7d5bd14f71427d1e84f3dd0314c0f7b2291e5b200ac8c7c3b92560405160405180910390a45b505b836004600085815260200190815260200160002060006101000a81548173ffffffffffffffffffffffffffffffffffffffff021916908373ffffffffffffffffffffffffffffffffffffffff16021790555050505050565b60008061192484611716565b9050600073ffffffffffffffffffffffffffffffffffffffff168373ffffffffffffffffffffffffffffffffffffffff161461196657611965818486611f39565b5b600073ffffffffffffffffffffffffffffffffffffffff168173ffffffffffffffffffffffffffffffffffffffff16146119f7576119a8600085600080611753565b6001600360008373ffffffffffffffffffffffffffffffffffffffff1673ffffffffffffffffffffffffffffffffffffffff168152602001908152602001600020600082825403925050819055505b600073ffffffffffffffffffffffffffffffffffffffff168573ffffffffffffffffffffffffffffffffffffffff1614611a7a576001600360008773ffffffffffffffffffffffffffffffffffffffff1673ffffffffffffffffffffffffffffffffffffffff168152602001908152602001600020600082825401925050819055505b846002600086815260200190815260200160002060006101000a81548173ffffffffffffffffffffffffffffffffffffffff021916908373ffffffffffffffffffffffffffffffffffffffff160217905550838573ffffffffffffffffffffffffffffffffffffffff168273ffffffffffffffffffffffffffffffffffffffff167fddf252ad1be2c89b69c2b068fc378daa952ba7f163c4a11628f55a4df523b3ef60405160405180910390a4809150509392505050565b6008805490506009600083815260200190815260200160002081905550600881908060018154018082558091505060019003906000526020600020016000909190919091505550565b6000611b8683610ae6565b90506000600760008481526020019081526020016000205490506000600660008673ffffffffffffffffffffffffffffffffffffffff1673ffffffffffffffffffffffffffffffffffffffff1681526020019081526020016000209050828214611c325760008160008581526020019081526020016000205490508082600085815260200190815260200160002081905550826007600083815260200190815260200160002081905550505b6007600085815260200190815260200160002060009055806000848152602001908152602001600020600090555050505050565b60006001600880549050611c7a9190612ff0565b9050600060096000848152602001908152602001600020549050600060088381548110611caa57611ca9612aee565b5b906000526020600020015490508060088381548110611ccc57611ccb612aee565b5b906000526020600020018190555081600960008381526020019081526020016000208190555060096000858152602001908152602001600020600090556008805480611d1b57611d1a613024565b5b6001900381819060005260206000200160009055905550505050565b60006001611d4484610ae6565b611d4e9190612ff0565b905081600660008573ffffffffffffffffffffffffffffffffffffffff1673ffffffffffffffffffffffffffffffffffffffff168152602001908152602001600020600083815260200190815260200160002081905550806007600084815260200190815260200160002081905550505050565b611dcc8383611ffd565b611de1611dd761101c565b600085858561142d565b505050565b600080600090507a184f03e93ff9f4daa797ed6e38ed64bf6a1f0100000000000000008310611e44577a184f03e93ff9f4daa797ed6e38ed64bf6a1f0100000000000000008381611e3a57611e39612fc1565b5b0492506040810190505b6d04ee2d6d415b85acef81000000008310611e81576d04ee2d6d415b85acef81000000008381611e7757611e76612fc1565b5b0492506020810190505b662386f26fc100008310611eb057662386f26fc100008381611ea657611ea5612fc1565b5b0492506010810190505b6305f5e1008310611ed9576305f5e1008381611ecf57611ece612fc1565b5b0492506008810190505b6127108310611efe576127108381611ef457611ef3612fc1565b5b0492506004810190505b60648310611f215760648381611f1757611f16612fc1565b5b0492506002810190505b600a8310611f30576001810190505b80915050919050565b611f448383836120f6565b611ff857600073ffffffffffffffffffffffffffffffffffffffff168373ffffffffffffffffffffffffffffffffffffffff1603611fb957806040517f7e273289000000000000000000000000000000000000000000000000000000008152600401611fb09190612472565b60405180910390fd5b81816040517f177e802f000000000000000000000000000000000000000000000000000000008152600401611fef92919061291c565b60405180910390fd5b505050565b600073ffffffffffffffffffffffffffffffffffffffff168273ffffffffffffffffffffffffffffffffffffffff160361206f5760006040517f64a0ae9200000000000000000000000000000000000000000000000000000000815260040161206691906123dc565b60405180910390fd5b600061207d83836000611036565b9050600073ffffffffffffffffffffffffffffffffffffffff168173ffffffffffffffffffffffffffffffffffffffff16146120f15760006040517f73c6ac6e0000000000000000000000000000000000000000000000000000000081526004016120e891906123dc565b60405180910390fd5b505050565b60008073ffffffffffffffffffffffffffffffffffffffff168373ffffffffffffffffffffffffffffffffffffffff16141580156121ae57508273ffffffffffffffffffffffffffffffffffffffff168473ffffffffffffffffffffffffffffffffffffffff16148061216f575061216e8484610d5b565b5b806121ad57508273ffffffffffffffffffffffffffffffffffffffff1661219583610fdf565b73ffffffffffffffffffffffffffffffffffffffff16145b5b90509392505050565b6000604051905090565b600080fd5b600080fd5b60007fffffffff0000000000000000000000000000000000000000000000000000000082169050919050565b612200816121cb565b811461220b57600080fd5b50565b60008135905061221d816121f7565b92915050565b600060208284031215612239576122386121c1565b5b60006122478482850161220e565b91505092915050565b60008115159050919050565b61226581612250565b82525050565b6000602082019050612280600083018461225c565b92915050565b600081519050919050565b600082825260208201905092915050565b60005b838110156122c05780820151818401526020810190506122a5565b60008484015250505050565b6000601f19601f8301169050919050565b60006122e882612286565b6122f28185612291565b93506123028185602086016122a2565b61230b816122cc565b840191505092915050565b6000602082019050818103600083015261233081846122dd565b905092915050565b6000819050919050565b61234b81612338565b811461235657600080fd5b50565b60008135905061236881612342565b92915050565b600060208284031215612384576123836121c1565b5b600061239284828501612359565b91505092915050565b600073ffffffffffffffffffffffffffffffffffffffff82169050919050565b60006123c68261239b565b9050919050565b6123d6816123bb565b82525050565b60006020820190506123f160008301846123cd565b92915050565b612400816123bb565b811461240b57600080fd5b50565b60008135905061241d816123f7565b92915050565b6000806040838503121561243a576124396121c1565b5b60006124488582860161240e565b925050602061245985828601612359565b9150509250929050565b61246c81612338565b82525050565b60006020820190506124876000830184612463565b92915050565b6000806000606084860312156124a6576124a56121c1565b5b60006124b48682870161240e565b93505060206124c58682870161240e565b92505060406124d686828701612359565b9150509250925092565b6000602082840312156124f6576124f56121c1565b5b60006125048482850161240e565b91505092915050565b600080fd5b600080fd5b600080fd5b60008083601f8401126125325761253161250d565b5b8235905067ffffffffffffffff81111561254f5761254e612512565b5b60208301915083600182028301111561256b5761256a612517565b5b9250929050565b6000806000806000806060878903121561258f5761258e6121c1565b5b600087013567ffffffffffffffff8111156125ad576125ac6121c6565b5b6125b989828a0161251c565b9650965050602087013567ffffffffffffffff8111156125dc576125db6121c6565b5b6125e889828a0161251c565b9450945050604087013567ffffffffffffffff81111561260b5761260a6121c6565b5b61261789828a0161251c565b92509250509295509295509295565b61262f81612250565b811461263a57600080fd5b50565b60008135905061264c81612626565b92915050565b60008060408385031215612669576126686121c1565b5b60006126778582860161240e565b92505060206126888582860161263d565b9150509250929050565b600080fd5b7f4e487b7100000000000000000000000000000000000000000000000000000000600052604160045260246000fd5b6126cf826122cc565b810181811067ffffffffffffffff821117156126ee576126ed612697565b5b80604052505050565b60006127016121b7565b905061270d82826126c6565b919050565b600067ffffffffffffffff82111561272d5761272c612697565b5b612736826122cc565b9050602081019050919050565b82818337600083830152505050565b600061276561276084612712565b6126f7565b90508281526020810184848401111561278157612780612692565b5b61278c848285612743565b509392505050565b600082601f8301126127a9576127a861250d565b5b81356127b9848260208601612752565b91505092915050565b600080600080608085870312156127dc576127db6121c1565b5b60006127ea8782880161240e565b94505060206127fb8782880161240e565b935050604061280c87828801612359565b925050606085013567ffffffffffffffff81111561282d5761282c6121c6565b5b61283987828801612794565b91505092959194509250565b6000806040838503121561285c5761285b6121c1565b5b600061286a8582860161240e565b925050602061287b8582860161240e565b9150509250929050565b7f4e487b7100000000000000000000000000000000000000000000000000000000600052602260045260246000fd5b600060028204905060018216806128cc57607f821691505b6020821081036128df576128de612885565b5b50919050565b60006060820190506128fa60008301866123cd565b6129076020830185612463565b61291460408301846123cd565b949350505050565b600060408201905061293160008301856123cd565b61293e6020830184612463565b9392505050565b7f4e487b7100000000000000000000000000000000000000000000000000000000600052601160045260246000fd5b600061297f82612338565b915061298a83612338565b92508282019050808211156129a2576129a1612945565b5b92915050565b7f4d617820737570706c7920657863656564656400000000000000000000000000600082015250565b60006129de601383612291565b91506129e9826129a8565b602082019050919050565b60006020820190508181036000830152612a0d816129d1565b9050919050565b7f4d6178696d756d206e756d626572206f66206d696e74207065722077616c6c6560008201527f7420686173206265656e20726561636865640000000000000000000000000000602082015250565b6000612a70603283612291565b9150612a7b82612a14565b604082019050919050565b60006020820190508181036000830152612a9f81612a63565b9050919050565b6000612ab182612338565b91507fffffffffffffffffffffffffffffffffffffffffffffffffffffffffffffffff8203612ae357612ae2612945565b5b600182019050919050565b7f4e487b7100000000000000000000000000000000000000000000000000000000600052603260045260246000fd5b600082905092915050565b60008190508160005260206000209050919050565b60006020601f8301049050919050565b600082821b905092915050565b600060088302612b8a7fffffffffffffffffffffffffffffffffffffffffffffffffffffffffffffffff82612b4d565b612b948683612b4d565b95508019841693508086168417925050509392505050565b6000819050919050565b6000612bd1612bcc612bc784612338565b612bac565b612338565b9050919050565b6000819050919050565b612beb83612bb6565b612bff612bf782612bd8565b848454612b5a565b825550505050565b600090565b612c14612c07565b612c1f818484612be2565b505050565b5b81811015612c4357612c38600082612c0c565b600181019050612c25565b5050565b601f821115612c8857612c5981612b28565b612c6284612b3d565b81016020851015612c71578190505b612c85612c7d85612b3d565b830182612c24565b50505b505050565b600082821c905092915050565b6000612cab60001984600802612c8d565b1980831691505092915050565b6000612cc48383612c9a565b9150826002028217905092915050565b612cde8383612b1d565b67ffffffffffffffff811115612cf757612cf6612697565b5b612d0182546128b4565b612d0c828285612c47565b6000601f831160018114612d3b5760008415612d29578287013590505b612d338582612cb8565b865550612d9b565b601f198416612d4986612b28565b60005b82811015612d7157848901358255600182019150602085019450602081019050612d4c565b86831015612d8e5784890135612d8a601f891682612c9a565b8355505b6001600288020188555050505b50505050505050565b600081905092915050565b60008154612dbc816128b4565b612dc68186612da4565b94506001821660008114612de15760018114612df657612e29565b60ff1983168652811515820286019350612e29565b612dff85612b28565b60005b83811015612e2157815481890152600182019150602081019050612e02565b838801955050505b50505092915050565b6000612e3d82612286565b612e478185612da4565b9350612e578185602086016122a2565b80840191505092915050565b7f2e6a736f6e000000000000000000000000000000000000000000000000000000600082015250565b6000612e99600583612da4565b9150612ea482612e63565b600582019050919050565b6000612ebb8285612daf565b9150612ec78284612e32565b9150612ed282612e8c565b91508190509392505050565b600081519050919050565b600082825260208201905092915050565b6000612f0582612ede565b612f0f8185612ee9565b9350612f1f8185602086016122a2565b612f28816122cc565b840191505092915050565b6000608082019050612f4860008301876123cd565b612f5560208301866123cd565b612f626040830185612463565b8181036060830152612f748184612efa565b905095945050505050565b600081519050612f8e816121f7565b92915050565b600060208284031215612faa57612fa96121c1565b5b6000612fb884828501612f7f565b91505092915050565b7f4e487b7100000000000000000000000000000000000000000000000000000000600052601260045260246000fd5b6000612ffb82612338565b915061300683612338565b925082820390508181111561301e5761301d612945565b5b92915050565b7f4e487b7100000000000000000000000000000000000000000000000000000000600052603160045260246000fdfea26469706673582212200969db17a7aeea3a5d64503ec070197eeec7d61b3db7f5db7a65945541792dc264736f6c63430008140033a2646970667358221220fc4b797c9ad8328055509a8a68a88674033e9f2180cd8516b567a938e7f40a2564736f6c63430008140033",
  "linkReferences": {},
  "deployedLinkReferences": {}
}