{
  "_format": "hh-sol-artifact-1",
  "contractName": "NWMain",
  "sourceName": "contracts/v1/NWMain.sol",
  "abi": [
    {
      "inputs": [
        {
          "internalType": "contract INWERC721Factory",
          "name": "_factory",
          "type": "address"
        },
        {
          "internalType": "uint256",
          "name": "_feePercent",
          "type": "uint256"
        }
      ],
      "stateMutability": "nonpayable",
      "type": "constructor"
    },
    {
      "inputs": [],
      "name": "NotAuthorized",
      "type": "error"
    },
    {
      "inputs": [
        {
          "internalType": "address",
          "name": "owner",
          "type": "address"
        }
      ],
      "name": "OwnableInvalidOwner",
      "type": "error"
    },
    {
      "inputs": [
        {
          "internalType": "address",
          "name": "account",
          "type": "address"
        }
      ],
      "name": "OwnableUnauthorizedAccount",
      "type": "error"
    },
    {
      "anonymous": false,
      "inputs": [
        {
          "indexed": true,
          "internalType": "uint256",
          "name": "itemId",
          "type": "uint256"
        },
        {
          "indexed": false,
          "internalType": "address",
          "name": "collection",
          "type": "address"
        },
        {
          "indexed": true,
          "internalType": "uint256",
          "name": "tokenId",
          "type": "uint256"
        },
        {
          "indexed": false,
          "internalType": "uint256",
          "name": "priceInWei",
          "type": "uint256"
        },
        {
          "indexed": true,
          "internalType": "address",
          "name": "seller",
          "type": "address"
        },
        {
          "indexed": false,
          "internalType": "uint256",
          "name": "timestamp",
          "type": "uint256"
        }
      ],
      "name": "EscrowedItems",
      "type": "event"
    },
    {
      "anonymous": false,
      "inputs": [
        {
          "indexed": true,
          "internalType": "address",
          "name": "previousOwner",
          "type": "address"
        },
        {
          "indexed": true,
          "internalType": "address",
          "name": "newOwner",
          "type": "address"
        }
      ],
      "name": "OwnershipTransferred",
      "type": "event"
    },
    {
      "anonymous": false,
      "inputs": [
        {
          "indexed": true,
          "internalType": "uint256",
          "name": "itemId",
          "type": "uint256"
        },
        {
          "indexed": true,
          "internalType": "address",
          "name": "buyer",
          "type": "address"
        },
        {
          "indexed": false,
          "internalType": "uint256",
          "name": "timestamp",
          "type": "uint256"
        }
      ],
      "name": "PaidItems",
      "type": "event"
    },
    {
      "anonymous": false,
      "inputs": [
        {
          "indexed": false,
          "internalType": "uint256",
          "name": "itemId",
          "type": "uint256"
        },
        {
          "indexed": false,
          "internalType": "uint256",
          "name": "timestamp",
          "type": "uint256"
        }
      ],
      "name": "SaleConcellation",
      "type": "event"
    },
    {
      "anonymous": false,
      "inputs": [
        {
          "indexed": false,
          "internalType": "uint256",
          "name": "itemId",
          "type": "uint256"
        },
        {
          "indexed": true,
          "internalType": "address",
          "name": "seller",
          "type": "address"
        },
        {
          "indexed": true,
          "internalType": "address",
          "name": "buyer",
          "type": "address"
        },
        {
          "indexed": false,
          "internalType": "uint256",
          "name": "netPriceInWei",
          "type": "uint256"
        },
        {
          "indexed": false,
          "internalType": "uint256",
          "name": "amountOfFees",
          "type": "uint256"
        },
        {
          "indexed": false,
          "internalType": "uint256",
          "name": "timestamp",
          "type": "uint256"
        }
      ],
      "name": "SoldItems",
      "type": "event"
    },
    {
      "stateMutability": "payable",
      "type": "fallback"
    },
    {
      "inputs": [
        {
          "internalType": "uint256",
          "name": "_itemId",
          "type": "uint256"
        }
      ],
      "name": "buyItem",
      "outputs": [],
      "stateMutability": "payable",
      "type": "function"
    },
    {
      "inputs": [
        {
          "internalType": "uint256",
          "name": "_itemId",
          "type": "uint256"
        }
      ],
      "name": "cancelSale",
      "outputs": [],
      "stateMutability": "payable",
      "type": "function"
    },
    {
      "inputs": [
        {
          "internalType": "address",
          "name": "_newFeeAccount",
          "type": "address"
        }
      ],
      "name": "changeFeeAccount",
      "outputs": [],
      "stateMutability": "nonpayable",
      "type": "function"
    },
    {
      "inputs": [
        {
          "internalType": "uint256",
          "name": "_newFeePercent",
          "type": "uint256"
        }
      ],
      "name": "changeFeePercent",
      "outputs": [],
      "stateMutability": "nonpayable",
      "type": "function"
    },
    {
      "inputs": [
        {
          "internalType": "uint256",
          "name": "_tokenId",
          "type": "uint256"
        },
        {
          "internalType": "uint256",
          "name": "_priceInWei",
          "type": "uint256"
        }
      ],
      "name": "escrowItem",
      "outputs": [],
      "stateMutability": "payable",
      "type": "function"
    },
    {
      "inputs": [
        {
          "internalType": "address",
          "name": "_collectionAddress",
          "type": "address"
        },
        {
          "internalType": "uint256",
          "name": "_tokenId",
          "type": "uint256"
        },
        {
          "internalType": "uint256",
          "name": "_priceInWei",
          "type": "uint256"
        }
      ],
      "name": "escrowItem",
      "outputs": [],
      "stateMutability": "nonpayable",
      "type": "function"
    },
    {
      "inputs": [],
      "name": "feeAccount",
      "outputs": [
        {
          "internalType": "address payable",
          "name": "",
          "type": "address"
        }
      ],
      "stateMutability": "view",
      "type": "function"
    },
    {
      "inputs": [],
      "name": "feePercent",
      "outputs": [
        {
          "internalType": "uint256",
          "name": "",
          "type": "uint256"
        }
      ],
      "stateMutability": "view",
      "type": "function"
    },
    {
      "inputs": [],
      "name": "getFactoryCollections",
      "outputs": [
        {
          "internalType": "address[]",
          "name": "",
          "type": "address[]"
        }
      ],
      "stateMutability": "view",
      "type": "function"
    },
    {
      "inputs": [
        {
          "internalType": "uint256[]",
          "name": "_ids",
          "type": "uint256[]"
        }
      ],
      "name": "getItemsBatch",
      "outputs": [
        {
          "components": [
            {
              "internalType": "uint256",
              "name": "itemId",
              "type": "uint256"
            },
            {
              "internalType": "address",
              "name": "collection",
              "type": "address"
            },
            {
              "internalType": "uint256",
              "name": "tokenId",
              "type": "uint256"
            },
            {
              "internalType": "uint256",
              "name": "priceInWei",
              "type": "uint256"
            },
            {
              "internalType": "address payable",
              "name": "seller",
              "type": "address"
            },
            {
              "internalType": "address payable",
              "name": "buyer",
              "type": "address"
            },
            {
              "internalType": "enum NWMain.SaleStatus",
              "name": "status",
              "type": "uint8"
            },
            {
              "internalType": "uint256",
              "name": "timestamp",
              "type": "uint256"
            },
            {
              "internalType": "bool",
              "name": "sellerRequestsCancellation",
              "type": "bool"
            },
            {
              "internalType": "bool",
              "name": "buyerRequestsCancellation",
              "type": "bool"
            }
          ],
          "internalType": "struct NWMain.Item[]",
          "name": "",
          "type": "tuple[]"
        }
      ],
      "stateMutability": "view",
      "type": "function"
    },
    {
      "inputs": [
        {
          "internalType": "address",
          "name": "_buyer",
          "type": "address"
        }
      ],
      "name": "getItemsIdsForPurchase",
      "outputs": [
        {
          "internalType": "uint256[]",
          "name": "",
          "type": "uint256[]"
        }
      ],
      "stateMutability": "view",
      "type": "function"
    },
    {
      "inputs": [
        {
          "internalType": "address",
          "name": "_seller",
          "type": "address"
        }
      ],
      "name": "getItemsIdsForSale",
      "outputs": [
        {
          "internalType": "uint256[]",
          "name": "",
          "type": "uint256[]"
        }
      ],
      "stateMutability": "view",
      "type": "function"
    },
    {
      "inputs": [
        {
          "internalType": "uint256",
          "name": "",
          "type": "uint256"
        }
      ],
      "name": "items",
      "outputs": [
        {
          "internalType": "uint256",
          "name": "itemId",
          "type": "uint256"
        },
        {
          "internalType": "address",
          "name": "collection",
          "type": "address"
        },
        {
          "internalType": "uint256",
          "name": "tokenId",
          "type": "uint256"
        },
        {
          "internalType": "uint256",
          "name": "priceInWei",
          "type": "uint256"
        },
        {
          "internalType": "address payable",
          "name": "seller",
          "type": "address"
        },
        {
          "internalType": "address payable",
          "name": "buyer",
          "type": "address"
        },
        {
          "internalType": "enum NWMain.SaleStatus",
          "name": "status",
          "type": "uint8"
        },
        {
          "internalType": "uint256",
          "name": "timestamp",
          "type": "uint256"
        },
        {
          "internalType": "bool",
          "name": "sellerRequestsCancellation",
          "type": "bool"
        },
        {
          "internalType": "bool",
          "name": "buyerRequestsCancellation",
          "type": "bool"
        }
      ],
      "stateMutability": "view",
      "type": "function"
    },
    {
      "inputs": [],
      "name": "owner",
      "outputs": [
        {
          "internalType": "address",
          "name": "",
          "type": "address"
        }
      ],
      "stateMutability": "view",
      "type": "function"
    },
    {
      "inputs": [],
      "name": "renounceOwnership",
      "outputs": [],
      "stateMutability": "nonpayable",
      "type": "function"
    },
    {
      "inputs": [
        {
          "internalType": "address",
          "name": "newOwner",
          "type": "address"
        }
      ],
      "name": "transferOwnership",
      "outputs": [],
      "stateMutability": "nonpayable",
      "type": "function"
    },
    {
      "inputs": [
        {
          "internalType": "uint256",
          "name": "_itemId",
          "type": "uint256"
        }
      ],
      "name": "validateItem",
      "outputs": [],
      "stateMutability": "payable",
      "type": "function"
    },
    {
      "stateMutability": "payable",
      "type": "receive"
    }
  ],
  "bytecode": "0x60806040523480156200001157600080fd5b5060405162003dcf38038062003dcf8339818101604052810190620000379190620002cd565b33600073ffffffffffffffffffffffffffffffffffffffff168173ffffffffffffffffffffffffffffffffffffffff1603620000ad5760006040517f1e4fbdf7000000000000000000000000000000000000000000000000000000008152600401620000a4919062000325565b60405180910390fd5b620000be816200015060201b60201c565b5033600160006101000a81548173ffffffffffffffffffffffffffffffffffffffff021916908373ffffffffffffffffffffffffffffffffffffffff1602179055508060028190555081600360006101000a81548173ffffffffffffffffffffffffffffffffffffffff021916908373ffffffffffffffffffffffffffffffffffffffff160217905550505062000342565b60008060009054906101000a900473ffffffffffffffffffffffffffffffffffffffff169050816000806101000a81548173ffffffffffffffffffffffffffffffffffffffff021916908373ffffffffffffffffffffffffffffffffffffffff1602179055508173ffffffffffffffffffffffffffffffffffffffff168173ffffffffffffffffffffffffffffffffffffffff167f8be0079c531659141344cd1fd0a4f28419497f9722a3daafe3b4186f6b6457e060405160405180910390a35050565b600080fd5b600073ffffffffffffffffffffffffffffffffffffffff82169050919050565b6000620002468262000219565b9050919050565b60006200025a8262000239565b9050919050565b6200026c816200024d565b81146200027857600080fd5b50565b6000815190506200028c8162000261565b92915050565b6000819050919050565b620002a78162000292565b8114620002b357600080fd5b50565b600081519050620002c7816200029c565b92915050565b60008060408385031215620002e757620002e662000214565b5b6000620002f7858286016200027b565b92505060206200030a85828601620002b6565b9150509250929050565b6200031f8162000239565b82525050565b60006020820190506200033c600083018462000314565b92915050565b613a7d80620003526000396000f3fe6080604052600436106101025760003560e01c806387687d5511610095578063bd94b00511610064578063bd94b0051461030d578063bfb231d214610329578063c2123fef1461036f578063e7fb74c71461039a578063f2fde38b146103b657610109565b806387687d551461023f57806387c605bc146102685780638da5cb5b146102a5578063a5844841146102d057610109565b806365e17c9d116100d157806365e17c9d146101a9578063715018a6146101d457806371ffcb16146101eb5780637fd6f15c1461021457610109565b806304daea4d1461010b5780630fe6f0571461014857806334eddf3e14610164578063635aa34f1461018d57610109565b3661010957005b005b34801561011757600080fd5b50610132600480360381019061012d91906125ae565b6103df565b60405161013f91906126a3565b60405180910390f35b610162600480360381019061015d91906126f1565b610476565b005b34801561017057600080fd5b5061018b60048036038101906101869190612731565b610535565b005b6101a760048036038101906101a29190612731565b61058a565b005b3480156101b557600080fd5b506101be610b5f565b6040516101cb919061277f565b60405180910390f35b3480156101e057600080fd5b506101e9610b85565b005b3480156101f757600080fd5b50610212600480360381019061020d91906125ae565b610b99565b005b34801561022057600080fd5b50610229610be5565b60405161023691906127a9565b60405180910390f35b34801561024b57600080fd5b50610266600480360381019061026191906127c4565b610beb565b005b34801561027457600080fd5b5061028f600480360381019061028a91906125ae565b611099565b60405161029c91906126a3565b60405180910390f35b3480156102b157600080fd5b506102ba611130565b6040516102c79190612826565b60405180910390f35b3480156102dc57600080fd5b506102f760048036038101906102f291906128a6565b611159565b6040516103049190612b1f565b60405180910390f35b61032760048036038101906103229190612731565b611437565b005b34801561033557600080fd5b50610350600480360381019061034b9190612731565b611b27565b6040516103669a99989796959493929190612b5f565b60405180910390f35b34801561037b57600080fd5b50610384611c12565b6040516103919190612caa565b60405180910390f35b6103b460048036038101906103af9190612731565b611caf565b005b3480156103c257600080fd5b506103dd60048036038101906103d891906125ae565b612038565b005b6060600660008373ffffffffffffffffffffffffffffffffffffffff1673ffffffffffffffffffffffffffffffffffffffff16815260200190815260200160002080548060200260200160405190810160405280929190818152602001828054801561046a57602002820191906000526020600020905b815481526020019060010190808311610456575b50505050509050919050565b6000610480611c12565b51116104c1576040517f08c379a00000000000000000000000000000000000000000000000000000000081526004016104b890612d75565b60405180910390fd5b60008111610504576040517f08c379a00000000000000000000000000000000000000000000000000000000081526004016104fb90612e07565b60405180910390fd5b61053161050f611c12565b60008151811061052257610521612e27565b5b60200260200101518383610beb565b5050565b61053d6120be565b601e8110610580576040517f08c379a000000000000000000000000000000000000000000000000000000000815260040161057790612ec8565b60405180910390fd5b8060028190555050565b600061059582612145565b90503373ffffffffffffffffffffffffffffffffffffffff168160a0015173ffffffffffffffffffffffffffffffffffffffff1614610609576040517f08c379a000000000000000000000000000000000000000000000000000000000815260040161060090612f34565b60405180910390fd5b600073ffffffffffffffffffffffffffffffffffffffff16816080015173ffffffffffffffffffffffffffffffffffffffff160361067c576040517f08c379a000000000000000000000000000000000000000000000000000000000815260040161067390612fa0565b60405180910390fd5b600260058111156106905761068f61293d565b5b8160c0015160058111156106a7576106a661293d565b5b146106e7576040517f08c379a00000000000000000000000000000000000000000000000000000000081526004016106de9061300c565b60405180910390fd5b806020015173ffffffffffffffffffffffffffffffffffffffff166323b872dd308360a0015184604001516040518463ffffffff1660e01b81526004016107309392919061308b565b600060405180830381600087803b15801561074a57600080fd5b505af115801561075e573d6000803e3d6000fd5b5050505060038160c00190600581111561077b5761077a61293d565b5b9081600581111561078f5761078e61293d565b5b815250508060048260000151815481106107ac576107ab612e27565b5b90600052602060002090600802016000820151816000015560208201518160010160006101000a81548173ffffffffffffffffffffffffffffffffffffffff021916908373ffffffffffffffffffffffffffffffffffffffff160217905550604082015181600201556060820151816003015560808201518160040160006101000a81548173ffffffffffffffffffffffffffffffffffffffff021916908373ffffffffffffffffffffffffffffffffffffffff16021790555060a08201518160050160006101000a81548173ffffffffffffffffffffffffffffffffffffffff021916908373ffffffffffffffffffffffffffffffffffffffff16021790555060c08201518160050160146101000a81548160ff021916908360058111156108d8576108d761293d565b5b021790555060e082015181600601556101008201518160070160006101000a81548160ff0219169083151502179055506101208201518160070160016101000a81548160ff02191690831515021790555090505060006064600254836060015161094291906130f1565b61094c9190613162565b905060008183606001516109609190613193565b90506000836080015173ffffffffffffffffffffffffffffffffffffffff168260405161098c906131f8565b60006040518083038185875af1925050503d80600081146109c9576040519150601f19603f3d011682016040523d82523d6000602084013e6109ce565b606091505b5050905080610a12576040517f08c379a0000000000000000000000000000000000000000000000000000000008152600401610a0990613259565b60405180910390fd5b6000600160009054906101000a900473ffffffffffffffffffffffffffffffffffffffff1673ffffffffffffffffffffffffffffffffffffffff1684604051610a5a906131f8565b60006040518083038185875af1925050503d8060008114610a97576040519150601f19603f3d011682016040523d82523d6000602084013e610a9c565b606091505b5050905080610ae0576040517f08c379a0000000000000000000000000000000000000000000000000000000008152600401610ad7906132c5565b60405180910390fd5b8460a0015173ffffffffffffffffffffffffffffffffffffffff16856080015173ffffffffffffffffffffffffffffffffffffffff167f58f7dc41439c42b920a4789a95776057055d961cb0cf1916b905abadcddc560c8760000151868842604051610b4f94939291906132e5565b60405180910390a3505050505050565b600160009054906101000a900473ffffffffffffffffffffffffffffffffffffffff1681565b610b8d6120be565b610b9760006123c5565b565b610ba16120be565b80600160006101000a81548173ffffffffffffffffffffffffffffffffffffffff021916908373ffffffffffffffffffffffffffffffffffffffff16021790555050565b60025481565b60008111610c2e576040517f08c379a0000000000000000000000000000000000000000000000000000000008152600401610c2590612e07565b60405180910390fd5b3373ffffffffffffffffffffffffffffffffffffffff168373ffffffffffffffffffffffffffffffffffffffff16636352211e846040518263ffffffff1660e01b8152600401610c7e91906127a9565b602060405180830381865afa158015610c9b573d6000803e3d6000fd5b505050506040513d601f19601f82011682018060405250810190610cbf919061333f565b73ffffffffffffffffffffffffffffffffffffffff1614610d15576040517f08c379a0000000000000000000000000000000000000000000000000000000008152600401610d0c906133de565b60405180910390fd5b8273ffffffffffffffffffffffffffffffffffffffff166323b872dd3330856040518463ffffffff1660e01b8152600401610d52939291906133fe565b600060405180830381600087803b158015610d6c57600080fd5b505af1158015610d80573d6000803e3d6000fd5b505050506000600480549050905060006040518061014001604052808381526020018673ffffffffffffffffffffffffffffffffffffffff1681526020018581526020018481526020013373ffffffffffffffffffffffffffffffffffffffff168152602001600073ffffffffffffffffffffffffffffffffffffffff16815260200160016005811115610e1757610e1661293d565b5b815260200142815260200160001515815260200160001515815250905060048190806001815401808255809150506001900390600052602060002090600802016000909190919091506000820151816000015560208201518160010160006101000a81548173ffffffffffffffffffffffffffffffffffffffff021916908373ffffffffffffffffffffffffffffffffffffffff160217905550604082015181600201556060820151816003015560808201518160040160006101000a81548173ffffffffffffffffffffffffffffffffffffffff021916908373ffffffffffffffffffffffffffffffffffffffff16021790555060a08201518160050160006101000a81548173ffffffffffffffffffffffffffffffffffffffff021916908373ffffffffffffffffffffffffffffffffffffffff16021790555060c08201518160050160146101000a81548160ff02191690836005811115610f7e57610f7d61293d565b5b021790555060e082015181600601556101008201518160070160006101000a81548160ff0219169083151502179055506101208201518160070160016101000a81548160ff021916908315150217905550505060056000610fdd612489565b73ffffffffffffffffffffffffffffffffffffffff1673ffffffffffffffffffffffffffffffffffffffff1681526020019081526020016000208290806001815401808255809150506001900390600052602060002001600090919091909150553373ffffffffffffffffffffffffffffffffffffffff1684837fb12fa1017b3fcc59d1f6a661ce0f4b67b61586a3e7bf07662ee684e79f6da65288874260405161108a93929190613435565b60405180910390a45050505050565b6060600560008373ffffffffffffffffffffffffffffffffffffffff1673ffffffffffffffffffffffffffffffffffffffff16815260200190815260200160002080548060200260200160405190810160405280929190818152602001828054801561112457602002820191906000526020600020905b815481526020019060010190808311611110575b50505050509050919050565b60008060009054906101000a900473ffffffffffffffffffffffffffffffffffffffff16905090565b606060008383905067ffffffffffffffff81111561117a5761117961346c565b5b6040519080825280602002602001820160405280156111b357816020015b6111a0612491565b8152602001906001900390816111985790505b50905060005b8484905081101561142c5760005b600480549050811015611418578585838181106111e7576111e6612e27565b5b905060200201356004828154811061120257611201612e27565b5b90600052602060002090600802016000015403611405576004818154811061122d5761122c612e27565b5b906000526020600020906008020160405180610140016040529081600082015481526020016001820160009054906101000a900473ffffffffffffffffffffffffffffffffffffffff1673ffffffffffffffffffffffffffffffffffffffff1673ffffffffffffffffffffffffffffffffffffffff16815260200160028201548152602001600382015481526020016004820160009054906101000a900473ffffffffffffffffffffffffffffffffffffffff1673ffffffffffffffffffffffffffffffffffffffff1673ffffffffffffffffffffffffffffffffffffffff1681526020016005820160009054906101000a900473ffffffffffffffffffffffffffffffffffffffff1673ffffffffffffffffffffffffffffffffffffffff1673ffffffffffffffffffffffffffffffffffffffff1681526020016005820160149054906101000a900460ff16600581111561138c5761138b61293d565b5b600581111561139e5761139d61293d565b5b8152602001600682015481526020016007820160009054906101000a900460ff161515151581526020016007820160019054906101000a900460ff1615151515815250508383815181106113f5576113f4612e27565b5b6020026020010181905250611418565b80806114109061349b565b9150506111c7565b5080806114249061349b565b9150506111b9565b508091505092915050565b600061144282612145565b9050806080015173ffffffffffffffffffffffffffffffffffffffff16611467612489565b73ffffffffffffffffffffffffffffffffffffffff1614806114bf57508060a0015173ffffffffffffffffffffffffffffffffffffffff166114a7612489565b73ffffffffffffffffffffffffffffffffffffffff16145b6114fe576040517f08c379a00000000000000000000000000000000000000000000000000000000081526004016114f590613555565b60405180910390fd5b600160058111156115125761151161293d565b5b8160c0015160058111156115295761152861293d565b5b14801561156c5750611539612489565b73ffffffffffffffffffffffffffffffffffffffff16816080015173ffffffffffffffffffffffffffffffffffffffff16145b1561162557806020015173ffffffffffffffffffffffffffffffffffffffff166323b872dd3061159a612489565b84604001516040518463ffffffff1660e01b81526004016115bd939291906133fe565b600060405180830381600087803b1580156115d757600080fd5b505af11580156115eb573d6000803e3d6000fd5b5050505060048160c0019060058111156116085761160761293d565b5b9081600581111561161c5761161b61293d565b5b8152505061194d565b600260058111156116395761163861293d565b5b8160c0015160058111156116505761164f61293d565b5b0361191157600061165f612489565b73ffffffffffffffffffffffffffffffffffffffff16826080015173ffffffffffffffffffffffffffffffffffffffff16149050600061169d612489565b73ffffffffffffffffffffffffffffffffffffffff168360a0015173ffffffffffffffffffffffffffffffffffffffff161490508115611730578261010001511561171d576040517f08c379a0000000000000000000000000000000000000000000000000000000008152600401611714906135e7565b60405180910390fd5b6001836101000190151590811515815250505b801561178f578261012001511561177c576040517f08c379a000000000000000000000000000000000000000000000000000000000815260040161177390613679565b60405180910390fd5b6001836101200190151590811515815250505b82610100015180156117a357508261012001515b1561190a57826020015173ffffffffffffffffffffffffffffffffffffffff166323b872dd30856080015186604001516040518463ffffffff1660e01b81526004016117f19392919061308b565b600060405180830381600087803b15801561180b57600080fd5b505af115801561181f573d6000803e3d6000fd5b5050505060008360a0015173ffffffffffffffffffffffffffffffffffffffff168460600151604051611851906131f8565b60006040518083038185875af1925050503d806000811461188e576040519150601f19603f3d011682016040523d82523d6000602084013e611893565b606091505b50509050806118d7576040517f08c379a00000000000000000000000000000000000000000000000000000000081526004016118ce906136e5565b60405180910390fd5b60048460c0019060058111156118f0576118ef61293d565b5b908160058111156119045761190361293d565b5b81525050505b505061194c565b6040517f08c379a000000000000000000000000000000000000000000000000000000000815260040161194390613751565b60405180910390fd5b5b80600482600001518154811061196657611965612e27565b5b90600052602060002090600802016000820151816000015560208201518160010160006101000a81548173ffffffffffffffffffffffffffffffffffffffff021916908373ffffffffffffffffffffffffffffffffffffffff160217905550604082015181600201556060820151816003015560808201518160040160006101000a81548173ffffffffffffffffffffffffffffffffffffffff021916908373ffffffffffffffffffffffffffffffffffffffff16021790555060a08201518160050160006101000a81548173ffffffffffffffffffffffffffffffffffffffff021916908373ffffffffffffffffffffffffffffffffffffffff16021790555060c08201518160050160146101000a81548160ff02191690836005811115611a9257611a9161293d565b5b021790555060e082015181600601556101008201518160070160006101000a81548160ff0219169083151502179055506101208201518160070160016101000a81548160ff0219169083151502179055509050507f87362ca8fed8c23f9ce7c65863d119297171e301ed7dd0596c634354cf28079f816000015142604051611b1b929190613771565b60405180910390a15050565b60048181548110611b3757600080fd5b90600052602060002090600802016000915090508060000154908060010160009054906101000a900473ffffffffffffffffffffffffffffffffffffffff16908060020154908060030154908060040160009054906101000a900473ffffffffffffffffffffffffffffffffffffffff16908060050160009054906101000a900473ffffffffffffffffffffffffffffffffffffffff16908060050160149054906101000a900460ff16908060060154908060070160009054906101000a900460ff16908060070160019054906101000a900460ff1690508a565b6060600360009054906101000a900473ffffffffffffffffffffffffffffffffffffffff1673ffffffffffffffffffffffffffffffffffffffff16631a9fcb946040518163ffffffff1660e01b8152600401600060405180830381865afa158015611c81573d6000803e3d6000fd5b505050506040513d6000823e3d601f19601f82011682018060405250810190611caa91906138ba565b905090565b6000611cba82612145565b90508060600151341015611d03576040517f08c379a0000000000000000000000000000000000000000000000000000000008152600401611cfa9061394f565b60405180910390fd5b60016005811115611d1757611d1661293d565b5b8160c001516005811115611d2e57611d2d61293d565b5b14611d6e576040517f08c379a0000000000000000000000000000000000000000000000000000000008152600401611d65906139bb565b60405180910390fd5b338160a0019073ffffffffffffffffffffffffffffffffffffffff16908173ffffffffffffffffffffffffffffffffffffffff168152505060028160c001906005811115611dbf57611dbe61293d565b5b90816005811115611dd357611dd261293d565b5b81525050806004826000015181548110611df057611def612e27565b5b90600052602060002090600802016000820151816000015560208201518160010160006101000a81548173ffffffffffffffffffffffffffffffffffffffff021916908373ffffffffffffffffffffffffffffffffffffffff160217905550604082015181600201556060820151816003015560808201518160040160006101000a81548173ffffffffffffffffffffffffffffffffffffffff021916908373ffffffffffffffffffffffffffffffffffffffff16021790555060a08201518160050160006101000a81548173ffffffffffffffffffffffffffffffffffffffff021916908373ffffffffffffffffffffffffffffffffffffffff16021790555060c08201518160050160146101000a81548160ff02191690836005811115611f1c57611f1b61293d565b5b021790555060e082015181600601556101008201518160070160006101000a81548160ff0219169083151502179055506101208201518160070160016101000a81548160ff02191690831515021790555090505060066000611f7c612489565b73ffffffffffffffffffffffffffffffffffffffff1673ffffffffffffffffffffffffffffffffffffffff168152602001908152602001600020816000015190806001815401808255809150506001900390600052602060002001600090919091909150553373ffffffffffffffffffffffffffffffffffffffff1681600001517f25cea44d301c940e93e43455c77efc0ca04d2983228d031dfc78e3c4ba7c23044260405161202c91906127a9565b60405180910390a35050565b6120406120be565b600073ffffffffffffffffffffffffffffffffffffffff168173ffffffffffffffffffffffffffffffffffffffff16036120b25760006040517f1e4fbdf70000000000000000000000000000000000000000000000000000000081526004016120a99190612826565b60405180910390fd5b6120bb816123c5565b50565b6120c6612489565b73ffffffffffffffffffffffffffffffffffffffff166120e4611130565b73ffffffffffffffffffffffffffffffffffffffff161461214357612107612489565b6040517f118cdaa700000000000000000000000000000000000000000000000000000000815260040161213a9190612826565b60405180910390fd5b565b61214d612491565b6004805490508210612194576040517f08c379a000000000000000000000000000000000000000000000000000000000815260040161218b90613a27565b60405180910390fd5b61219c612491565b60005b6004805490508110156123bb5783600482815481106121c1576121c0612e27565b5b906000526020600020906008020160000154036123a857600481815481106121ec576121eb612e27565b5b906000526020600020906008020160405180610140016040529081600082015481526020016001820160009054906101000a900473ffffffffffffffffffffffffffffffffffffffff1673ffffffffffffffffffffffffffffffffffffffff1673ffffffffffffffffffffffffffffffffffffffff16815260200160028201548152602001600382015481526020016004820160009054906101000a900473ffffffffffffffffffffffffffffffffffffffff1673ffffffffffffffffffffffffffffffffffffffff1673ffffffffffffffffffffffffffffffffffffffff1681526020016005820160009054906101000a900473ffffffffffffffffffffffffffffffffffffffff1673ffffffffffffffffffffffffffffffffffffffff1673ffffffffffffffffffffffffffffffffffffffff1681526020016005820160149054906101000a900460ff16600581111561234b5761234a61293d565b5b600581111561235d5761235c61293d565b5b8152602001600682015481526020016007820160009054906101000a900460ff161515151581526020016007820160019054906101000a900460ff16151515158152505091506123bb565b80806123b39061349b565b91505061219f565b5080915050919050565b60008060009054906101000a900473ffffffffffffffffffffffffffffffffffffffff169050816000806101000a81548173ffffffffffffffffffffffffffffffffffffffff021916908373ffffffffffffffffffffffffffffffffffffffff1602179055508173ffffffffffffffffffffffffffffffffffffffff168173ffffffffffffffffffffffffffffffffffffffff167f8be0079c531659141344cd1fd0a4f28419497f9722a3daafe3b4186f6b6457e060405160405180910390a35050565b600033905090565b60405180610140016040528060008152602001600073ffffffffffffffffffffffffffffffffffffffff1681526020016000815260200160008152602001600073ffffffffffffffffffffffffffffffffffffffff168152602001600073ffffffffffffffffffffffffffffffffffffffff1681526020016000600581111561251d5761251c61293d565b5b8152602001600081526020016000151581526020016000151581525090565b6000604051905090565b600080fd5b600080fd5b600073ffffffffffffffffffffffffffffffffffffffff82169050919050565b600061257b82612550565b9050919050565b61258b81612570565b811461259657600080fd5b50565b6000813590506125a881612582565b92915050565b6000602082840312156125c4576125c3612546565b5b60006125d284828501612599565b91505092915050565b600081519050919050565b600082825260208201905092915050565b6000819050602082019050919050565b6000819050919050565b61261a81612607565b82525050565b600061262c8383612611565b60208301905092915050565b6000602082019050919050565b6000612650826125db565b61265a81856125e6565b9350612665836125f7565b8060005b8381101561269657815161267d8882612620565b975061268883612638565b925050600181019050612669565b5085935050505092915050565b600060208201905081810360008301526126bd8184612645565b905092915050565b6126ce81612607565b81146126d957600080fd5b50565b6000813590506126eb816126c5565b92915050565b6000806040838503121561270857612707612546565b5b6000612716858286016126dc565b9250506020612727858286016126dc565b9150509250929050565b60006020828403121561274757612746612546565b5b6000612755848285016126dc565b91505092915050565b600061276982612550565b9050919050565b6127798161275e565b82525050565b60006020820190506127946000830184612770565b92915050565b6127a381612607565b82525050565b60006020820190506127be600083018461279a565b92915050565b6000806000606084860312156127dd576127dc612546565b5b60006127eb86828701612599565b93505060206127fc868287016126dc565b925050604061280d868287016126dc565b9150509250925092565b61282081612570565b82525050565b600060208201905061283b6000830184612817565b92915050565b600080fd5b600080fd5b600080fd5b60008083601f84011261286657612865612841565b5b8235905067ffffffffffffffff81111561288357612882612846565b5b60208301915083602082028301111561289f5761289e61284b565b5b9250929050565b600080602083850312156128bd576128bc612546565b5b600083013567ffffffffffffffff8111156128db576128da61254b565b5b6128e785828601612850565b92509250509250929050565b600081519050919050565b600082825260208201905092915050565b6000819050602082019050919050565b61292881612570565b82525050565b6129378161275e565b82525050565b7f4e487b7100000000000000000000000000000000000000000000000000000000600052602160045260246000fd5b6006811061297d5761297c61293d565b5b50565b600081905061298e8261296c565b919050565b600061299e82612980565b9050919050565b6129ae81612993565b82525050565b60008115159050919050565b6129c9816129b4565b82525050565b610140820160008201516129e66000850182612611565b5060208201516129f9602085018261291f565b506040820151612a0c6040850182612611565b506060820151612a1f6060850182612611565b506080820151612a32608085018261292e565b5060a0820151612a4560a085018261292e565b5060c0820151612a5860c08501826129a5565b5060e0820151612a6b60e0850182612611565b50610100820151612a806101008501826129c0565b50610120820151612a956101208501826129c0565b50505050565b6000612aa783836129cf565b6101408301905092915050565b6000602082019050919050565b6000612acc826128f3565b612ad681856128fe565b9350612ae18361290f565b8060005b83811015612b12578151612af98882612a9b565b9750612b0483612ab4565b925050600181019050612ae5565b5085935050505092915050565b60006020820190508181036000830152612b398184612ac1565b905092915050565b612b4a81612993565b82525050565b612b59816129b4565b82525050565b600061014082019050612b75600083018d61279a565b612b82602083018c612817565b612b8f604083018b61279a565b612b9c606083018a61279a565b612ba96080830189612770565b612bb660a0830188612770565b612bc360c0830187612b41565b612bd060e083018661279a565b612bde610100830185612b50565b612bec610120830184612b50565b9b9a5050505050505050505050565b600081519050919050565b600082825260208201905092915050565b6000819050602082019050919050565b6000612c33838361291f565b60208301905092915050565b6000602082019050919050565b6000612c5782612bfb565b612c618185612c06565b9350612c6c83612c17565b8060005b83811015612c9d578151612c848882612c27565b9750612c8f83612c3f565b925050600181019050612c70565b5085935050505092915050565b60006020820190508181036000830152612cc48184612c4c565b905092915050565b600082825260208201905092915050565b7f436f6c6c656374696f6e20776173206e6f74207265636f676e697a65642c206960008201527f74206973206e6f7420706f737369626c6520746f20657363726f7720616e206960208201527f74656d0000000000000000000000000000000000000000000000000000000000604082015250565b6000612d5f604383612ccc565b9150612d6a82612cdd565b606082019050919050565b60006020820190508181036000830152612d8e81612d52565b9050919050565b7f5072696365206f6620746865206974656d206d7573742062652073706563696660008201527f6965640000000000000000000000000000000000000000000000000000000000602082015250565b6000612df1602383612ccc565b9150612dfc82612d95565b604082019050919050565b60006020820190508181036000830152612e2081612de4565b9050919050565b7f4e487b7100000000000000000000000000000000000000000000000000000000600052603260045260246000fd5b7f50657263656e74616765206f6620666565732063616e6e6f742065786365656460008201527f2033302500000000000000000000000000000000000000000000000000000000602082015250565b6000612eb2602483612ccc565b9150612ebd82612e56565b604082019050919050565b60006020820190508181036000830152612ee181612ea5565b9050919050565b7f596f7520617265206e6f7420746865206974656d206275796572000000000000600082015250565b6000612f1e601a83612ccc565b9150612f2982612ee8565b602082019050919050565b60006020820190508181036000830152612f4d81612f11565b9050919050565b7f4e6f2073656c6c657220666f722074686973206974656d000000000000000000600082015250565b6000612f8a601783612ccc565b9150612f9582612f54565b602082019050919050565b60006020820190508181036000830152612fb981612f7d565b9050919050565b7f4974656d20686173206e6f74206265656e207265707572636861736564000000600082015250565b6000612ff6601d83612ccc565b915061300182612fc0565b602082019050919050565b6000602082019050818103600083015261302581612fe9565b9050919050565b6000819050919050565b600061305161304c61304784612550565b61302c565b612550565b9050919050565b600061306382613036565b9050919050565b600061307582613058565b9050919050565b6130858161306a565b82525050565b60006060820190506130a06000830186612817565b6130ad602083018561307c565b6130ba604083018461279a565b949350505050565b7f4e487b7100000000000000000000000000000000000000000000000000000000600052601160045260246000fd5b60006130fc82612607565b915061310783612607565b925082820261311581612607565b9150828204841483151761312c5761312b6130c2565b5b5092915050565b7f4e487b7100000000000000000000000000000000000000000000000000000000600052601260045260246000fd5b600061316d82612607565b915061317883612607565b92508261318857613187613133565b5b828204905092915050565b600061319e82612607565b91506131a983612607565b92508282039050818111156131c1576131c06130c2565b5b92915050565b600081905092915050565b50565b60006131e26000836131c7565b91506131ed826131d2565b600082019050919050565b6000613203826131d5565b9150819050919050565b7f4661696c656420746f2073656e642066756e647320746f2073656c6c65720000600082015250565b6000613243601e83612ccc565b915061324e8261320d565b602082019050919050565b6000602082019050818103600083015261327281613236565b9050919050565b7f576974686472617720646964206e6f7420776f726b0000000000000000000000600082015250565b60006132af601583612ccc565b91506132ba82613279565b602082019050919050565b600060208201905081810360008301526132de816132a2565b9050919050565b60006080820190506132fa600083018761279a565b613307602083018661279a565b613314604083018561279a565b613321606083018461279a565b95945050505050565b60008151905061333981612582565b92915050565b60006020828403121561335557613354612546565b5b60006133638482850161332a565b91505092915050565b7f596f7520617265206e6f7420746865206f776e6572206f662074686973204e4660008201527f5400000000000000000000000000000000000000000000000000000000000000602082015250565b60006133c8602183612ccc565b91506133d38261336c565b604082019050919050565b600060208201905081810360008301526133f7816133bb565b9050919050565b60006060820190506134136000830186612817565b6134206020830185612817565b61342d604083018461279a565b949350505050565b600060608201905061344a6000830186612817565b613457602083018561279a565b613464604083018461279a565b949350505050565b7f4e487b7100000000000000000000000000000000000000000000000000000000600052604160045260246000fd5b60006134a682612607565b91507fffffffffffffffffffffffffffffffffffffffffffffffffffffffffffffffff82036134d8576134d76130c2565b5b600182019050919050565b7f4d7573742062652061206275796572206f722073656c6c6572206f662074686560008201527f206974656d000000000000000000000000000000000000000000000000000000602082015250565b600061353f602583612ccc565b915061354a826134e3565b604082019050919050565b6000602082019050818103600083015261356e81613532565b9050919050565b7f53656c6c657220616c7265616479207265717565737465642063616e63656c6c60008201527f6174696f6e000000000000000000000000000000000000000000000000000000602082015250565b60006135d1602583612ccc565b91506135dc82613575565b604082019050919050565b60006020820190508181036000830152613600816135c4565b9050919050565b7f427579657220616c7265616479207265717565737465642063616e63656c6c6160008201527f74696f6e00000000000000000000000000000000000000000000000000000000602082015250565b6000613663602483612ccc565b915061366e82613607565b604082019050919050565b6000602082019050818103600083015261369281613656565b9050919050565b7f556e61626c6520746f20726566756e642066756e647320746f20627579657200600082015250565b60006136cf601f83612ccc565b91506136da82613699565b602082019050919050565b600060208201905081810360008301526136fe816136c2565b9050919050565b7f556e61626c6520746f2063616e63656c2073616c650000000000000000000000600082015250565b600061373b601583612ccc565b915061374682613705565b602082019050919050565b6000602082019050818103600083015261376a8161372e565b9050919050565b6000604082019050613786600083018561279a565b613793602083018461279a565b9392505050565b6000601f19601f8301169050919050565b6137b48261379a565b810181811067ffffffffffffffff821117156137d3576137d261346c565b5b80604052505050565b60006137e661253c565b90506137f282826137ab565b919050565b600067ffffffffffffffff8211156138125761381161346c565b5b602082029050602081019050919050565b6000613836613831846137f7565b6137dc565b905080838252602082019050602084028301858111156138595761385861284b565b5b835b81811015613882578061386e888261332a565b84526020840193505060208101905061385b565b5050509392505050565b600082601f8301126138a1576138a0612841565b5b81516138b1848260208601613823565b91505092915050565b6000602082840312156138d0576138cf612546565b5b600082015167ffffffffffffffff8111156138ee576138ed61254b565b5b6138fa8482850161388c565b91505092915050565b7f4e6f7420656e6f7567682066756e64732070726f766964656400000000000000600082015250565b6000613939601983612ccc565b915061394482613903565b602082019050919050565b600060208201905081810360008301526139688161392c565b9050919050565b7f4974656d206e6f7420657363726f776564000000000000000000000000000000600082015250565b60006139a5601183612ccc565b91506139b08261396f565b602082019050919050565b600060208201905081810360008301526139d481613998565b9050919050565b7f4974656d20646f6573206e6f7420657869737400000000000000000000000000600082015250565b6000613a11601383612ccc565b9150613a1c826139db565b602082019050919050565b60006020820190508181036000830152613a4081613a04565b905091905056fea26469706673582212204976f54505b717f4912835b5f464aff143ffd244de9e26f42f7782cdda9e187464736f6c63430008140033",
  "linkReferences": {},
  "deployedLinkReferences": {}
}