{
  "_format": "hh-sol-artifact-1",
  "contractName": "NWMain",
  "sourceName": "contracts/v1/NWMain.sol",
  "abi": [
    {
      "inputs": [
        {
          "internalType": "contract INWERC721Factory",
          "name": "_factory",
          "type": "address"
        },
        {
          "internalType": "uint256",
          "name": "_feePercent",
          "type": "uint256"
        }
      ],
      "stateMutability": "nonpayable",
      "type": "constructor"
    },
    {
      "inputs": [
        {
          "internalType": "address",
          "name": "owner",
          "type": "address"
        }
      ],
      "name": "OwnableInvalidOwner",
      "type": "error"
    },
    {
      "inputs": [
        {
          "internalType": "address",
          "name": "account",
          "type": "address"
        }
      ],
      "name": "OwnableUnauthorizedAccount",
      "type": "error"
    },
    {
      "inputs": [],
      "name": "ReentrancyGuardReentrantCall",
      "type": "error"
    },
    {
      "anonymous": false,
      "inputs": [
        {
          "indexed": true,
          "internalType": "uint256",
          "name": "itemId",
          "type": "uint256"
        },
        {
          "indexed": true,
          "internalType": "uint256",
          "name": "tokenId",
          "type": "uint256"
        },
        {
          "indexed": true,
          "internalType": "address",
          "name": "seller",
          "type": "address"
        },
        {
          "indexed": false,
          "internalType": "address",
          "name": "collection",
          "type": "address"
        },
        {
          "indexed": false,
          "internalType": "uint256",
          "name": "priceInWei",
          "type": "uint256"
        },
        {
          "indexed": false,
          "internalType": "uint256",
          "name": "timestamp",
          "type": "uint256"
        }
      ],
      "name": "EscrowedItems",
      "type": "event"
    },
    {
      "anonymous": false,
      "inputs": [
        {
          "indexed": true,
          "internalType": "address",
          "name": "previousOwner",
          "type": "address"
        },
        {
          "indexed": true,
          "internalType": "address",
          "name": "newOwner",
          "type": "address"
        }
      ],
      "name": "OwnershipTransferred",
      "type": "event"
    },
    {
      "anonymous": false,
      "inputs": [
        {
          "indexed": true,
          "internalType": "uint256",
          "name": "itemId",
          "type": "uint256"
        },
        {
          "indexed": true,
          "internalType": "address",
          "name": "buyer",
          "type": "address"
        },
        {
          "indexed": false,
          "internalType": "uint256",
          "name": "timestamp",
          "type": "uint256"
        }
      ],
      "name": "PaidItems",
      "type": "event"
    },
    {
      "anonymous": false,
      "inputs": [
        {
          "indexed": false,
          "internalType": "uint256",
          "name": "itemId",
          "type": "uint256"
        },
        {
          "indexed": false,
          "internalType": "uint256",
          "name": "timestamp",
          "type": "uint256"
        }
      ],
      "name": "SaleConcellation",
      "type": "event"
    },
    {
      "anonymous": false,
      "inputs": [
        {
          "indexed": false,
          "internalType": "uint256",
          "name": "itemId",
          "type": "uint256"
        },
        {
          "indexed": true,
          "internalType": "address",
          "name": "seller",
          "type": "address"
        },
        {
          "indexed": true,
          "internalType": "address",
          "name": "buyer",
          "type": "address"
        },
        {
          "indexed": false,
          "internalType": "uint256",
          "name": "netPriceInWei",
          "type": "uint256"
        },
        {
          "indexed": false,
          "internalType": "uint256",
          "name": "amountOfFees",
          "type": "uint256"
        },
        {
          "indexed": false,
          "internalType": "uint256",
          "name": "timestamp",
          "type": "uint256"
        }
      ],
      "name": "SoldItems",
      "type": "event"
    },
    {
      "inputs": [
        {
          "internalType": "uint256",
          "name": "_itemId",
          "type": "uint256"
        }
      ],
      "name": "buyItem",
      "outputs": [],
      "stateMutability": "payable",
      "type": "function"
    },
    {
      "inputs": [
        {
          "internalType": "uint256",
          "name": "_itemId",
          "type": "uint256"
        }
      ],
      "name": "cancelSale",
      "outputs": [],
      "stateMutability": "payable",
      "type": "function"
    },
    {
      "inputs": [
        {
          "internalType": "address",
          "name": "_newFeeAccount",
          "type": "address"
        }
      ],
      "name": "changeFeeAccount",
      "outputs": [],
      "stateMutability": "nonpayable",
      "type": "function"
    },
    {
      "inputs": [
        {
          "internalType": "uint256",
          "name": "_newFeePercent",
          "type": "uint256"
        }
      ],
      "name": "changeFeePercent",
      "outputs": [],
      "stateMutability": "nonpayable",
      "type": "function"
    },
    {
      "inputs": [
        {
          "internalType": "uint256",
          "name": "_tokenId",
          "type": "uint256"
        },
        {
          "internalType": "uint256",
          "name": "_priceInWei",
          "type": "uint256"
        }
      ],
      "name": "escrowItem",
      "outputs": [],
      "stateMutability": "payable",
      "type": "function"
    },
    {
      "inputs": [
        {
          "internalType": "address",
          "name": "_collectionAddress",
          "type": "address"
        },
        {
          "internalType": "uint256",
          "name": "_tokenId",
          "type": "uint256"
        },
        {
          "internalType": "uint256",
          "name": "_priceInWei",
          "type": "uint256"
        }
      ],
      "name": "escrowItem",
      "outputs": [],
      "stateMutability": "nonpayable",
      "type": "function"
    },
    {
      "inputs": [],
      "name": "feeAccount",
      "outputs": [
        {
          "internalType": "address payable",
          "name": "",
          "type": "address"
        }
      ],
      "stateMutability": "view",
      "type": "function"
    },
    {
      "inputs": [],
      "name": "feePercent",
      "outputs": [
        {
          "internalType": "uint256",
          "name": "",
          "type": "uint256"
        }
      ],
      "stateMutability": "view",
      "type": "function"
    },
    {
      "inputs": [],
      "name": "getFactoryCollections",
      "outputs": [
        {
          "internalType": "address[]",
          "name": "",
          "type": "address[]"
        }
      ],
      "stateMutability": "view",
      "type": "function"
    },
    {
      "inputs": [
        {
          "internalType": "uint256[]",
          "name": "_ids",
          "type": "uint256[]"
        }
      ],
      "name": "getItemsBatch",
      "outputs": [
        {
          "components": [
            {
              "internalType": "uint256",
              "name": "itemId",
              "type": "uint256"
            },
            {
              "internalType": "address",
              "name": "collection",
              "type": "address"
            },
            {
              "internalType": "uint256",
              "name": "tokenId",
              "type": "uint256"
            },
            {
              "internalType": "uint256",
              "name": "priceInWei",
              "type": "uint256"
            },
            {
              "internalType": "address payable",
              "name": "seller",
              "type": "address"
            },
            {
              "internalType": "address payable",
              "name": "buyer",
              "type": "address"
            },
            {
              "internalType": "enum NWMain.SaleStatus",
              "name": "status",
              "type": "uint8"
            },
            {
              "internalType": "uint256",
              "name": "timestamp",
              "type": "uint256"
            },
            {
              "internalType": "bool",
              "name": "sellerRequestsCancellation",
              "type": "bool"
            },
            {
              "internalType": "bool",
              "name": "buyerRequestsCancellation",
              "type": "bool"
            }
          ],
          "internalType": "struct NWMain.Item[]",
          "name": "",
          "type": "tuple[]"
        }
      ],
      "stateMutability": "view",
      "type": "function"
    },
    {
      "inputs": [
        {
          "internalType": "address",
          "name": "_buyer",
          "type": "address"
        }
      ],
      "name": "getItemsIdsForPurchase",
      "outputs": [
        {
          "internalType": "uint256[]",
          "name": "",
          "type": "uint256[]"
        }
      ],
      "stateMutability": "view",
      "type": "function"
    },
    {
      "inputs": [
        {
          "internalType": "address",
          "name": "_seller",
          "type": "address"
        }
      ],
      "name": "getItemsIdsForSale",
      "outputs": [
        {
          "internalType": "uint256[]",
          "name": "",
          "type": "uint256[]"
        }
      ],
      "stateMutability": "view",
      "type": "function"
    },
    {
      "inputs": [
        {
          "internalType": "uint256",
          "name": "",
          "type": "uint256"
        }
      ],
      "name": "items",
      "outputs": [
        {
          "internalType": "uint256",
          "name": "itemId",
          "type": "uint256"
        },
        {
          "internalType": "address",
          "name": "collection",
          "type": "address"
        },
        {
          "internalType": "uint256",
          "name": "tokenId",
          "type": "uint256"
        },
        {
          "internalType": "uint256",
          "name": "priceInWei",
          "type": "uint256"
        },
        {
          "internalType": "address payable",
          "name": "seller",
          "type": "address"
        },
        {
          "internalType": "address payable",
          "name": "buyer",
          "type": "address"
        },
        {
          "internalType": "enum NWMain.SaleStatus",
          "name": "status",
          "type": "uint8"
        },
        {
          "internalType": "uint256",
          "name": "timestamp",
          "type": "uint256"
        },
        {
          "internalType": "bool",
          "name": "sellerRequestsCancellation",
          "type": "bool"
        },
        {
          "internalType": "bool",
          "name": "buyerRequestsCancellation",
          "type": "bool"
        }
      ],
      "stateMutability": "view",
      "type": "function"
    },
    {
      "inputs": [
        {
          "internalType": "address",
          "name": "",
          "type": "address"
        },
        {
          "internalType": "address",
          "name": "",
          "type": "address"
        },
        {
          "internalType": "uint256",
          "name": "",
          "type": "uint256"
        },
        {
          "internalType": "bytes",
          "name": "",
          "type": "bytes"
        }
      ],
      "name": "onERC721Received",
      "outputs": [
        {
          "internalType": "bytes4",
          "name": "",
          "type": "bytes4"
        }
      ],
      "stateMutability": "nonpayable",
      "type": "function"
    },
    {
      "inputs": [],
      "name": "owner",
      "outputs": [
        {
          "internalType": "address",
          "name": "",
          "type": "address"
        }
      ],
      "stateMutability": "view",
      "type": "function"
    },
    {
      "inputs": [],
      "name": "renounceOwnership",
      "outputs": [],
      "stateMutability": "nonpayable",
      "type": "function"
    },
    {
      "inputs": [
        {
          "internalType": "address",
          "name": "newOwner",
          "type": "address"
        }
      ],
      "name": "transferOwnership",
      "outputs": [],
      "stateMutability": "nonpayable",
      "type": "function"
    },
    {
      "inputs": [
        {
          "internalType": "uint256",
          "name": "_itemId",
          "type": "uint256"
        }
      ],
      "name": "validateItem",
      "outputs": [],
      "stateMutability": "payable",
      "type": "function"
    }
  ],
  "bytecode": "0x60806040523480156200001157600080fd5b5060405162003f5638038062003f568339818101604052810190620000379190620002d4565b33600073ffffffffffffffffffffffffffffffffffffffff168173ffffffffffffffffffffffffffffffffffffffff1603620000ad5760006040517f1e4fbdf7000000000000000000000000000000000000000000000000000000008152600401620000a491906200032c565b60405180910390fd5b620000be816200015760201b60201c565b506001808190555033600260006101000a81548173ffffffffffffffffffffffffffffffffffffffff021916908373ffffffffffffffffffffffffffffffffffffffff1602179055508060038190555081600460006101000a81548173ffffffffffffffffffffffffffffffffffffffff021916908373ffffffffffffffffffffffffffffffffffffffff160217905550505062000349565b60008060009054906101000a900473ffffffffffffffffffffffffffffffffffffffff169050816000806101000a81548173ffffffffffffffffffffffffffffffffffffffff021916908373ffffffffffffffffffffffffffffffffffffffff1602179055508173ffffffffffffffffffffffffffffffffffffffff168173ffffffffffffffffffffffffffffffffffffffff167f8be0079c531659141344cd1fd0a4f28419497f9722a3daafe3b4186f6b6457e060405160405180910390a35050565b600080fd5b600073ffffffffffffffffffffffffffffffffffffffff82169050919050565b60006200024d8262000220565b9050919050565b6000620002618262000240565b9050919050565b620002738162000254565b81146200027f57600080fd5b50565b600081519050620002938162000268565b92915050565b6000819050919050565b620002ae8162000299565b8114620002ba57600080fd5b50565b600081519050620002ce81620002a3565b92915050565b60008060408385031215620002ee57620002ed6200021b565b5b6000620002fe8582860162000282565b92505060206200031185828601620002bd565b9150509250929050565b620003268162000240565b82525050565b60006020820190506200034360008301846200031b565b92915050565b613bfd80620003596000396000f3fe6080604052600436106101095760003560e01c806387687d5511610095578063bd94b00511610064578063bd94b0051461034d578063bfb231d214610369578063c2123fef146103af578063e7fb74c7146103da578063f2fde38b146103f657610109565b806387687d551461027f57806387c605bc146102a85780638da5cb5b146102e5578063a58448411461031057610109565b8063635aa34f116100dc578063635aa34f146101cd57806365e17c9d146101e9578063715018a61461021457806371ffcb161461022b5780637fd6f15c1461025457610109565b806304daea4d1461010e5780630fe6f0571461014b578063150b7a021461016757806334eddf3e146101a4575b600080fd5b34801561011a57600080fd5b506101356004803603810190610130919061260c565b61041f565b6040516101429190612701565b60405180910390f35b6101656004803603810190610160919061274f565b6104b6565b005b34801561017357600080fd5b5061018e600480360381019061018991906128d5565b610575565b60405161019b9190612993565b60405180910390f35b3480156101b057600080fd5b506101cb60048036038101906101c691906129ae565b610589565b005b6101e760048036038101906101e291906129ae565b6105de565b005b3480156101f557600080fd5b506101fe610b50565b60405161020b91906129fc565b60405180910390f35b34801561022057600080fd5b50610229610b76565b005b34801561023757600080fd5b50610252600480360381019061024d919061260c565b610b8a565b005b34801561026057600080fd5b50610269610bd6565b6040516102769190612a26565b60405180910390f35b34801561028b57600080fd5b506102a660048036038101906102a19190612a41565b610bdc565b005b3480156102b457600080fd5b506102cf60048036038101906102ca919061260c565b611098565b6040516102dc9190612701565b60405180910390f35b3480156102f157600080fd5b506102fa61112f565b6040516103079190612aa3565b60405180910390f35b34801561031c57600080fd5b5061033760048036038101906103329190612b1e565b611158565b6040516103449190612d97565b60405180910390f35b610367600480360381019061036291906129ae565b611436565b005b34801561037557600080fd5b50610390600480360381019061038b91906129ae565b611b36565b6040516103a69a99989796959493929190612dd7565b60405180910390f35b3480156103bb57600080fd5b506103c4611c21565b6040516103d19190612f22565b60405180910390f35b6103f460048036038101906103ef91906129ae565b611cbe565b005b34801561040257600080fd5b5061041d6004803603810190610418919061260c565b612047565b005b6060600760008373ffffffffffffffffffffffffffffffffffffffff1673ffffffffffffffffffffffffffffffffffffffff1681526020019081526020016000208054806020026020016040519081016040528092919081815260200182805480156104aa57602002820191906000526020600020905b815481526020019060010190808311610496575b50505050509050919050565b60006104c0611c21565b5111610501576040517f08c379a00000000000000000000000000000000000000000000000000000000081526004016104f890612fed565b60405180910390fd5b60008111610544576040517f08c379a000000000000000000000000000000000000000000000000000000000815260040161053b9061307f565b60405180910390fd5b61057161054f611c21565b6000815181106105625761056161309f565b5b60200260200101518383610bdc565b5050565b600063150b7a0260e01b9050949350505050565b6105916120cd565b601e81106105d4576040517f08c379a00000000000000000000000000000000000000000000000000000000081526004016105cb90613140565b60405180910390fd5b8060038190555050565b6105e6612154565b60006105f18261219a565b90503373ffffffffffffffffffffffffffffffffffffffff168160a0015173ffffffffffffffffffffffffffffffffffffffff1614610665576040517f08c379a000000000000000000000000000000000000000000000000000000000815260040161065c906131ac565b60405180910390fd5b6002600581111561067957610678612bb5565b5b8160c0015160058111156106905761068f612bb5565b5b146106d0576040517f08c379a00000000000000000000000000000000000000000000000000000000081526004016106c790613218565b60405180910390fd5b806020015173ffffffffffffffffffffffffffffffffffffffff166342842e0e308360a0015184604001516040518463ffffffff1660e01b815260040161071993929190613297565b600060405180830381600087803b15801561073357600080fd5b505af1158015610747573d6000803e3d6000fd5b5050505060038160c00190600581111561076457610763612bb5565b5b9081600581111561077857610777612bb5565b5b815250508060058260000151815481106107955761079461309f565b5b90600052602060002090600802016000820151816000015560208201518160010160006101000a81548173ffffffffffffffffffffffffffffffffffffffff021916908373ffffffffffffffffffffffffffffffffffffffff160217905550604082015181600201556060820151816003015560808201518160040160006101000a81548173ffffffffffffffffffffffffffffffffffffffff021916908373ffffffffffffffffffffffffffffffffffffffff16021790555060a08201518160050160006101000a81548173ffffffffffffffffffffffffffffffffffffffff021916908373ffffffffffffffffffffffffffffffffffffffff16021790555060c08201518160050160146101000a81548160ff021916908360058111156108c1576108c0612bb5565b5b021790555060e082015181600601556101008201518160070160006101000a81548160ff0219169083151502179055506101208201518160070160016101000a81548160ff02191690831515021790555090505060006064600354836060015161092b91906132fd565b610935919061336e565b90506000818360600151610949919061339f565b90506000836080015173ffffffffffffffffffffffffffffffffffffffff168260405161097590613404565b60006040518083038185875af1925050503d80600081146109b2576040519150601f19603f3d011682016040523d82523d6000602084013e6109b7565b606091505b50509050806109fb576040517f08c379a00000000000000000000000000000000000000000000000000000000081526004016109f290613465565b60405180910390fd5b6000600260009054906101000a900473ffffffffffffffffffffffffffffffffffffffff1673ffffffffffffffffffffffffffffffffffffffff1684604051610a4390613404565b60006040518083038185875af1925050503d8060008114610a80576040519150601f19603f3d011682016040523d82523d6000602084013e610a85565b606091505b5050905080610ac9576040517f08c379a0000000000000000000000000000000000000000000000000000000008152600401610ac0906134d1565b60405180910390fd5b8460a0015173ffffffffffffffffffffffffffffffffffffffff16856080015173ffffffffffffffffffffffffffffffffffffffff167f58f7dc41439c42b920a4789a95776057055d961cb0cf1916b905abadcddc560c8760000151868842604051610b3894939291906134f1565b60405180910390a35050505050610b4d61241a565b50565b600260009054906101000a900473ffffffffffffffffffffffffffffffffffffffff1681565b610b7e6120cd565b610b886000612423565b565b610b926120cd565b80600260006101000a81548173ffffffffffffffffffffffffffffffffffffffff021916908373ffffffffffffffffffffffffffffffffffffffff16021790555050565b60035481565b60008111610c1f576040517f08c379a0000000000000000000000000000000000000000000000000000000008152600401610c169061307f565b60405180910390fd5b3373ffffffffffffffffffffffffffffffffffffffff168373ffffffffffffffffffffffffffffffffffffffff16636352211e846040518263ffffffff1660e01b8152600401610c6f9190612a26565b602060405180830381865afa158015610c8c573d6000803e3d6000fd5b505050506040513d601f19601f82011682018060405250810190610cb0919061354b565b73ffffffffffffffffffffffffffffffffffffffff1614610d06576040517f08c379a0000000000000000000000000000000000000000000000000000000008152600401610cfd906135ea565b60405180910390fd5b8273ffffffffffffffffffffffffffffffffffffffff166342842e0e3330856040518463ffffffff1660e01b8152600401610d439392919061360a565b600060405180830381600087803b158015610d5d57600080fd5b505af1158015610d71573d6000803e3d6000fd5b505050506000600580549050905060006040518061014001604052808381526020018673ffffffffffffffffffffffffffffffffffffffff168152602001858152602001848152602001610dc36124e7565b73ffffffffffffffffffffffffffffffffffffffff168152602001600073ffffffffffffffffffffffffffffffffffffffff16815260200160016005811115610e0f57610e0e612bb5565b5b815260200142815260200160001515815260200160001515815250905060058190806001815401808255809150506001900390600052602060002090600802016000909190919091506000820151816000015560208201518160010160006101000a81548173ffffffffffffffffffffffffffffffffffffffff021916908373ffffffffffffffffffffffffffffffffffffffff160217905550604082015181600201556060820151816003015560808201518160040160006101000a81548173ffffffffffffffffffffffffffffffffffffffff021916908373ffffffffffffffffffffffffffffffffffffffff16021790555060a08201518160050160006101000a81548173ffffffffffffffffffffffffffffffffffffffff021916908373ffffffffffffffffffffffffffffffffffffffff16021790555060c08201518160050160146101000a81548160ff02191690836005811115610f7657610f75612bb5565b5b021790555060e082015181600601556101008201518160070160006101000a81548160ff0219169083151502179055506101208201518160070160016101000a81548160ff021916908315150217905550505060066000610fd56124e7565b73ffffffffffffffffffffffffffffffffffffffff1673ffffffffffffffffffffffffffffffffffffffff16815260200190815260200160002082908060018154018082558091505060019003906000526020600020016000909190919091505561103e6124e7565b73ffffffffffffffffffffffffffffffffffffffff1684837fa9d7c8e498bf8ccc30c31bdcfa3cac6b79cedaf0dc37bf636f7f092be9ff7d4c88874260405161108993929190613641565b60405180910390a45050505050565b6060600660008373ffffffffffffffffffffffffffffffffffffffff1673ffffffffffffffffffffffffffffffffffffffff16815260200190815260200160002080548060200260200160405190810160405280929190818152602001828054801561112357602002820191906000526020600020905b81548152602001906001019080831161110f575b50505050509050919050565b60008060009054906101000a900473ffffffffffffffffffffffffffffffffffffffff16905090565b606060008383905067ffffffffffffffff811115611179576111786127aa565b5b6040519080825280602002602001820160405280156111b257816020015b61119f6124ef565b8152602001906001900390816111975790505b50905060005b8484905081101561142b5760005b600580549050811015611417578585838181106111e6576111e561309f565b5b90506020020135600582815481106112015761120061309f565b5b90600052602060002090600802016000015403611404576005818154811061122c5761122b61309f565b5b906000526020600020906008020160405180610140016040529081600082015481526020016001820160009054906101000a900473ffffffffffffffffffffffffffffffffffffffff1673ffffffffffffffffffffffffffffffffffffffff1673ffffffffffffffffffffffffffffffffffffffff16815260200160028201548152602001600382015481526020016004820160009054906101000a900473ffffffffffffffffffffffffffffffffffffffff1673ffffffffffffffffffffffffffffffffffffffff1673ffffffffffffffffffffffffffffffffffffffff1681526020016005820160009054906101000a900473ffffffffffffffffffffffffffffffffffffffff1673ffffffffffffffffffffffffffffffffffffffff1673ffffffffffffffffffffffffffffffffffffffff1681526020016005820160149054906101000a900460ff16600581111561138b5761138a612bb5565b5b600581111561139d5761139c612bb5565b5b8152602001600682015481526020016007820160009054906101000a900460ff161515151581526020016007820160019054906101000a900460ff1615151515815250508383815181106113f4576113f361309f565b5b6020026020010181905250611417565b808061140f90613678565b9150506111c6565b50808061142390613678565b9150506111b8565b508091505092915050565b61143e612154565b60006114498261219a565b9050806080015173ffffffffffffffffffffffffffffffffffffffff1661146e6124e7565b73ffffffffffffffffffffffffffffffffffffffff1614806114c657508060a0015173ffffffffffffffffffffffffffffffffffffffff166114ae6124e7565b73ffffffffffffffffffffffffffffffffffffffff16145b611505576040517f08c379a00000000000000000000000000000000000000000000000000000000081526004016114fc90613732565b60405180910390fd5b6001600581111561151957611518612bb5565b5b8160c0015160058111156115305761152f612bb5565b5b14801561157357506115406124e7565b73ffffffffffffffffffffffffffffffffffffffff16816080015173ffffffffffffffffffffffffffffffffffffffff16145b1561162c57806020015173ffffffffffffffffffffffffffffffffffffffff166342842e0e306115a16124e7565b84604001516040518463ffffffff1660e01b81526004016115c49392919061360a565b600060405180830381600087803b1580156115de57600080fd5b505af11580156115f2573d6000803e3d6000fd5b5050505060048160c00190600581111561160f5761160e612bb5565b5b9081600581111561162357611622612bb5565b5b81525050611954565b600260058111156116405761163f612bb5565b5b8160c00151600581111561165757611656612bb5565b5b036119185760006116666124e7565b73ffffffffffffffffffffffffffffffffffffffff16826080015173ffffffffffffffffffffffffffffffffffffffff1614905060006116a46124e7565b73ffffffffffffffffffffffffffffffffffffffff168360a0015173ffffffffffffffffffffffffffffffffffffffff1614905081156117375782610100015115611724576040517f08c379a000000000000000000000000000000000000000000000000000000000815260040161171b906137c4565b60405180910390fd5b6001836101000190151590811515815250505b80156117965782610120015115611783576040517f08c379a000000000000000000000000000000000000000000000000000000000815260040161177a90613856565b60405180910390fd5b6001836101200190151590811515815250505b82610100015180156117aa57508261012001515b1561191157826020015173ffffffffffffffffffffffffffffffffffffffff166342842e0e30856080015186604001516040518463ffffffff1660e01b81526004016117f893929190613297565b600060405180830381600087803b15801561181257600080fd5b505af1158015611826573d6000803e3d6000fd5b5050505060008360a0015173ffffffffffffffffffffffffffffffffffffffff16846060015160405161185890613404565b60006040518083038185875af1925050503d8060008114611895576040519150601f19603f3d011682016040523d82523d6000602084013e61189a565b606091505b50509050806118de576040517f08c379a00000000000000000000000000000000000000000000000000000000081526004016118d5906138c2565b60405180910390fd5b60048460c0019060058111156118f7576118f6612bb5565b5b9081600581111561190b5761190a612bb5565b5b81525050505b5050611953565b6040517f08c379a000000000000000000000000000000000000000000000000000000000815260040161194a9061392e565b60405180910390fd5b5b80600582600001518154811061196d5761196c61309f565b5b90600052602060002090600802016000820151816000015560208201518160010160006101000a81548173ffffffffffffffffffffffffffffffffffffffff021916908373ffffffffffffffffffffffffffffffffffffffff160217905550604082015181600201556060820151816003015560808201518160040160006101000a81548173ffffffffffffffffffffffffffffffffffffffff021916908373ffffffffffffffffffffffffffffffffffffffff16021790555060a08201518160050160006101000a81548173ffffffffffffffffffffffffffffffffffffffff021916908373ffffffffffffffffffffffffffffffffffffffff16021790555060c08201518160050160146101000a81548160ff02191690836005811115611a9957611a98612bb5565b5b021790555060e082015181600601556101008201518160070160006101000a81548160ff0219169083151502179055506101208201518160070160016101000a81548160ff0219169083151502179055509050507f87362ca8fed8c23f9ce7c65863d119297171e301ed7dd0596c634354cf28079f816000015142604051611b2292919061394e565b60405180910390a150611b3361241a565b50565b60058181548110611b4657600080fd5b90600052602060002090600802016000915090508060000154908060010160009054906101000a900473ffffffffffffffffffffffffffffffffffffffff16908060020154908060030154908060040160009054906101000a900473ffffffffffffffffffffffffffffffffffffffff16908060050160009054906101000a900473ffffffffffffffffffffffffffffffffffffffff16908060050160149054906101000a900460ff16908060060154908060070160009054906101000a900460ff16908060070160019054906101000a900460ff1690508a565b6060600460009054906101000a900473ffffffffffffffffffffffffffffffffffffffff1673ffffffffffffffffffffffffffffffffffffffff16631a9fcb946040518163ffffffff1660e01b8152600401600060405180830381865afa158015611c90573d6000803e3d6000fd5b505050506040513d6000823e3d601f19601f82011682018060405250810190611cb99190613a3a565b905090565b6000611cc98261219a565b90508060600151341015611d12576040517f08c379a0000000000000000000000000000000000000000000000000000000008152600401611d0990613acf565b60405180910390fd5b60016005811115611d2657611d25612bb5565b5b8160c001516005811115611d3d57611d3c612bb5565b5b14611d7d576040517f08c379a0000000000000000000000000000000000000000000000000000000008152600401611d7490613b3b565b60405180910390fd5b338160a0019073ffffffffffffffffffffffffffffffffffffffff16908173ffffffffffffffffffffffffffffffffffffffff168152505060028160c001906005811115611dce57611dcd612bb5565b5b90816005811115611de257611de1612bb5565b5b81525050806005826000015181548110611dff57611dfe61309f565b5b90600052602060002090600802016000820151816000015560208201518160010160006101000a81548173ffffffffffffffffffffffffffffffffffffffff021916908373ffffffffffffffffffffffffffffffffffffffff160217905550604082015181600201556060820151816003015560808201518160040160006101000a81548173ffffffffffffffffffffffffffffffffffffffff021916908373ffffffffffffffffffffffffffffffffffffffff16021790555060a08201518160050160006101000a81548173ffffffffffffffffffffffffffffffffffffffff021916908373ffffffffffffffffffffffffffffffffffffffff16021790555060c08201518160050160146101000a81548160ff02191690836005811115611f2b57611f2a612bb5565b5b021790555060e082015181600601556101008201518160070160006101000a81548160ff0219169083151502179055506101208201518160070160016101000a81548160ff02191690831515021790555090505060076000611f8b6124e7565b73ffffffffffffffffffffffffffffffffffffffff1673ffffffffffffffffffffffffffffffffffffffff168152602001908152602001600020816000015190806001815401808255809150506001900390600052602060002001600090919091909150553373ffffffffffffffffffffffffffffffffffffffff1681600001517f25cea44d301c940e93e43455c77efc0ca04d2983228d031dfc78e3c4ba7c23044260405161203b9190612a26565b60405180910390a35050565b61204f6120cd565b600073ffffffffffffffffffffffffffffffffffffffff168173ffffffffffffffffffffffffffffffffffffffff16036120c15760006040517f1e4fbdf70000000000000000000000000000000000000000000000000000000081526004016120b89190612aa3565b60405180910390fd5b6120ca81612423565b50565b6120d56124e7565b73ffffffffffffffffffffffffffffffffffffffff166120f361112f565b73ffffffffffffffffffffffffffffffffffffffff1614612152576121166124e7565b6040517f118cdaa70000000000000000000000000000000000000000000000000000000081526004016121499190612aa3565b60405180910390fd5b565b600260015403612190576040517f3ee5aeb500000000000000000000000000000000000000000000000000000000815260040160405180910390fd5b6002600181905550565b6121a26124ef565b60058054905082106121e9576040517f08c379a00000000000000000000000000000000000000000000000000000000081526004016121e090613ba7565b60405180910390fd5b6121f16124ef565b60005b6005805490508110156124105783600582815481106122165761221561309f565b5b906000526020600020906008020160000154036123fd57600581815481106122415761224061309f565b5b906000526020600020906008020160405180610140016040529081600082015481526020016001820160009054906101000a900473ffffffffffffffffffffffffffffffffffffffff1673ffffffffffffffffffffffffffffffffffffffff1673ffffffffffffffffffffffffffffffffffffffff16815260200160028201548152602001600382015481526020016004820160009054906101000a900473ffffffffffffffffffffffffffffffffffffffff1673ffffffffffffffffffffffffffffffffffffffff1673ffffffffffffffffffffffffffffffffffffffff1681526020016005820160009054906101000a900473ffffffffffffffffffffffffffffffffffffffff1673ffffffffffffffffffffffffffffffffffffffff1673ffffffffffffffffffffffffffffffffffffffff1681526020016005820160149054906101000a900460ff1660058111156123a05761239f612bb5565b5b60058111156123b2576123b1612bb5565b5b8152602001600682015481526020016007820160009054906101000a900460ff161515151581526020016007820160019054906101000a900460ff1615151515815250509150612410565b808061240890613678565b9150506121f4565b5080915050919050565b60018081905550565b60008060009054906101000a900473ffffffffffffffffffffffffffffffffffffffff169050816000806101000a81548173ffffffffffffffffffffffffffffffffffffffff021916908373ffffffffffffffffffffffffffffffffffffffff1602179055508173ffffffffffffffffffffffffffffffffffffffff168173ffffffffffffffffffffffffffffffffffffffff167f8be0079c531659141344cd1fd0a4f28419497f9722a3daafe3b4186f6b6457e060405160405180910390a35050565b600033905090565b60405180610140016040528060008152602001600073ffffffffffffffffffffffffffffffffffffffff1681526020016000815260200160008152602001600073ffffffffffffffffffffffffffffffffffffffff168152602001600073ffffffffffffffffffffffffffffffffffffffff1681526020016000600581111561257b5761257a612bb5565b5b8152602001600081526020016000151581526020016000151581525090565b6000604051905090565b600080fd5b600080fd5b600073ffffffffffffffffffffffffffffffffffffffff82169050919050565b60006125d9826125ae565b9050919050565b6125e9816125ce565b81146125f457600080fd5b50565b600081359050612606816125e0565b92915050565b600060208284031215612622576126216125a4565b5b6000612630848285016125f7565b91505092915050565b600081519050919050565b600082825260208201905092915050565b6000819050602082019050919050565b6000819050919050565b61267881612665565b82525050565b600061268a838361266f565b60208301905092915050565b6000602082019050919050565b60006126ae82612639565b6126b88185612644565b93506126c383612655565b8060005b838110156126f45781516126db888261267e565b97506126e683612696565b9250506001810190506126c7565b5085935050505092915050565b6000602082019050818103600083015261271b81846126a3565b905092915050565b61272c81612665565b811461273757600080fd5b50565b60008135905061274981612723565b92915050565b60008060408385031215612766576127656125a4565b5b60006127748582860161273a565b92505060206127858582860161273a565b9150509250929050565b600080fd5b600080fd5b6000601f19601f8301169050919050565b7f4e487b7100000000000000000000000000000000000000000000000000000000600052604160045260246000fd5b6127e282612799565b810181811067ffffffffffffffff82111715612801576128006127aa565b5b80604052505050565b600061281461259a565b905061282082826127d9565b919050565b600067ffffffffffffffff8211156128405761283f6127aa565b5b61284982612799565b9050602081019050919050565b82818337600083830152505050565b600061287861287384612825565b61280a565b90508281526020810184848401111561289457612893612794565b5b61289f848285612856565b509392505050565b600082601f8301126128bc576128bb61278f565b5b81356128cc848260208601612865565b91505092915050565b600080600080608085870312156128ef576128ee6125a4565b5b60006128fd878288016125f7565b945050602061290e878288016125f7565b935050604061291f8782880161273a565b925050606085013567ffffffffffffffff8111156129405761293f6125a9565b5b61294c878288016128a7565b91505092959194509250565b60007fffffffff0000000000000000000000000000000000000000000000000000000082169050919050565b61298d81612958565b82525050565b60006020820190506129a86000830184612984565b92915050565b6000602082840312156129c4576129c36125a4565b5b60006129d28482850161273a565b91505092915050565b60006129e6826125ae565b9050919050565b6129f6816129db565b82525050565b6000602082019050612a1160008301846129ed565b92915050565b612a2081612665565b82525050565b6000602082019050612a3b6000830184612a17565b92915050565b600080600060608486031215612a5a57612a596125a4565b5b6000612a68868287016125f7565b9350506020612a798682870161273a565b9250506040612a8a8682870161273a565b9150509250925092565b612a9d816125ce565b82525050565b6000602082019050612ab86000830184612a94565b92915050565b600080fd5b600080fd5b60008083601f840112612ade57612add61278f565b5b8235905067ffffffffffffffff811115612afb57612afa612abe565b5b602083019150836020820283011115612b1757612b16612ac3565b5b9250929050565b60008060208385031215612b3557612b346125a4565b5b600083013567ffffffffffffffff811115612b5357612b526125a9565b5b612b5f85828601612ac8565b92509250509250929050565b600081519050919050565b600082825260208201905092915050565b6000819050602082019050919050565b612ba0816125ce565b82525050565b612baf816129db565b82525050565b7f4e487b7100000000000000000000000000000000000000000000000000000000600052602160045260246000fd5b60068110612bf557612bf4612bb5565b5b50565b6000819050612c0682612be4565b919050565b6000612c1682612bf8565b9050919050565b612c2681612c0b565b82525050565b60008115159050919050565b612c4181612c2c565b82525050565b61014082016000820151612c5e600085018261266f565b506020820151612c716020850182612b97565b506040820151612c84604085018261266f565b506060820151612c97606085018261266f565b506080820151612caa6080850182612ba6565b5060a0820151612cbd60a0850182612ba6565b5060c0820151612cd060c0850182612c1d565b5060e0820151612ce360e085018261266f565b50610100820151612cf8610100850182612c38565b50610120820151612d0d610120850182612c38565b50505050565b6000612d1f8383612c47565b6101408301905092915050565b6000602082019050919050565b6000612d4482612b6b565b612d4e8185612b76565b9350612d5983612b87565b8060005b83811015612d8a578151612d718882612d13565b9750612d7c83612d2c565b925050600181019050612d5d565b5085935050505092915050565b60006020820190508181036000830152612db18184612d39565b905092915050565b612dc281612c0b565b82525050565b612dd181612c2c565b82525050565b600061014082019050612ded600083018d612a17565b612dfa602083018c612a94565b612e07604083018b612a17565b612e14606083018a612a17565b612e2160808301896129ed565b612e2e60a08301886129ed565b612e3b60c0830187612db9565b612e4860e0830186612a17565b612e56610100830185612dc8565b612e64610120830184612dc8565b9b9a5050505050505050505050565b600081519050919050565b600082825260208201905092915050565b6000819050602082019050919050565b6000612eab8383612b97565b60208301905092915050565b6000602082019050919050565b6000612ecf82612e73565b612ed98185612e7e565b9350612ee483612e8f565b8060005b83811015612f15578151612efc8882612e9f565b9750612f0783612eb7565b925050600181019050612ee8565b5085935050505092915050565b60006020820190508181036000830152612f3c8184612ec4565b905092915050565b600082825260208201905092915050565b7f436f6c6c656374696f6e20776173206e6f74207265636f676e697a65642c206960008201527f74206973206e6f7420706f737369626c6520746f20657363726f7720616e206960208201527f74656d0000000000000000000000000000000000000000000000000000000000604082015250565b6000612fd7604383612f44565b9150612fe282612f55565b606082019050919050565b6000602082019050818103600083015261300681612fca565b9050919050565b7f5072696365206f6620746865206974656d206d7573742062652073706563696660008201527f6965640000000000000000000000000000000000000000000000000000000000602082015250565b6000613069602383612f44565b91506130748261300d565b604082019050919050565b600060208201905081810360008301526130988161305c565b9050919050565b7f4e487b7100000000000000000000000000000000000000000000000000000000600052603260045260246000fd5b7f50657263656e74616765206f6620666565732063616e6e6f742065786365656460008201527f2033302500000000000000000000000000000000000000000000000000000000602082015250565b600061312a602483612f44565b9150613135826130ce565b604082019050919050565b600060208201905081810360008301526131598161311d565b9050919050565b7f596f7520617265206e6f7420746865206974656d206275796572000000000000600082015250565b6000613196601a83612f44565b91506131a182613160565b602082019050919050565b600060208201905081810360008301526131c581613189565b9050919050565b7f4974656d20686173206e6f74206265656e207265707572636861736564000000600082015250565b6000613202601d83612f44565b915061320d826131cc565b602082019050919050565b60006020820190508181036000830152613231816131f5565b9050919050565b6000819050919050565b600061325d613258613253846125ae565b613238565b6125ae565b9050919050565b600061326f82613242565b9050919050565b600061328182613264565b9050919050565b61329181613276565b82525050565b60006060820190506132ac6000830186612a94565b6132b96020830185613288565b6132c66040830184612a17565b949350505050565b7f4e487b7100000000000000000000000000000000000000000000000000000000600052601160045260246000fd5b600061330882612665565b915061331383612665565b925082820261332181612665565b91508282048414831517613338576133376132ce565b5b5092915050565b7f4e487b7100000000000000000000000000000000000000000000000000000000600052601260045260246000fd5b600061337982612665565b915061338483612665565b9250826133945761339361333f565b5b828204905092915050565b60006133aa82612665565b91506133b583612665565b92508282039050818111156133cd576133cc6132ce565b5b92915050565b600081905092915050565b50565b60006133ee6000836133d3565b91506133f9826133de565b600082019050919050565b600061340f826133e1565b9150819050919050565b7f4661696c656420746f2073656e642066756e647320746f2073656c6c65720000600082015250565b600061344f601e83612f44565b915061345a82613419565b602082019050919050565b6000602082019050818103600083015261347e81613442565b9050919050565b7f576974686472617720646964206e6f7420776f726b0000000000000000000000600082015250565b60006134bb601583612f44565b91506134c682613485565b602082019050919050565b600060208201905081810360008301526134ea816134ae565b9050919050565b60006080820190506135066000830187612a17565b6135136020830186612a17565b6135206040830185612a17565b61352d6060830184612a17565b95945050505050565b600081519050613545816125e0565b92915050565b600060208284031215613561576135606125a4565b5b600061356f84828501613536565b91505092915050565b7f596f7520617265206e6f7420746865206f776e6572206f662074686973204e4660008201527f5400000000000000000000000000000000000000000000000000000000000000602082015250565b60006135d4602183612f44565b91506135df82613578565b604082019050919050565b60006020820190508181036000830152613603816135c7565b9050919050565b600060608201905061361f6000830186612a94565b61362c6020830185612a94565b6136396040830184612a17565b949350505050565b60006060820190506136566000830186612a94565b6136636020830185612a17565b6136706040830184612a17565b949350505050565b600061368382612665565b91507fffffffffffffffffffffffffffffffffffffffffffffffffffffffffffffffff82036136b5576136b46132ce565b5b600182019050919050565b7f4d7573742062652061206275796572206f722073656c6c6572206f662074686560008201527f206974656d000000000000000000000000000000000000000000000000000000602082015250565b600061371c602583612f44565b9150613727826136c0565b604082019050919050565b6000602082019050818103600083015261374b8161370f565b9050919050565b7f53656c6c657220616c7265616479207265717565737465642063616e63656c6c60008201527f6174696f6e000000000000000000000000000000000000000000000000000000602082015250565b60006137ae602583612f44565b91506137b982613752565b604082019050919050565b600060208201905081810360008301526137dd816137a1565b9050919050565b7f427579657220616c7265616479207265717565737465642063616e63656c6c6160008201527f74696f6e00000000000000000000000000000000000000000000000000000000602082015250565b6000613840602483612f44565b915061384b826137e4565b604082019050919050565b6000602082019050818103600083015261386f81613833565b9050919050565b7f556e61626c6520746f20726566756e642066756e647320746f20627579657200600082015250565b60006138ac601f83612f44565b91506138b782613876565b602082019050919050565b600060208201905081810360008301526138db8161389f565b9050919050565b7f556e61626c6520746f2063616e63656c2073616c650000000000000000000000600082015250565b6000613918601583612f44565b9150613923826138e2565b602082019050919050565b600060208201905081810360008301526139478161390b565b9050919050565b60006040820190506139636000830185612a17565b6139706020830184612a17565b9392505050565b600067ffffffffffffffff821115613992576139916127aa565b5b602082029050602081019050919050565b60006139b66139b184613977565b61280a565b905080838252602082019050602084028301858111156139d9576139d8612ac3565b5b835b81811015613a0257806139ee8882613536565b8452602084019350506020810190506139db565b5050509392505050565b600082601f830112613a2157613a2061278f565b5b8151613a318482602086016139a3565b91505092915050565b600060208284031215613a5057613a4f6125a4565b5b600082015167ffffffffffffffff811115613a6e57613a6d6125a9565b5b613a7a84828501613a0c565b91505092915050565b7f4e6f7420656e6f7567682066756e64732070726f766964656400000000000000600082015250565b6000613ab9601983612f44565b9150613ac482613a83565b602082019050919050565b60006020820190508181036000830152613ae881613aac565b9050919050565b7f4974656d206e6f7420657363726f776564000000000000000000000000000000600082015250565b6000613b25601183612f44565b9150613b3082613aef565b602082019050919050565b60006020820190508181036000830152613b5481613b18565b9050919050565b7f4974656d20646f6573206e6f7420657869737400000000000000000000000000600082015250565b6000613b91601383612f44565b9150613b9c82613b5b565b602082019050919050565b60006020820190508181036000830152613bc081613b84565b905091905056fea2646970667358221220d149a08ad81bbe8ac399905edd8d7d79789368428494e6f68b8f142eb83b264a64736f6c63430008140033",
  "linkReferences": {},
  "deployedLinkReferences": {}
}