{
  "_format": "hh-sol-artifact-1",
  "contractName": "NWMain",
  "sourceName": "contracts/v1/NWMain.sol",
  "abi": [
    {
      "inputs": [
        {
          "internalType": "contract INWERC721Factory",
          "name": "_factory",
          "type": "address"
        },
        {
          "internalType": "uint256",
          "name": "_feePercent",
          "type": "uint256"
        }
      ],
      "stateMutability": "nonpayable",
      "type": "constructor"
    },
    {
      "inputs": [],
      "name": "NotAuthorized",
      "type": "error"
    },
    {
      "inputs": [
        {
          "internalType": "address",
          "name": "owner",
          "type": "address"
        }
      ],
      "name": "OwnableInvalidOwner",
      "type": "error"
    },
    {
      "inputs": [
        {
          "internalType": "address",
          "name": "account",
          "type": "address"
        }
      ],
      "name": "OwnableUnauthorizedAccount",
      "type": "error"
    },
    {
      "anonymous": false,
      "inputs": [
        {
          "indexed": true,
          "internalType": "uint256",
          "name": "itemId",
          "type": "uint256"
        },
        {
          "indexed": false,
          "internalType": "address",
          "name": "collection",
          "type": "address"
        },
        {
          "indexed": true,
          "internalType": "uint256",
          "name": "tokenId",
          "type": "uint256"
        },
        {
          "indexed": false,
          "internalType": "uint256",
          "name": "priceInWei",
          "type": "uint256"
        },
        {
          "indexed": true,
          "internalType": "address",
          "name": "seller",
          "type": "address"
        }
      ],
      "name": "EscrowedItems",
      "type": "event"
    },
    {
      "anonymous": false,
      "inputs": [
        {
          "indexed": false,
          "internalType": "address",
          "name": "operator",
          "type": "address"
        },
        {
          "indexed": false,
          "internalType": "address",
          "name": "from",
          "type": "address"
        },
        {
          "indexed": false,
          "internalType": "uint256",
          "name": "tokenId",
          "type": "uint256"
        },
        {
          "indexed": false,
          "internalType": "bytes",
          "name": "data",
          "type": "bytes"
        }
      ],
      "name": "NFTReceived",
      "type": "event"
    },
    {
      "anonymous": false,
      "inputs": [
        {
          "indexed": true,
          "internalType": "address",
          "name": "previousOwner",
          "type": "address"
        },
        {
          "indexed": true,
          "internalType": "address",
          "name": "newOwner",
          "type": "address"
        }
      ],
      "name": "OwnershipTransferred",
      "type": "event"
    },
    {
      "anonymous": false,
      "inputs": [
        {
          "indexed": true,
          "internalType": "uint256",
          "name": "itemId",
          "type": "uint256"
        },
        {
          "indexed": true,
          "internalType": "address",
          "name": "buyer",
          "type": "address"
        }
      ],
      "name": "PaidItems",
      "type": "event"
    },
    {
      "anonymous": false,
      "inputs": [
        {
          "indexed": false,
          "internalType": "uint256",
          "name": "itemId",
          "type": "uint256"
        },
        {
          "indexed": true,
          "internalType": "address",
          "name": "seller",
          "type": "address"
        },
        {
          "indexed": true,
          "internalType": "address",
          "name": "buyer",
          "type": "address"
        },
        {
          "indexed": false,
          "internalType": "uint256",
          "name": "netPriceInWei",
          "type": "uint256"
        },
        {
          "indexed": false,
          "internalType": "uint256",
          "name": "amountOfFees",
          "type": "uint256"
        }
      ],
      "name": "SoldItems",
      "type": "event"
    },
    {
      "anonymous": false,
      "inputs": [
        {
          "indexed": false,
          "internalType": "uint256",
          "name": "amountInWei",
          "type": "uint256"
        },
        {
          "indexed": false,
          "internalType": "uint256",
          "name": "timestamp",
          "type": "uint256"
        }
      ],
      "name": "WithdrawFees",
      "type": "event"
    },
    {
      "stateMutability": "payable",
      "type": "fallback"
    },
    {
      "inputs": [
        {
          "internalType": "uint256",
          "name": "_itemId",
          "type": "uint256"
        }
      ],
      "name": "buyItem",
      "outputs": [],
      "stateMutability": "payable",
      "type": "function"
    },
    {
      "inputs": [
        {
          "internalType": "uint256",
          "name": "_tokenId",
          "type": "uint256"
        },
        {
          "internalType": "uint256",
          "name": "_priceInEther",
          "type": "uint256"
        }
      ],
      "name": "escrowItem",
      "outputs": [],
      "stateMutability": "payable",
      "type": "function"
    },
    {
      "inputs": [
        {
          "internalType": "address",
          "name": "_collectionAddress",
          "type": "address"
        },
        {
          "internalType": "uint256",
          "name": "_tokenId",
          "type": "uint256"
        },
        {
          "internalType": "uint256",
          "name": "_priceInEther",
          "type": "uint256"
        }
      ],
      "name": "escrowItem",
      "outputs": [],
      "stateMutability": "nonpayable",
      "type": "function"
    },
    {
      "inputs": [],
      "name": "feeAccount",
      "outputs": [
        {
          "internalType": "address payable",
          "name": "",
          "type": "address"
        }
      ],
      "stateMutability": "view",
      "type": "function"
    },
    {
      "inputs": [],
      "name": "feePercent",
      "outputs": [
        {
          "internalType": "uint256",
          "name": "",
          "type": "uint256"
        }
      ],
      "stateMutability": "view",
      "type": "function"
    },
    {
      "inputs": [],
      "name": "itemCount",
      "outputs": [
        {
          "internalType": "uint256",
          "name": "",
          "type": "uint256"
        }
      ],
      "stateMutability": "view",
      "type": "function"
    },
    {
      "inputs": [
        {
          "internalType": "uint256",
          "name": "",
          "type": "uint256"
        }
      ],
      "name": "items",
      "outputs": [
        {
          "internalType": "uint256",
          "name": "itemId",
          "type": "uint256"
        },
        {
          "internalType": "address",
          "name": "collection",
          "type": "address"
        },
        {
          "internalType": "uint256",
          "name": "tokenId",
          "type": "uint256"
        },
        {
          "internalType": "uint256",
          "name": "priceInWei",
          "type": "uint256"
        },
        {
          "internalType": "address payable",
          "name": "seller",
          "type": "address"
        },
        {
          "internalType": "address payable",
          "name": "buyer",
          "type": "address"
        },
        {
          "internalType": "enum NWMain.SaleStatus",
          "name": "status",
          "type": "uint8"
        }
      ],
      "stateMutability": "view",
      "type": "function"
    },
    {
      "inputs": [],
      "name": "owner",
      "outputs": [
        {
          "internalType": "address",
          "name": "",
          "type": "address"
        }
      ],
      "stateMutability": "view",
      "type": "function"
    },
    {
      "inputs": [],
      "name": "renounceOwnership",
      "outputs": [],
      "stateMutability": "nonpayable",
      "type": "function"
    },
    {
      "inputs": [
        {
          "internalType": "address",
          "name": "",
          "type": "address"
        },
        {
          "internalType": "uint256",
          "name": "",
          "type": "uint256"
        }
      ],
      "name": "sellersItemsIds",
      "outputs": [
        {
          "internalType": "uint256",
          "name": "",
          "type": "uint256"
        }
      ],
      "stateMutability": "view",
      "type": "function"
    },
    {
      "inputs": [
        {
          "internalType": "address",
          "name": "newOwner",
          "type": "address"
        }
      ],
      "name": "transferOwnership",
      "outputs": [],
      "stateMutability": "nonpayable",
      "type": "function"
    },
    {
      "inputs": [
        {
          "internalType": "uint256",
          "name": "_itemId",
          "type": "uint256"
        }
      ],
      "name": "validateItem",
      "outputs": [],
      "stateMutability": "payable",
      "type": "function"
    },
    {
      "inputs": [
        {
          "internalType": "uint256",
          "name": "_amountInWei",
          "type": "uint256"
        }
      ],
      "name": "withdrowFees",
      "outputs": [],
      "stateMutability": "nonpayable",
      "type": "function"
    },
    {
      "stateMutability": "payable",
      "type": "receive"
    }
  ],
  "bytecode": "0x60a06040523480156200001157600080fd5b50604051620028a3380380620028a38339818101604052810190620000379190620002ce565b33600073ffffffffffffffffffffffffffffffffffffffff168173ffffffffffffffffffffffffffffffffffffffff1603620000ad5760006040517f1e4fbdf7000000000000000000000000000000000000000000000000000000008152600401620000a4919062000326565b60405180910390fd5b620000be816200015160201b60201c565b5033600160006101000a81548173ffffffffffffffffffffffffffffffffffffffff021916908373ffffffffffffffffffffffffffffffffffffffff160217905550806080818152505081600360006101000a81548173ffffffffffffffffffffffffffffffffffffffff021916908373ffffffffffffffffffffffffffffffffffffffff160217905550505062000343565b60008060009054906101000a900473ffffffffffffffffffffffffffffffffffffffff169050816000806101000a81548173ffffffffffffffffffffffffffffffffffffffff021916908373ffffffffffffffffffffffffffffffffffffffff1602179055508173ffffffffffffffffffffffffffffffffffffffff168173ffffffffffffffffffffffffffffffffffffffff167f8be0079c531659141344cd1fd0a4f28419497f9722a3daafe3b4186f6b6457e060405160405180910390a35050565b600080fd5b600073ffffffffffffffffffffffffffffffffffffffff82169050919050565b600062000247826200021a565b9050919050565b60006200025b826200023a565b9050919050565b6200026d816200024e565b81146200027957600080fd5b50565b6000815190506200028d8162000262565b92915050565b6000819050919050565b620002a88162000293565b8114620002b457600080fd5b50565b600081519050620002c8816200029d565b92915050565b60008060408385031215620002e857620002e762000215565b5b6000620002f8858286016200027c565b92505060206200030b85828601620002b7565b9150509250929050565b62000320816200023a565b82525050565b60006020820190506200033d600083018462000315565b92915050565b60805161253d620003666000396000818161088a0152610a42015261253d6000f3fe6080604052600436106100c65760003560e01c80637fd6f15c1161007f578063bfb231d211610059578063bfb231d214610230578063c6f1730614610273578063e7fb74c71461029c578063f2fde38b146102b8576100cd565b80637fd6f15c146101b157806387687d55146101dc5780638da5cb5b14610205576100cd565b80630fe6f057146100cf57806315bf0adb146100eb578063635aa34f1461012857806365e17c9d146101445780636bfb0d011461016f578063715018a61461019a576100cd565b366100cd57005b005b6100e960048036038101906100e491906117bd565b6102e1565b005b3480156100f757600080fd5b50610112600480360381019061010d919061185b565b6103a0565b60405161011f91906118aa565b60405180910390f35b610142600480360381019061013d91906118c5565b6103d1565b005b34801561015057600080fd5b50610159610a00565b6040516101669190611913565b60405180910390f35b34801561017b57600080fd5b50610184610a26565b60405161019191906118aa565b60405180910390f35b3480156101a657600080fd5b506101af610a2c565b005b3480156101bd57600080fd5b506101c6610a40565b6040516101d391906118aa565b60405180910390f35b3480156101e857600080fd5b5061020360048036038101906101fe919061192e565b610a64565b005b34801561021157600080fd5b5061021a610eb5565b6040516102279190611990565b60405180910390f35b34801561023c57600080fd5b50610257600480360381019061025291906118c5565b610ede565b60405161026a9796959493929190611a22565b60405180910390f35b34801561027f57600080fd5b5061029a600480360381019061029591906118c5565b610f8d565b005b6102b660048036038101906102b191906118c5565b6110e3565b005b3480156102c457600080fd5b506102df60048036038101906102da9190611a91565b6114fd565b005b60006102eb611583565b511161032c576040517f08c379a000000000000000000000000000000000000000000000000000000000815260040161032390611b67565b60405180910390fd5b6000811161036f576040517f08c379a000000000000000000000000000000000000000000000000000000000815260040161036690611bf9565b60405180910390fd5b61039c61037a611583565b60008151811061038d5761038c611c19565b5b60200260200101518383610a64565b5050565b600560205281600052604060002081815481106103bc57600080fd5b90600052602060002001600091509150505481565b6000600460008381526020019081526020016000206040518060e0016040529081600082015481526020016001820160009054906101000a900473ffffffffffffffffffffffffffffffffffffffff1673ffffffffffffffffffffffffffffffffffffffff1673ffffffffffffffffffffffffffffffffffffffff16815260200160028201548152602001600382015481526020016004820160009054906101000a900473ffffffffffffffffffffffffffffffffffffffff1673ffffffffffffffffffffffffffffffffffffffff1673ffffffffffffffffffffffffffffffffffffffff1681526020016005820160009054906101000a900473ffffffffffffffffffffffffffffffffffffffff1673ffffffffffffffffffffffffffffffffffffffff1673ffffffffffffffffffffffffffffffffffffffff1681526020016005820160149054906101000a900460ff166006811115610536576105356119ab565b5b6006811115610548576105476119ab565b5b8152505090503373ffffffffffffffffffffffffffffffffffffffff168160a0015173ffffffffffffffffffffffffffffffffffffffff16146105c0576040517f08c379a00000000000000000000000000000000000000000000000000000000081526004016105b790611c94565b60405180910390fd5b600073ffffffffffffffffffffffffffffffffffffffff16816080015173ffffffffffffffffffffffffffffffffffffffff1603610633576040517f08c379a000000000000000000000000000000000000000000000000000000000815260040161062a90611d00565b60405180910390fd5b60026006811115610647576106466119ab565b5b8160c00151600681111561065e5761065d6119ab565b5b1461069e576040517f08c379a000000000000000000000000000000000000000000000000000000000815260040161069590611d6c565b60405180910390fd5b806020015173ffffffffffffffffffffffffffffffffffffffff166323b872dd308360a0015184604001516040518463ffffffff1660e01b81526004016106e793929190611deb565b600060405180830381600087803b15801561070157600080fd5b505af1158015610715573d6000803e3d6000fd5b5050505060038160c001906006811115610732576107316119ab565b5b90816006811115610746576107456119ab565b5b8152505080600460008481526020019081526020016000206000820151816000015560208201518160010160006101000a81548173ffffffffffffffffffffffffffffffffffffffff021916908373ffffffffffffffffffffffffffffffffffffffff160217905550604082015181600201556060820151816003015560808201518160040160006101000a81548173ffffffffffffffffffffffffffffffffffffffff021916908373ffffffffffffffffffffffffffffffffffffffff16021790555060a08201518160050160006101000a81548173ffffffffffffffffffffffffffffffffffffffff021916908373ffffffffffffffffffffffffffffffffffffffff16021790555060c08201518160050160146101000a81548160ff0219169083600681111561087c5761087b6119ab565b5b0217905550905050600060647f000000000000000000000000000000000000000000000000000000000000000083606001516108b89190611e51565b6108c29190611ec2565b905060008183606001516108d69190611ef3565b90506000836080015173ffffffffffffffffffffffffffffffffffffffff168260405161090290611f58565b60006040518083038185875af1925050503d806000811461093f576040519150601f19603f3d011682016040523d82523d6000602084013e610944565b606091505b5050905080610988576040517f08c379a000000000000000000000000000000000000000000000000000000000815260040161097f90611fb9565b60405180910390fd5b8360a0015173ffffffffffffffffffffffffffffffffffffffff16846080015173ffffffffffffffffffffffffffffffffffffffff167f9aeecc83ddd590db69b0af2f4aeecd46a252d61ea608019392658307bfc831488785876040516109f193929190611fd9565b60405180910390a35050505050565b600160009054906101000a900473ffffffffffffffffffffffffffffffffffffffff1681565b60025481565b610a34611620565b610a3e60006116a7565b565b7f000000000000000000000000000000000000000000000000000000000000000081565b60008111610aa7576040517f08c379a0000000000000000000000000000000000000000000000000000000008152600401610a9e90611bf9565b60405180910390fd5b3373ffffffffffffffffffffffffffffffffffffffff168373ffffffffffffffffffffffffffffffffffffffff16636352211e846040518263ffffffff1660e01b8152600401610af791906118aa565b602060405180830381865afa158015610b14573d6000803e3d6000fd5b505050506040513d601f19601f82011682018060405250810190610b389190612025565b73ffffffffffffffffffffffffffffffffffffffff1614610b8e576040517f08c379a0000000000000000000000000000000000000000000000000000000008152600401610b85906120c4565b60405180910390fd5b6000670de0b6b3a764000082610ba49190611e51565b90508373ffffffffffffffffffffffffffffffffffffffff166323b872dd3330866040518463ffffffff1660e01b8152600401610be3939291906120e4565b600060405180830381600087803b158015610bfd57600080fd5b505af1158015610c11573d6000803e3d6000fd5b5050505060026000815480929190610c289061211b565b91905055506040518060e0016040528060025481526020018573ffffffffffffffffffffffffffffffffffffffff1681526020018481526020018281526020013373ffffffffffffffffffffffffffffffffffffffff168152602001600073ffffffffffffffffffffffffffffffffffffffff16815260200160016006811115610cb557610cb46119ab565b5b8152506004600060025481526020019081526020016000206000820151816000015560208201518160010160006101000a81548173ffffffffffffffffffffffffffffffffffffffff021916908373ffffffffffffffffffffffffffffffffffffffff160217905550604082015181600201556060820151816003015560808201518160040160006101000a81548173ffffffffffffffffffffffffffffffffffffffff021916908373ffffffffffffffffffffffffffffffffffffffff16021790555060a08201518160050160006101000a81548173ffffffffffffffffffffffffffffffffffffffff021916908373ffffffffffffffffffffffffffffffffffffffff16021790555060c08201518160050160146101000a81548160ff02191690836006811115610deb57610dea6119ab565b5b0217905550905050600560003373ffffffffffffffffffffffffffffffffffffffff1673ffffffffffffffffffffffffffffffffffffffff16815260200190815260200160002060025490806001815401808255809150506001900390600052602060002001600090919091909150553373ffffffffffffffffffffffffffffffffffffffff16836002547f29e44aad1211e1babeed806e11b12857593dbe2b932eea9c9b8b4b96722c160c8785604051610ea7929190612163565b60405180910390a450505050565b60008060009054906101000a900473ffffffffffffffffffffffffffffffffffffffff16905090565b60046020528060005260406000206000915090508060000154908060010160009054906101000a900473ffffffffffffffffffffffffffffffffffffffff16908060020154908060030154908060040160009054906101000a900473ffffffffffffffffffffffffffffffffffffffff16908060050160009054906101000a900473ffffffffffffffffffffffffffffffffffffffff16908060050160149054906101000a900460ff16905087565b610f95611620565b47811115610fd8576040517f08c379a0000000000000000000000000000000000000000000000000000000008152600401610fcf906121d8565b60405180910390fd5b6000600160009054906101000a900473ffffffffffffffffffffffffffffffffffffffff1673ffffffffffffffffffffffffffffffffffffffff168260405161102090611f58565b60006040518083038185875af1925050503d806000811461105d576040519150601f19603f3d011682016040523d82523d6000602084013e611062565b606091505b50509050806110a6576040517f08c379a000000000000000000000000000000000000000000000000000000000815260040161109d90612244565b60405180910390fd5b7f8bed4dd97479421d7ae42fa96d6157fd86e027f7099ceec95d865deb574e0cb382426040516110d7929190612264565b60405180910390a15050565b6000600460008381526020019081526020016000206040518060e0016040529081600082015481526020016001820160009054906101000a900473ffffffffffffffffffffffffffffffffffffffff1673ffffffffffffffffffffffffffffffffffffffff1673ffffffffffffffffffffffffffffffffffffffff16815260200160028201548152602001600382015481526020016004820160009054906101000a900473ffffffffffffffffffffffffffffffffffffffff1673ffffffffffffffffffffffffffffffffffffffff1673ffffffffffffffffffffffffffffffffffffffff1681526020016005820160009054906101000a900473ffffffffffffffffffffffffffffffffffffffff1673ffffffffffffffffffffffffffffffffffffffff1673ffffffffffffffffffffffffffffffffffffffff1681526020016005820160149054906101000a900460ff166006811115611248576112476119ab565b5b600681111561125a576112596119ab565b5b81525050905080606001513410156112a7576040517f08c379a000000000000000000000000000000000000000000000000000000000815260040161129e906122d9565b60405180910390fd5b600160068111156112bb576112ba6119ab565b5b8160c0015160068111156112d2576112d16119ab565b5b14611312576040517f08c379a000000000000000000000000000000000000000000000000000000000815260040161130990612345565b60405180910390fd5b338160a0019073ffffffffffffffffffffffffffffffffffffffff16908173ffffffffffffffffffffffffffffffffffffffff168152505060028160c001906006811115611363576113626119ab565b5b90816006811115611377576113766119ab565b5b8152505080600460008481526020019081526020016000206000820151816000015560208201518160010160006101000a81548173ffffffffffffffffffffffffffffffffffffffff021916908373ffffffffffffffffffffffffffffffffffffffff160217905550604082015181600201556060820151816003015560808201518160040160006101000a81548173ffffffffffffffffffffffffffffffffffffffff021916908373ffffffffffffffffffffffffffffffffffffffff16021790555060a08201518160050160006101000a81548173ffffffffffffffffffffffffffffffffffffffff021916908373ffffffffffffffffffffffffffffffffffffffff16021790555060c08201518160050160146101000a81548160ff021916908360068111156114ad576114ac6119ab565b5b02179055509050503373ffffffffffffffffffffffffffffffffffffffff16827f0fe68bfcf3185152263fe419c7323fcd58486d8b99a9c7016ea0f6c685b2379360405160405180910390a35050565b611505611620565b600073ffffffffffffffffffffffffffffffffffffffff168173ffffffffffffffffffffffffffffffffffffffff16036115775760006040517f1e4fbdf700000000000000000000000000000000000000000000000000000000815260040161156e9190611990565b60405180910390fd5b611580816116a7565b50565b6060600360009054906101000a900473ffffffffffffffffffffffffffffffffffffffff1673ffffffffffffffffffffffffffffffffffffffff16631a9fcb946040518163ffffffff1660e01b8152600401600060405180830381865afa1580156115f2573d6000803e3d6000fd5b505050506040513d6000823e3d601f19601f8201168201806040525081019061161b91906124be565b905090565b61162861176b565b73ffffffffffffffffffffffffffffffffffffffff16611646610eb5565b73ffffffffffffffffffffffffffffffffffffffff16146116a55761166961176b565b6040517f118cdaa700000000000000000000000000000000000000000000000000000000815260040161169c9190611990565b60405180910390fd5b565b60008060009054906101000a900473ffffffffffffffffffffffffffffffffffffffff169050816000806101000a81548173ffffffffffffffffffffffffffffffffffffffff021916908373ffffffffffffffffffffffffffffffffffffffff1602179055508173ffffffffffffffffffffffffffffffffffffffff168173ffffffffffffffffffffffffffffffffffffffff167f8be0079c531659141344cd1fd0a4f28419497f9722a3daafe3b4186f6b6457e060405160405180910390a35050565b600033905090565b6000604051905090565b600080fd5b600080fd5b6000819050919050565b61179a81611787565b81146117a557600080fd5b50565b6000813590506117b781611791565b92915050565b600080604083850312156117d4576117d361177d565b5b60006117e2858286016117a8565b92505060206117f3858286016117a8565b9150509250929050565b600073ffffffffffffffffffffffffffffffffffffffff82169050919050565b6000611828826117fd565b9050919050565b6118388161181d565b811461184357600080fd5b50565b6000813590506118558161182f565b92915050565b600080604083850312156118725761187161177d565b5b600061188085828601611846565b9250506020611891858286016117a8565b9150509250929050565b6118a481611787565b82525050565b60006020820190506118bf600083018461189b565b92915050565b6000602082840312156118db576118da61177d565b5b60006118e9848285016117a8565b91505092915050565b60006118fd826117fd565b9050919050565b61190d816118f2565b82525050565b60006020820190506119286000830184611904565b92915050565b6000806000606084860312156119475761194661177d565b5b600061195586828701611846565b9350506020611966868287016117a8565b9250506040611977868287016117a8565b9150509250925092565b61198a8161181d565b82525050565b60006020820190506119a56000830184611981565b92915050565b7f4e487b7100000000000000000000000000000000000000000000000000000000600052602160045260246000fd5b600781106119eb576119ea6119ab565b5b50565b60008190506119fc826119da565b919050565b6000611a0c826119ee565b9050919050565b611a1c81611a01565b82525050565b600060e082019050611a37600083018a61189b565b611a446020830189611981565b611a51604083018861189b565b611a5e606083018761189b565b611a6b6080830186611904565b611a7860a0830185611904565b611a8560c0830184611a13565b98975050505050505050565b600060208284031215611aa757611aa661177d565b5b6000611ab584828501611846565b91505092915050565b600082825260208201905092915050565b7f436f6c6c656374696f6e20776173206e6f74207265636f676e697a65642c206960008201527f74206973206e6f7420706f737369626c6520746f20657363726f7720616e206960208201527f74656d0000000000000000000000000000000000000000000000000000000000604082015250565b6000611b51604383611abe565b9150611b5c82611acf565b606082019050919050565b60006020820190508181036000830152611b8081611b44565b9050919050565b7f5072696365206f6620746865206974656d206d7573742062652073706563696660008201527f6965640000000000000000000000000000000000000000000000000000000000602082015250565b6000611be3602383611abe565b9150611bee82611b87565b604082019050919050565b60006020820190508181036000830152611c1281611bd6565b9050919050565b7f4e487b7100000000000000000000000000000000000000000000000000000000600052603260045260246000fd5b7f596f7520617265206e6f7420746865206974656d206275796572000000000000600082015250565b6000611c7e601a83611abe565b9150611c8982611c48565b602082019050919050565b60006020820190508181036000830152611cad81611c71565b9050919050565b7f4e6f2073656c6c657220666f722074686973206974656d000000000000000000600082015250565b6000611cea601783611abe565b9150611cf582611cb4565b602082019050919050565b60006020820190508181036000830152611d1981611cdd565b9050919050565b7f4974656d20686173206e6f74206265656e207265707572636861736564000000600082015250565b6000611d56601d83611abe565b9150611d6182611d20565b602082019050919050565b60006020820190508181036000830152611d8581611d49565b9050919050565b6000819050919050565b6000611db1611dac611da7846117fd565b611d8c565b6117fd565b9050919050565b6000611dc382611d96565b9050919050565b6000611dd582611db8565b9050919050565b611de581611dca565b82525050565b6000606082019050611e006000830186611981565b611e0d6020830185611ddc565b611e1a604083018461189b565b949350505050565b7f4e487b7100000000000000000000000000000000000000000000000000000000600052601160045260246000fd5b6000611e5c82611787565b9150611e6783611787565b9250828202611e7581611787565b91508282048414831517611e8c57611e8b611e22565b5b5092915050565b7f4e487b7100000000000000000000000000000000000000000000000000000000600052601260045260246000fd5b6000611ecd82611787565b9150611ed883611787565b925082611ee857611ee7611e93565b5b828204905092915050565b6000611efe82611787565b9150611f0983611787565b9250828203905081811115611f2157611f20611e22565b5b92915050565b600081905092915050565b50565b6000611f42600083611f27565b9150611f4d82611f32565b600082019050919050565b6000611f6382611f35565b9150819050919050565b7f4661696c656420746f2073656e64204574686572000000000000000000000000600082015250565b6000611fa3601483611abe565b9150611fae82611f6d565b602082019050919050565b60006020820190508181036000830152611fd281611f96565b9050919050565b6000606082019050611fee600083018661189b565b611ffb602083018561189b565b612008604083018461189b565b949350505050565b60008151905061201f8161182f565b92915050565b60006020828403121561203b5761203a61177d565b5b600061204984828501612010565b91505092915050565b7f596f7520617265206e6f7420746865206f776e6572206f662074686973204e4660008201527f5400000000000000000000000000000000000000000000000000000000000000602082015250565b60006120ae602183611abe565b91506120b982612052565b604082019050919050565b600060208201905081810360008301526120dd816120a1565b9050919050565b60006060820190506120f96000830186611981565b6121066020830185611981565b612113604083018461189b565b949350505050565b600061212682611787565b91507fffffffffffffffffffffffffffffffffffffffffffffffffffffffffffffffff820361215857612157611e22565b5b600182019050919050565b60006040820190506121786000830185611981565b612185602083018461189b565b9392505050565b7f596f752063616e6e6f74207769746864726177207468697320616d6f756e7400600082015250565b60006121c2601f83611abe565b91506121cd8261218c565b602082019050919050565b600060208201905081810360008301526121f1816121b5565b9050919050565b7f576974686472617720646964206e6f7420776f726b0000000000000000000000600082015250565b600061222e601583611abe565b9150612239826121f8565b602082019050919050565b6000602082019050818103600083015261225d81612221565b9050919050565b6000604082019050612279600083018561189b565b612286602083018461189b565b9392505050565b7f4e6f7420656e6f7567682066756e64732070726f766964656400000000000000600082015250565b60006122c3601983611abe565b91506122ce8261228d565b602082019050919050565b600060208201905081810360008301526122f2816122b6565b9050919050565b7f4974656d206e6f7420657363726f776564000000000000000000000000000000600082015250565b600061232f601183611abe565b915061233a826122f9565b602082019050919050565b6000602082019050818103600083015261235e81612322565b9050919050565b600080fd5b6000601f19601f8301169050919050565b7f4e487b7100000000000000000000000000000000000000000000000000000000600052604160045260246000fd5b6123b38261236a565b810181811067ffffffffffffffff821117156123d2576123d161237b565b5b80604052505050565b60006123e5611773565b90506123f182826123aa565b919050565b600067ffffffffffffffff8211156124115761241061237b565b5b602082029050602081019050919050565b600080fd5b600061243a612435846123f6565b6123db565b9050808382526020820190506020840283018581111561245d5761245c612422565b5b835b8181101561248657806124728882612010565b84526020840193505060208101905061245f565b5050509392505050565b600082601f8301126124a5576124a4612365565b5b81516124b5848260208601612427565b91505092915050565b6000602082840312156124d4576124d361177d565b5b600082015167ffffffffffffffff8111156124f2576124f1611782565b5b6124fe84828501612490565b9150509291505056fea2646970667358221220814b728519efac5e5e10632f9938850ae046f117bbf69d643529be510f3d423b64736f6c63430008140033",
  "linkReferences": {},
  "deployedLinkReferences": {}
}